{
	"contracts/MyConstract.sol": {
		"MyContract": {
			"abi": [
				{
					"inputs": [
						{
							"internalType": "uint256",
							"name": "value",
							"type": "uint256"
						},
						{
							"internalType": "uint256",
							"name": "length",
							"type": "uint256"
						}
					],
					"name": "StringsInsufficientHexLength",
					"type": "error"
				},
				{
					"inputs": [
						{
							"internalType": "address",
							"name": "addr",
							"type": "address"
						}
					],
					"name": "addressToString",
					"outputs": [
						{
							"internalType": "string",
							"name": "",
							"type": "string"
						}
					],
					"stateMutability": "pure",
					"type": "function"
				},
				{
					"inputs": [],
					"name": "getNumberAsString",
					"outputs": [
						{
							"internalType": "string",
							"name": "",
							"type": "string"
						}
					],
					"stateMutability": "view",
					"type": "function"
				},
				{
					"inputs": [],
					"name": "myNumber",
					"outputs": [
						{
							"internalType": "uint256",
							"name": "",
							"type": "uint256"
						}
					],
					"stateMutability": "view",
					"type": "function"
				}
			],
			"devdoc": {
				"errors": {
					"StringsInsufficientHexLength(uint256,uint256)": [
						{
							"details": "The `value` string doesn't fit in the specified `length`."
						}
					]
				},
				"kind": "dev",
				"methods": {},
				"version": 1
			},
			"evm": {
				"assembly": "    /* \"contracts/MyConstract.sol\":111:503  contract MyContract{... */\n  mstore(0x40, 0x80)\n    /* \"contracts/MyConstract.sol\":194:200  123456 */\n  0x01e240\n    /* \"contracts/MyConstract.sol\":168:200  uint256 public myNumber = 123456 */\n  0x00\n  sstore\n    /* \"contracts/MyConstract.sol\":111:503  contract MyContract{... */\n  callvalue\n  dup1\n  iszero\n  tag_1\n  jumpi\n  revert(0x00, 0x00)\ntag_1:\n  pop\n  dataSize(sub_0)\n  dup1\n  dataOffset(sub_0)\n  0x00\n  codecopy\n  0x00\n  return\nstop\n\nsub_0: assembly {\n        /* \"contracts/MyConstract.sol\":111:503  contract MyContract{... */\n      mstore(0x40, 0x80)\n      callvalue\n      dup1\n      iszero\n      tag_1\n      jumpi\n      revert(0x00, 0x00)\n    tag_1:\n      pop\n      jumpi(tag_2, lt(calldatasize, 0x04))\n      shr(0xe0, calldataload(0x00))\n      dup1\n      0x23fd0e40\n      eq\n      tag_3\n      jumpi\n      dup1\n      0x5e57966d\n      eq\n      tag_4\n      jumpi\n      dup1\n      0x73dc0852\n      eq\n      tag_5\n      jumpi\n    tag_2:\n      revert(0x00, 0x00)\n        /* \"contracts/MyConstract.sol\":168:200  uint256 public myNumber = 123456 */\n    tag_3:\n      tag_6\n      tag_7\n      jump\t// in\n    tag_6:\n      mload(0x40)\n      tag_8\n      swap2\n      swap1\n      tag_9\n      jump\t// in\n    tag_8:\n      mload(0x40)\n      dup1\n      swap2\n      sub\n      swap1\n      return\n        /* \"contracts/MyConstract.sol\":364:501  function addressToString(address addr) public pure returns (string memory) {... */\n    tag_4:\n      tag_10\n      0x04\n      dup1\n      calldatasize\n      sub\n      dup2\n      add\n      swap1\n      tag_11\n      swap2\n      swap1\n      tag_12\n      jump\t// in\n    tag_11:\n      tag_13\n      jump\t// in\n    tag_10:\n      mload(0x40)\n      tag_14\n      swap2\n      swap1\n      tag_15\n      jump\t// in\n    tag_14:\n      mload(0x40)\n      dup1\n      swap2\n      sub\n      swap1\n      return\n        /* \"contracts/MyConstract.sol\":207:315  function getNumberAsString() public view returns (string memory) {... */\n    tag_5:\n      tag_16\n      tag_17\n      jump\t// in\n    tag_16:\n      mload(0x40)\n      tag_18\n      swap2\n      swap1\n      tag_15\n      jump\t// in\n    tag_18:\n      mload(0x40)\n      dup1\n      swap2\n      sub\n      swap1\n      return\n        /* \"contracts/MyConstract.sol\":168:200  uint256 public myNumber = 123456 */\n    tag_7:\n      sload(0x00)\n      dup2\n      jump\t// out\n        /* \"contracts/MyConstract.sol\":364:501  function addressToString(address addr) public pure returns (string memory) {... */\n    tag_13:\n        /* \"contracts/MyConstract.sol\":424:437  string memory */\n      0x60\n        /* \"contracts/MyConstract.sol\":456:494  uint256(uint160(addr)).toHexString(20) */\n      tag_20\n        /* \"contracts/MyConstract.sol\":491:493  20 */\n      0x14\n        /* \"contracts/MyConstract.sol\":472:476  addr */\n      dup4\n        /* \"contracts/MyConstract.sol\":456:478  uint256(uint160(addr)) */\n      0xffffffffffffffffffffffffffffffffffffffff\n      and\n        /* \"contracts/MyConstract.sol\":456:490  uint256(uint160(addr)).toHexString */\n      tag_21\n      swap1\n        /* \"contracts/MyConstract.sol\":456:494  uint256(uint160(addr)).toHexString(20) */\n      swap2\n      swap1\n      0xffffffff\n      and\n      jump\t// in\n    tag_20:\n        /* \"contracts/MyConstract.sol\":449:494  return uint256(uint160(addr)).toHexString(20) */\n      swap1\n      pop\n        /* \"contracts/MyConstract.sol\":364:501  function addressToString(address addr) public pure returns (string memory) {... */\n      swap2\n      swap1\n      pop\n      jump\t// out\n        /* \"contracts/MyConstract.sol\":207:315  function getNumberAsString() public view returns (string memory) {... */\n    tag_17:\n        /* \"contracts/MyConstract.sol\":257:270  string memory */\n      0x60\n        /* \"contracts/MyConstract.sol\":289:308  myNumber.toString() */\n      tag_23\n        /* \"contracts/MyConstract.sol\":289:297  myNumber */\n      sload(0x00)\n        /* \"contracts/MyConstract.sol\":289:306  myNumber.toString */\n      tag_24\n        /* \"contracts/MyConstract.sol\":289:308  myNumber.toString() */\n      jump\t// in\n    tag_23:\n        /* \"contracts/MyConstract.sol\":282:308  return myNumber.toString() */\n      swap1\n      pop\n        /* \"contracts/MyConstract.sol\":207:315  function getNumberAsString() public view returns (string memory) {... */\n      swap1\n      jump\t// out\n        /* \"@openzeppelin/contracts/utils/Strings.sol\":2555:3080  function toHexString(uint256 value, uint256 length) internal pure returns (string memory) {... */\n    tag_21:\n        /* \"@openzeppelin/contracts/utils/Strings.sol\":2630:2643  string memory */\n      0x60\n        /* \"@openzeppelin/contracts/utils/Strings.sol\":2655:2673  uint256 localValue */\n      0x00\n        /* \"@openzeppelin/contracts/utils/Strings.sol\":2676:2681  value */\n      dup4\n        /* \"@openzeppelin/contracts/utils/Strings.sol\":2655:2681  uint256 localValue = value */\n      swap1\n      pop\n        /* \"@openzeppelin/contracts/utils/Strings.sol\":2691:2710  bytes memory buffer */\n      0x00\n        /* \"@openzeppelin/contracts/utils/Strings.sol\":2736:2737  2 */\n      0x02\n        /* \"@openzeppelin/contracts/utils/Strings.sol\":2727:2733  length */\n      dup5\n        /* \"@openzeppelin/contracts/utils/Strings.sol\":2723:2724  2 */\n      0x02\n        /* \"@openzeppelin/contracts/utils/Strings.sol\":2723:2733  2 * length */\n      tag_26\n      swap2\n      swap1\n      tag_27\n      jump\t// in\n    tag_26:\n        /* \"@openzeppelin/contracts/utils/Strings.sol\":2723:2737  2 * length + 2 */\n      tag_28\n      swap2\n      swap1\n      tag_29\n      jump\t// in\n    tag_28:\n        /* \"@openzeppelin/contracts/utils/Strings.sol\":2713:2738  new bytes(2 * length + 2) */\n      0xffffffffffffffff\n      dup2\n      gt\n      iszero\n      tag_30\n      jumpi\n      tag_31\n      tag_32\n      jump\t// in\n    tag_31:\n    tag_30:\n      mload(0x40)\n      swap1\n      dup1\n      dup3\n      mstore\n      dup1\n      0x1f\n      add\n      not(0x1f)\n      and\n      0x20\n      add\n      dup3\n      add\n      0x40\n      mstore\n      dup1\n      iszero\n      tag_33\n      jumpi\n      dup2\n      0x20\n      add\n      0x01\n      dup3\n      mul\n      dup1\n      calldatasize\n      dup4\n      calldatacopy\n      dup1\n      dup3\n      add\n      swap2\n      pop\n      pop\n      swap1\n      pop\n    tag_33:\n      pop\n        /* \"@openzeppelin/contracts/utils/Strings.sol\":2691:2738  bytes memory buffer = new bytes(2 * length + 2) */\n      swap1\n      pop\n        /* \"@openzeppelin/contracts/utils/Strings.sol\":2748:2763  buffer[0] = \"0\" */\n      0x3000000000000000000000000000000000000000000000000000000000000000\n        /* \"@openzeppelin/contracts/utils/Strings.sol\":2748:2754  buffer */\n      dup2\n        /* \"@openzeppelin/contracts/utils/Strings.sol\":2755:2756  0 */\n      0x00\n        /* \"@openzeppelin/contracts/utils/Strings.sol\":2748:2757  buffer[0] */\n      dup2\n      mload\n      dup2\n      lt\n      tag_34\n      jumpi\n      tag_35\n      tag_36\n      jump\t// in\n    tag_35:\n    tag_34:\n      0x20\n      add\n      add\n        /* \"@openzeppelin/contracts/utils/Strings.sol\":2748:2763  buffer[0] = \"0\" */\n      swap1\n      not(0xffffffffffffffffffffffffffffffffffffffffffffffffffffffffffffff)\n      and\n      swap1\n      dup2\n      0x00\n      byte\n      swap1\n      mstore8\n      pop\n        /* \"@openzeppelin/contracts/utils/Strings.sol\":2773:2788  buffer[1] = \"x\" */\n      0x7800000000000000000000000000000000000000000000000000000000000000\n        /* \"@openzeppelin/contracts/utils/Strings.sol\":2773:2779  buffer */\n      dup2\n        /* \"@openzeppelin/contracts/utils/Strings.sol\":2780:2781  1 */\n      0x01\n        /* \"@openzeppelin/contracts/utils/Strings.sol\":2773:2782  buffer[1] */\n      dup2\n      mload\n      dup2\n      lt\n      tag_37\n      jumpi\n      tag_38\n      tag_36\n      jump\t// in\n    tag_38:\n    tag_37:\n      0x20\n      add\n      add\n        /* \"@openzeppelin/contracts/utils/Strings.sol\":2773:2788  buffer[1] = \"x\" */\n      swap1\n      not(0xffffffffffffffffffffffffffffffffffffffffffffffffffffffffffffff)\n      and\n      swap1\n      dup2\n      0x00\n      byte\n      swap1\n      mstore8\n      pop\n        /* \"@openzeppelin/contracts/utils/Strings.sol\":2803:2812  uint256 i */\n      0x00\n        /* \"@openzeppelin/contracts/utils/Strings.sol\":2828:2829  1 */\n      0x01\n        /* \"@openzeppelin/contracts/utils/Strings.sol\":2819:2825  length */\n      dup6\n        /* \"@openzeppelin/contracts/utils/Strings.sol\":2815:2816  2 */\n      0x02\n        /* \"@openzeppelin/contracts/utils/Strings.sol\":2815:2825  2 * length */\n      tag_42\n      swap2\n      swap1\n      tag_27\n      jump\t// in\n    tag_42:\n        /* \"@openzeppelin/contracts/utils/Strings.sol\":2815:2829  2 * length + 1 */\n      tag_43\n      swap2\n      swap1\n      tag_29\n      jump\t// in\n    tag_43:\n        /* \"@openzeppelin/contracts/utils/Strings.sol\":2803:2829  uint256 i = 2 * length + 1 */\n      swap1\n      pop\n        /* \"@openzeppelin/contracts/utils/Strings.sol\":2798:2938  for (uint256 i = 2 * length + 1; i > 1; --i) {... */\n    tag_39:\n        /* \"@openzeppelin/contracts/utils/Strings.sol\":2835:2836  1 */\n      0x01\n        /* \"@openzeppelin/contracts/utils/Strings.sol\":2831:2832  i */\n      dup2\n        /* \"@openzeppelin/contracts/utils/Strings.sol\":2831:2836  i > 1 */\n      gt\n        /* \"@openzeppelin/contracts/utils/Strings.sol\":2798:2938  for (uint256 i = 2 * length + 1; i > 1; --i) {... */\n      iszero\n      tag_40\n      jumpi\n        /* \"@openzeppelin/contracts/utils/Strings.sol\":2869:2879  HEX_DIGITS */\n      0x3031323334353637383961626364656600000000000000000000000000000000\n        /* \"@openzeppelin/contracts/utils/Strings.sol\":2893:2896  0xf */\n      0x0f\n        /* \"@openzeppelin/contracts/utils/Strings.sol\":2880:2890  localValue */\n      dup5\n        /* \"@openzeppelin/contracts/utils/Strings.sol\":2880:2896  localValue & 0xf */\n      and\n        /* \"@openzeppelin/contracts/utils/Strings.sol\":2869:2897  HEX_DIGITS[localValue & 0xf] */\n      0x10\n      dup2\n      lt\n      tag_44\n      jumpi\n      tag_45\n      tag_36\n      jump\t// in\n    tag_45:\n    tag_44:\n      byte\n      0xf8\n      shl\n        /* \"@openzeppelin/contracts/utils/Strings.sol\":2857:2863  buffer */\n      dup3\n        /* \"@openzeppelin/contracts/utils/Strings.sol\":2864:2865  i */\n      dup3\n        /* \"@openzeppelin/contracts/utils/Strings.sol\":2857:2866  buffer[i] */\n      dup2\n      mload\n      dup2\n      lt\n      tag_46\n      jumpi\n      tag_47\n      tag_36\n      jump\t// in\n    tag_47:\n    tag_46:\n      0x20\n      add\n      add\n        /* \"@openzeppelin/contracts/utils/Strings.sol\":2857:2897  buffer[i] = HEX_DIGITS[localValue & 0xf] */\n      swap1\n      not(0xffffffffffffffffffffffffffffffffffffffffffffffffffffffffffffff)\n      and\n      swap1\n      dup2\n      0x00\n      byte\n      swap1\n      mstore8\n      pop\n        /* \"@openzeppelin/contracts/utils/Strings.sol\":2926:2927  4 */\n      0x04\n        /* \"@openzeppelin/contracts/utils/Strings.sol\":2911:2927  localValue >>= 4 */\n      dup4\n      swap1\n      shr\n      swap3\n      pop\n        /* \"@openzeppelin/contracts/utils/Strings.sol\":2838:2841  --i */\n      dup1\n      tag_48\n      swap1\n      tag_49\n      jump\t// in\n    tag_48:\n      swap1\n      pop\n        /* \"@openzeppelin/contracts/utils/Strings.sol\":2798:2938  for (uint256 i = 2 * length + 1; i > 1; --i) {... */\n      jump(tag_39)\n    tag_40:\n      pop\n        /* \"@openzeppelin/contracts/utils/Strings.sol\":2965:2966  0 */\n      0x00\n        /* \"@openzeppelin/contracts/utils/Strings.sol\":2951:2961  localValue */\n      dup3\n        /* \"@openzeppelin/contracts/utils/Strings.sol\":2951:2966  localValue != 0 */\n      eq\n        /* \"@openzeppelin/contracts/utils/Strings.sol\":2947:3043  if (localValue != 0) {... */\n      tag_50\n      jumpi\n        /* \"@openzeppelin/contracts/utils/Strings.sol\":3018:3023  value */\n      dup5\n        /* \"@openzeppelin/contracts/utils/Strings.sol\":3025:3031  length */\n      dup5\n        /* \"@openzeppelin/contracts/utils/Strings.sol\":2989:3032  StringsInsufficientHexLength(value, length) */\n      mload(0x40)\n      0xe22e27eb00000000000000000000000000000000000000000000000000000000\n      dup2\n      mstore\n      0x04\n      add\n      tag_51\n      swap3\n      swap2\n      swap1\n      tag_52\n      jump\t// in\n    tag_51:\n      mload(0x40)\n      dup1\n      swap2\n      sub\n      swap1\n      revert\n        /* \"@openzeppelin/contracts/utils/Strings.sol\":2947:3043  if (localValue != 0) {... */\n    tag_50:\n        /* \"@openzeppelin/contracts/utils/Strings.sol\":3066:3072  buffer */\n      dup1\n        /* \"@openzeppelin/contracts/utils/Strings.sol\":3052:3073  return string(buffer) */\n      swap3\n      pop\n      pop\n      pop\n        /* \"@openzeppelin/contracts/utils/Strings.sol\":2555:3080  function toHexString(uint256 value, uint256 length) internal pure returns (string memory) {... */\n      swap3\n      swap2\n      pop\n      pop\n      jump\t// out\n        /* \"@openzeppelin/contracts/utils/Strings.sol\":1251:1885  function toString(uint256 value) internal pure returns (string memory) {... */\n    tag_24:\n        /* \"@openzeppelin/contracts/utils/Strings.sol\":1307:1320  string memory */\n      0x60\n        /* \"@openzeppelin/contracts/utils/Strings.sol\":1356:1370  uint256 length */\n      0x00\n        /* \"@openzeppelin/contracts/utils/Strings.sol\":1393:1394  1 */\n      0x01\n        /* \"@openzeppelin/contracts/utils/Strings.sol\":1373:1390  Math.log10(value) */\n      tag_54\n        /* \"@openzeppelin/contracts/utils/Strings.sol\":1384:1389  value */\n      dup5\n        /* \"@openzeppelin/contracts/utils/Strings.sol\":1373:1383  Math.log10 */\n      tag_55\n        /* \"@openzeppelin/contracts/utils/Strings.sol\":1373:1390  Math.log10(value) */\n      jump\t// in\n    tag_54:\n        /* \"@openzeppelin/contracts/utils/Strings.sol\":1373:1394  Math.log10(value) + 1 */\n      add\n        /* \"@openzeppelin/contracts/utils/Strings.sol\":1356:1394  uint256 length = Math.log10(value) + 1 */\n      swap1\n      pop\n        /* \"@openzeppelin/contracts/utils/Strings.sol\":1408:1428  string memory buffer */\n      0x00\n        /* \"@openzeppelin/contracts/utils/Strings.sol\":1442:1448  length */\n      dup2\n        /* \"@openzeppelin/contracts/utils/Strings.sol\":1431:1449  new string(length) */\n      0xffffffffffffffff\n      dup2\n      gt\n      iszero\n      tag_56\n      jumpi\n      tag_57\n      tag_32\n      jump\t// in\n    tag_57:\n    tag_56:\n      mload(0x40)\n      swap1\n      dup1\n      dup3\n      mstore\n      dup1\n      0x1f\n      add\n      not(0x1f)\n      and\n      0x20\n      add\n      dup3\n      add\n      0x40\n      mstore\n      dup1\n      iszero\n      tag_58\n      jumpi\n      dup2\n      0x20\n      add\n      0x01\n      dup3\n      mul\n      dup1\n      calldatasize\n      dup4\n      calldatacopy\n      dup1\n      dup3\n      add\n      swap2\n      pop\n      pop\n      swap1\n      pop\n    tag_58:\n      pop\n        /* \"@openzeppelin/contracts/utils/Strings.sol\":1408:1449  string memory buffer = new string(length) */\n      swap1\n      pop\n        /* \"@openzeppelin/contracts/utils/Strings.sol\":1463:1474  uint256 ptr */\n      0x00\n        /* \"@openzeppelin/contracts/utils/Strings.sol\":1561:1567  length */\n      dup3\n        /* \"@openzeppelin/contracts/utils/Strings.sol\":1554:1558  0x20 */\n      0x20\n        /* \"@openzeppelin/contracts/utils/Strings.sol\":1546:1552  buffer */\n      dup4\n        /* \"@openzeppelin/contracts/utils/Strings.sol\":1542:1559  add(buffer, 0x20) */\n      add\n        /* \"@openzeppelin/contracts/utils/Strings.sol\":1538:1568  add(add(buffer, 0x20), length) */\n      add\n        /* \"@openzeppelin/contracts/utils/Strings.sol\":1531:1568  ptr := add(add(buffer, 0x20), length) */\n      swap1\n      pop\n        /* \"@openzeppelin/contracts/utils/Strings.sol\":1595:1842  while (true) {... */\n    tag_59:\n        /* \"@openzeppelin/contracts/utils/Strings.sol\":1602:1606  true */\n      0x01\n        /* \"@openzeppelin/contracts/utils/Strings.sol\":1595:1842  while (true) {... */\n      iszero\n      tag_60\n      jumpi\n        /* \"@openzeppelin/contracts/utils/Strings.sol\":1626:1631  ptr-- */\n      dup1\n      dup1\n      0x01\n      swap1\n      sub\n      swap2\n      pop\n      pop\n        /* \"@openzeppelin/contracts/utils/Strings.sol\":1730:1740  HEX_DIGITS */\n      0x3031323334353637383961626364656600000000000000000000000000000000\n        /* \"@openzeppelin/contracts/utils/Strings.sol\":1725:1727  10 */\n      0x0a\n        /* \"@openzeppelin/contracts/utils/Strings.sol\":1718:1723  value */\n      dup7\n        /* \"@openzeppelin/contracts/utils/Strings.sol\":1714:1728  mod(value, 10) */\n      mod\n        /* \"@openzeppelin/contracts/utils/Strings.sol\":1709:1741  byte(mod(value, 10), HEX_DIGITS) */\n      byte\n        /* \"@openzeppelin/contracts/utils/Strings.sol\":1704:1707  ptr */\n      dup2\n        /* \"@openzeppelin/contracts/utils/Strings.sol\":1696:1742  mstore8(ptr, byte(mod(value, 10), HEX_DIGITS)) */\n      mstore8\n        /* \"@openzeppelin/contracts/utils/Strings.sol\":1786:1788  10 */\n      0x0a\n        /* \"@openzeppelin/contracts/utils/Strings.sol\":1777:1788  value /= 10 */\n      dup6\n      dup2\n      tag_61\n      jumpi\n      tag_62\n      tag_63\n      jump\t// in\n    tag_62:\n    tag_61:\n      div\n      swap5\n      pop\n        /* \"@openzeppelin/contracts/utils/Strings.sol\":1819:1820  0 */\n      0x00\n        /* \"@openzeppelin/contracts/utils/Strings.sol\":1810:1815  value */\n      dup6\n        /* \"@openzeppelin/contracts/utils/Strings.sol\":1810:1820  value == 0 */\n      sub\n        /* \"@openzeppelin/contracts/utils/Strings.sol\":1595:1842  while (true) {... */\n      tag_59\n        /* \"@openzeppelin/contracts/utils/Strings.sol\":1806:1827  if (value == 0) break */\n      jumpi\n        /* \"@openzeppelin/contracts/utils/Strings.sol\":1595:1842  while (true) {... */\n    tag_60:\n        /* \"@openzeppelin/contracts/utils/Strings.sol\":1862:1868  buffer */\n      dup2\n        /* \"@openzeppelin/contracts/utils/Strings.sol\":1855:1868  return buffer */\n      swap4\n      pop\n      pop\n      pop\n      pop\n        /* \"@openzeppelin/contracts/utils/Strings.sol\":1251:1885  function toString(uint256 value) internal pure returns (string memory) {... */\n      swap2\n      swap1\n      pop\n      jump\t// out\n        /* \"@openzeppelin/contracts/utils/math/Math.sol\":29471:30387  function log10(uint256 value) internal pure returns (uint256) {... */\n    tag_55:\n        /* \"@openzeppelin/contracts/utils/math/Math.sol\":29524:29531  uint256 */\n      0x00\n        /* \"@openzeppelin/contracts/utils/math/Math.sol\":29543:29557  uint256 result */\n      0x00\n        /* \"@openzeppelin/contracts/utils/math/Math.sol\":29560:29561  0 */\n      0x00\n        /* \"@openzeppelin/contracts/utils/math/Math.sol\":29543:29561  uint256 result = 0 */\n      swap1\n      pop\n        /* \"@openzeppelin/contracts/utils/math/Math.sol\":29608:29616  10 ** 64 */\n      0x184f03e93ff9f4daa797ed6e38ed64bf6a1f010000000000000000\n        /* \"@openzeppelin/contracts/utils/math/Math.sol\":29599:29604  value */\n      dup4\n        /* \"@openzeppelin/contracts/utils/math/Math.sol\":29599:29616  value >= 10 ** 64 */\n      lt\n        /* \"@openzeppelin/contracts/utils/math/Math.sol\":29595:29698  if (value >= 10 ** 64) {... */\n      tag_66\n      jumpi\n        /* \"@openzeppelin/contracts/utils/math/Math.sol\":29645:29653  10 ** 64 */\n      0x184f03e93ff9f4daa797ed6e38ed64bf6a1f010000000000000000\n        /* \"@openzeppelin/contracts/utils/math/Math.sol\":29636:29653  value /= 10 ** 64 */\n      dup4\n      dup2\n      tag_67\n      jumpi\n      tag_68\n      tag_63\n      jump\t// in\n    tag_68:\n    tag_67:\n      div\n      swap3\n      pop\n        /* \"@openzeppelin/contracts/utils/math/Math.sol\":29681:29683  64 */\n      0x40\n        /* \"@openzeppelin/contracts/utils/math/Math.sol\":29671:29683  result += 64 */\n      dup2\n      add\n      swap1\n      pop\n        /* \"@openzeppelin/contracts/utils/math/Math.sol\":29595:29698  if (value >= 10 ** 64) {... */\n    tag_66:\n        /* \"@openzeppelin/contracts/utils/math/Math.sol\":29724:29732  10 ** 32 */\n      0x04ee2d6d415b85acef8100000000\n        /* \"@openzeppelin/contracts/utils/math/Math.sol\":29715:29720  value */\n      dup4\n        /* \"@openzeppelin/contracts/utils/math/Math.sol\":29715:29732  value >= 10 ** 32 */\n      lt\n        /* \"@openzeppelin/contracts/utils/math/Math.sol\":29711:29814  if (value >= 10 ** 32) {... */\n      tag_69\n      jumpi\n        /* \"@openzeppelin/contracts/utils/math/Math.sol\":29761:29769  10 ** 32 */\n      0x04ee2d6d415b85acef8100000000\n        /* \"@openzeppelin/contracts/utils/math/Math.sol\":29752:29769  value /= 10 ** 32 */\n      dup4\n      dup2\n      tag_70\n      jumpi\n      tag_71\n      tag_63\n      jump\t// in\n    tag_71:\n    tag_70:\n      div\n      swap3\n      pop\n        /* \"@openzeppelin/contracts/utils/math/Math.sol\":29797:29799  32 */\n      0x20\n        /* \"@openzeppelin/contracts/utils/math/Math.sol\":29787:29799  result += 32 */\n      dup2\n      add\n      swap1\n      pop\n        /* \"@openzeppelin/contracts/utils/math/Math.sol\":29711:29814  if (value >= 10 ** 32) {... */\n    tag_69:\n        /* \"@openzeppelin/contracts/utils/math/Math.sol\":29840:29848  10 ** 16 */\n      0x2386f26fc10000\n        /* \"@openzeppelin/contracts/utils/math/Math.sol\":29831:29836  value */\n      dup4\n        /* \"@openzeppelin/contracts/utils/math/Math.sol\":29831:29848  value >= 10 ** 16 */\n      lt\n        /* \"@openzeppelin/contracts/utils/math/Math.sol\":29827:29930  if (value >= 10 ** 16) {... */\n      tag_72\n      jumpi\n        /* \"@openzeppelin/contracts/utils/math/Math.sol\":29877:29885  10 ** 16 */\n      0x2386f26fc10000\n        /* \"@openzeppelin/contracts/utils/math/Math.sol\":29868:29885  value /= 10 ** 16 */\n      dup4\n      dup2\n      tag_73\n      jumpi\n      tag_74\n      tag_63\n      jump\t// in\n    tag_74:\n    tag_73:\n      div\n      swap3\n      pop\n        /* \"@openzeppelin/contracts/utils/math/Math.sol\":29913:29915  16 */\n      0x10\n        /* \"@openzeppelin/contracts/utils/math/Math.sol\":29903:29915  result += 16 */\n      dup2\n      add\n      swap1\n      pop\n        /* \"@openzeppelin/contracts/utils/math/Math.sol\":29827:29930  if (value >= 10 ** 16) {... */\n    tag_72:\n        /* \"@openzeppelin/contracts/utils/math/Math.sol\":29956:29963  10 ** 8 */\n      0x05f5e100\n        /* \"@openzeppelin/contracts/utils/math/Math.sol\":29947:29952  value */\n      dup4\n        /* \"@openzeppelin/contracts/utils/math/Math.sol\":29947:29963  value >= 10 ** 8 */\n      lt\n        /* \"@openzeppelin/contracts/utils/math/Math.sol\":29943:30043  if (value >= 10 ** 8) {... */\n      tag_75\n      jumpi\n        /* \"@openzeppelin/contracts/utils/math/Math.sol\":29992:29999  10 ** 8 */\n      0x05f5e100\n        /* \"@openzeppelin/contracts/utils/math/Math.sol\":29983:29999  value /= 10 ** 8 */\n      dup4\n      dup2\n      tag_76\n      jumpi\n      tag_77\n      tag_63\n      jump\t// in\n    tag_77:\n    tag_76:\n      div\n      swap3\n      pop\n        /* \"@openzeppelin/contracts/utils/math/Math.sol\":30027:30028  8 */\n      0x08\n        /* \"@openzeppelin/contracts/utils/math/Math.sol\":30017:30028  result += 8 */\n      dup2\n      add\n      swap1\n      pop\n        /* \"@openzeppelin/contracts/utils/math/Math.sol\":29943:30043  if (value >= 10 ** 8) {... */\n    tag_75:\n        /* \"@openzeppelin/contracts/utils/math/Math.sol\":30069:30076  10 ** 4 */\n      0x2710\n        /* \"@openzeppelin/contracts/utils/math/Math.sol\":30060:30065  value */\n      dup4\n        /* \"@openzeppelin/contracts/utils/math/Math.sol\":30060:30076  value >= 10 ** 4 */\n      lt\n        /* \"@openzeppelin/contracts/utils/math/Math.sol\":30056:30156  if (value >= 10 ** 4) {... */\n      tag_78\n      jumpi\n        /* \"@openzeppelin/contracts/utils/math/Math.sol\":30105:30112  10 ** 4 */\n      0x2710\n        /* \"@openzeppelin/contracts/utils/math/Math.sol\":30096:30112  value /= 10 ** 4 */\n      dup4\n      dup2\n      tag_79\n      jumpi\n      tag_80\n      tag_63\n      jump\t// in\n    tag_80:\n    tag_79:\n      div\n      swap3\n      pop\n        /* \"@openzeppelin/contracts/utils/math/Math.sol\":30140:30141  4 */\n      0x04\n        /* \"@openzeppelin/contracts/utils/math/Math.sol\":30130:30141  result += 4 */\n      dup2\n      add\n      swap1\n      pop\n        /* \"@openzeppelin/contracts/utils/math/Math.sol\":30056:30156  if (value >= 10 ** 4) {... */\n    tag_78:\n        /* \"@openzeppelin/contracts/utils/math/Math.sol\":30182:30189  10 ** 2 */\n      0x64\n        /* \"@openzeppelin/contracts/utils/math/Math.sol\":30173:30178  value */\n      dup4\n        /* \"@openzeppelin/contracts/utils/math/Math.sol\":30173:30189  value >= 10 ** 2 */\n      lt\n        /* \"@openzeppelin/contracts/utils/math/Math.sol\":30169:30269  if (value >= 10 ** 2) {... */\n      tag_81\n      jumpi\n        /* \"@openzeppelin/contracts/utils/math/Math.sol\":30218:30225  10 ** 2 */\n      0x64\n        /* \"@openzeppelin/contracts/utils/math/Math.sol\":30209:30225  value /= 10 ** 2 */\n      dup4\n      dup2\n      tag_82\n      jumpi\n      tag_83\n      tag_63\n      jump\t// in\n    tag_83:\n    tag_82:\n      div\n      swap3\n      pop\n        /* \"@openzeppelin/contracts/utils/math/Math.sol\":30253:30254  2 */\n      0x02\n        /* \"@openzeppelin/contracts/utils/math/Math.sol\":30243:30254  result += 2 */\n      dup2\n      add\n      swap1\n      pop\n        /* \"@openzeppelin/contracts/utils/math/Math.sol\":30169:30269  if (value >= 10 ** 2) {... */\n    tag_81:\n        /* \"@openzeppelin/contracts/utils/math/Math.sol\":30295:30302  10 ** 1 */\n      0x0a\n        /* \"@openzeppelin/contracts/utils/math/Math.sol\":30286:30291  value */\n      dup4\n        /* \"@openzeppelin/contracts/utils/math/Math.sol\":30286:30302  value >= 10 ** 1 */\n      lt\n        /* \"@openzeppelin/contracts/utils/math/Math.sol\":30282:30348  if (value >= 10 ** 1) {... */\n      tag_84\n      jumpi\n        /* \"@openzeppelin/contracts/utils/math/Math.sol\":30332:30333  1 */\n      0x01\n        /* \"@openzeppelin/contracts/utils/math/Math.sol\":30322:30333  result += 1 */\n      dup2\n      add\n      swap1\n      pop\n        /* \"@openzeppelin/contracts/utils/math/Math.sol\":30282:30348  if (value >= 10 ** 1) {... */\n    tag_84:\n        /* \"@openzeppelin/contracts/utils/math/Math.sol\":30374:30380  result */\n      dup1\n        /* \"@openzeppelin/contracts/utils/math/Math.sol\":30367:30380  return result */\n      swap2\n      pop\n      pop\n        /* \"@openzeppelin/contracts/utils/math/Math.sol\":29471:30387  function log10(uint256 value) internal pure returns (uint256) {... */\n      swap2\n      swap1\n      pop\n      jump\t// out\n        /* \"#utility.yul\":7:84   */\n    tag_85:\n        /* \"#utility.yul\":44:51   */\n      0x00\n        /* \"#utility.yul\":73:78   */\n      dup2\n        /* \"#utility.yul\":62:78   */\n      swap1\n      pop\n        /* \"#utility.yul\":7:84   */\n      swap2\n      swap1\n      pop\n      jump\t// out\n        /* \"#utility.yul\":90:208   */\n    tag_86:\n        /* \"#utility.yul\":177:201   */\n      tag_103\n        /* \"#utility.yul\":195:200   */\n      dup2\n        /* \"#utility.yul\":177:201   */\n      tag_85\n      jump\t// in\n    tag_103:\n        /* \"#utility.yul\":172:175   */\n      dup3\n        /* \"#utility.yul\":165:202   */\n      mstore\n        /* \"#utility.yul\":90:208   */\n      pop\n      pop\n      jump\t// out\n        /* \"#utility.yul\":214:436   */\n    tag_9:\n        /* \"#utility.yul\":307:311   */\n      0x00\n        /* \"#utility.yul\":345:347   */\n      0x20\n        /* \"#utility.yul\":334:343   */\n      dup3\n        /* \"#utility.yul\":330:348   */\n      add\n        /* \"#utility.yul\":322:348   */\n      swap1\n      pop\n        /* \"#utility.yul\":358:429   */\n      tag_105\n        /* \"#utility.yul\":426:427   */\n      0x00\n        /* \"#utility.yul\":415:424   */\n      dup4\n        /* \"#utility.yul\":411:428   */\n      add\n        /* \"#utility.yul\":402:408   */\n      dup5\n        /* \"#utility.yul\":358:429   */\n      tag_86\n      jump\t// in\n    tag_105:\n        /* \"#utility.yul\":214:436   */\n      swap3\n      swap2\n      pop\n      pop\n      jump\t// out\n        /* \"#utility.yul\":523:640   */\n    tag_88:\n        /* \"#utility.yul\":632:633   */\n      0x00\n        /* \"#utility.yul\":629:630   */\n      0x00\n        /* \"#utility.yul\":622:634   */\n      revert\n        /* \"#utility.yul\":769:895   */\n    tag_90:\n        /* \"#utility.yul\":806:813   */\n      0x00\n        /* \"#utility.yul\":846:888   */\n      0xffffffffffffffffffffffffffffffffffffffff\n        /* \"#utility.yul\":839:844   */\n      dup3\n        /* \"#utility.yul\":835:889   */\n      and\n        /* \"#utility.yul\":824:889   */\n      swap1\n      pop\n        /* \"#utility.yul\":769:895   */\n      swap2\n      swap1\n      pop\n      jump\t// out\n        /* \"#utility.yul\":901:997   */\n    tag_91:\n        /* \"#utility.yul\":938:945   */\n      0x00\n        /* \"#utility.yul\":967:991   */\n      tag_111\n        /* \"#utility.yul\":985:990   */\n      dup3\n        /* \"#utility.yul\":967:991   */\n      tag_90\n      jump\t// in\n    tag_111:\n        /* \"#utility.yul\":956:991   */\n      swap1\n      pop\n        /* \"#utility.yul\":901:997   */\n      swap2\n      swap1\n      pop\n      jump\t// out\n        /* \"#utility.yul\":1003:1125   */\n    tag_92:\n        /* \"#utility.yul\":1076:1100   */\n      tag_113\n        /* \"#utility.yul\":1094:1099   */\n      dup2\n        /* \"#utility.yul\":1076:1100   */\n      tag_91\n      jump\t// in\n    tag_113:\n        /* \"#utility.yul\":1069:1074   */\n      dup2\n        /* \"#utility.yul\":1066:1101   */\n      eq\n        /* \"#utility.yul\":1056:1119   */\n      tag_114\n      jumpi\n        /* \"#utility.yul\":1115:1116   */\n      0x00\n        /* \"#utility.yul\":1112:1113   */\n      0x00\n        /* \"#utility.yul\":1105:1117   */\n      revert\n        /* \"#utility.yul\":1056:1119   */\n    tag_114:\n        /* \"#utility.yul\":1003:1125   */\n      pop\n      jump\t// out\n        /* \"#utility.yul\":1131:1270   */\n    tag_93:\n        /* \"#utility.yul\":1177:1182   */\n      0x00\n        /* \"#utility.yul\":1215:1221   */\n      dup2\n        /* \"#utility.yul\":1202:1222   */\n      calldataload\n        /* \"#utility.yul\":1193:1222   */\n      swap1\n      pop\n        /* \"#utility.yul\":1231:1264   */\n      tag_116\n        /* \"#utility.yul\":1258:1263   */\n      dup2\n        /* \"#utility.yul\":1231:1264   */\n      tag_92\n      jump\t// in\n    tag_116:\n        /* \"#utility.yul\":1131:1270   */\n      swap3\n      swap2\n      pop\n      pop\n      jump\t// out\n        /* \"#utility.yul\":1276:1605   */\n    tag_12:\n        /* \"#utility.yul\":1335:1341   */\n      0x00\n        /* \"#utility.yul\":1384:1386   */\n      0x20\n        /* \"#utility.yul\":1372:1381   */\n      dup3\n        /* \"#utility.yul\":1363:1370   */\n      dup5\n        /* \"#utility.yul\":1359:1382   */\n      sub\n        /* \"#utility.yul\":1355:1387   */\n      slt\n        /* \"#utility.yul\":1352:1471   */\n      iszero\n      tag_118\n      jumpi\n        /* \"#utility.yul\":1390:1469   */\n      tag_119\n      tag_88\n      jump\t// in\n    tag_119:\n        /* \"#utility.yul\":1352:1471   */\n    tag_118:\n        /* \"#utility.yul\":1510:1511   */\n      0x00\n        /* \"#utility.yul\":1535:1588   */\n      tag_120\n        /* \"#utility.yul\":1580:1587   */\n      dup5\n        /* \"#utility.yul\":1571:1577   */\n      dup3\n        /* \"#utility.yul\":1560:1569   */\n      dup6\n        /* \"#utility.yul\":1556:1578   */\n      add\n        /* \"#utility.yul\":1535:1588   */\n      tag_93\n      jump\t// in\n    tag_120:\n        /* \"#utility.yul\":1525:1588   */\n      swap2\n      pop\n        /* \"#utility.yul\":1481:1598   */\n      pop\n        /* \"#utility.yul\":1276:1605   */\n      swap3\n      swap2\n      pop\n      pop\n      jump\t// out\n        /* \"#utility.yul\":1611:1710   */\n    tag_94:\n        /* \"#utility.yul\":1663:1669   */\n      0x00\n        /* \"#utility.yul\":1697:1702   */\n      dup2\n        /* \"#utility.yul\":1691:1703   */\n      mload\n        /* \"#utility.yul\":1681:1703   */\n      swap1\n      pop\n        /* \"#utility.yul\":1611:1710   */\n      swap2\n      swap1\n      pop\n      jump\t// out\n        /* \"#utility.yul\":1716:1885   */\n    tag_95:\n        /* \"#utility.yul\":1800:1811   */\n      0x00\n        /* \"#utility.yul\":1834:1840   */\n      dup3\n        /* \"#utility.yul\":1829:1832   */\n      dup3\n        /* \"#utility.yul\":1822:1841   */\n      mstore\n        /* \"#utility.yul\":1874:1878   */\n      0x20\n        /* \"#utility.yul\":1869:1872   */\n      dup3\n        /* \"#utility.yul\":1865:1879   */\n      add\n        /* \"#utility.yul\":1850:1879   */\n      swap1\n      pop\n        /* \"#utility.yul\":1716:1885   */\n      swap3\n      swap2\n      pop\n      pop\n      jump\t// out\n        /* \"#utility.yul\":1891:2030   */\n    tag_96:\n        /* \"#utility.yul\":1980:1986   */\n      dup3\n        /* \"#utility.yul\":1975:1978   */\n      dup2\n        /* \"#utility.yul\":1970:1973   */\n      dup4\n        /* \"#utility.yul\":1964:1987   */\n      mcopy\n        /* \"#utility.yul\":2021:2022   */\n      0x00\n        /* \"#utility.yul\":2012:2018   */\n      dup4\n        /* \"#utility.yul\":2007:2010   */\n      dup4\n        /* \"#utility.yul\":2003:2019   */\n      add\n        /* \"#utility.yul\":1996:2023   */\n      mstore\n        /* \"#utility.yul\":1891:2030   */\n      pop\n      pop\n      pop\n      jump\t// out\n        /* \"#utility.yul\":2036:2138   */\n    tag_97:\n        /* \"#utility.yul\":2077:2083   */\n      0x00\n        /* \"#utility.yul\":2128:2130   */\n      0x1f\n        /* \"#utility.yul\":2124:2131   */\n      not\n        /* \"#utility.yul\":2119:2121   */\n      0x1f\n        /* \"#utility.yul\":2112:2117   */\n      dup4\n        /* \"#utility.yul\":2108:2122   */\n      add\n        /* \"#utility.yul\":2104:2132   */\n      and\n        /* \"#utility.yul\":2094:2132   */\n      swap1\n      pop\n        /* \"#utility.yul\":2036:2138   */\n      swap2\n      swap1\n      pop\n      jump\t// out\n        /* \"#utility.yul\":2144:2521   */\n    tag_98:\n        /* \"#utility.yul\":2232:2235   */\n      0x00\n        /* \"#utility.yul\":2260:2299   */\n      tag_126\n        /* \"#utility.yul\":2293:2298   */\n      dup3\n        /* \"#utility.yul\":2260:2299   */\n      tag_94\n      jump\t// in\n    tag_126:\n        /* \"#utility.yul\":2315:2386   */\n      tag_127\n        /* \"#utility.yul\":2379:2385   */\n      dup2\n        /* \"#utility.yul\":2374:2377   */\n      dup6\n        /* \"#utility.yul\":2315:2386   */\n      tag_95\n      jump\t// in\n    tag_127:\n        /* \"#utility.yul\":2308:2386   */\n      swap4\n      pop\n        /* \"#utility.yul\":2395:2460   */\n      tag_128\n        /* \"#utility.yul\":2453:2459   */\n      dup2\n        /* \"#utility.yul\":2448:2451   */\n      dup6\n        /* \"#utility.yul\":2441:2445   */\n      0x20\n        /* \"#utility.yul\":2434:2439   */\n      dup7\n        /* \"#utility.yul\":2430:2446   */\n      add\n        /* \"#utility.yul\":2395:2460   */\n      tag_96\n      jump\t// in\n    tag_128:\n        /* \"#utility.yul\":2485:2514   */\n      tag_129\n        /* \"#utility.yul\":2507:2513   */\n      dup2\n        /* \"#utility.yul\":2485:2514   */\n      tag_97\n      jump\t// in\n    tag_129:\n        /* \"#utility.yul\":2480:2483   */\n      dup5\n        /* \"#utility.yul\":2476:2515   */\n      add\n        /* \"#utility.yul\":2469:2515   */\n      swap2\n      pop\n        /* \"#utility.yul\":2236:2521   */\n      pop\n        /* \"#utility.yul\":2144:2521   */\n      swap3\n      swap2\n      pop\n      pop\n      jump\t// out\n        /* \"#utility.yul\":2527:2840   */\n    tag_15:\n        /* \"#utility.yul\":2640:2644   */\n      0x00\n        /* \"#utility.yul\":2678:2680   */\n      0x20\n        /* \"#utility.yul\":2667:2676   */\n      dup3\n        /* \"#utility.yul\":2663:2681   */\n      add\n        /* \"#utility.yul\":2655:2681   */\n      swap1\n      pop\n        /* \"#utility.yul\":2727:2736   */\n      dup2\n        /* \"#utility.yul\":2721:2725   */\n      dup2\n        /* \"#utility.yul\":2717:2737   */\n      sub\n        /* \"#utility.yul\":2713:2714   */\n      0x00\n        /* \"#utility.yul\":2702:2711   */\n      dup4\n        /* \"#utility.yul\":2698:2715   */\n      add\n        /* \"#utility.yul\":2691:2738   */\n      mstore\n        /* \"#utility.yul\":2755:2833   */\n      tag_131\n        /* \"#utility.yul\":2828:2832   */\n      dup2\n        /* \"#utility.yul\":2819:2825   */\n      dup5\n        /* \"#utility.yul\":2755:2833   */\n      tag_98\n      jump\t// in\n    tag_131:\n        /* \"#utility.yul\":2747:2833   */\n      swap1\n      pop\n        /* \"#utility.yul\":2527:2840   */\n      swap3\n      swap2\n      pop\n      pop\n      jump\t// out\n        /* \"#utility.yul\":2846:3026   */\n    tag_99:\n        /* \"#utility.yul\":2894:2971   */\n      0x4e487b7100000000000000000000000000000000000000000000000000000000\n        /* \"#utility.yul\":2891:2892   */\n      0x00\n        /* \"#utility.yul\":2884:2972   */\n      mstore\n        /* \"#utility.yul\":2991:2995   */\n      0x11\n        /* \"#utility.yul\":2988:2989   */\n      0x04\n        /* \"#utility.yul\":2981:2996   */\n      mstore\n        /* \"#utility.yul\":3015:3019   */\n      0x24\n        /* \"#utility.yul\":3012:3013   */\n      0x00\n        /* \"#utility.yul\":3005:3020   */\n      revert\n        /* \"#utility.yul\":3032:3442   */\n    tag_27:\n        /* \"#utility.yul\":3072:3079   */\n      0x00\n        /* \"#utility.yul\":3095:3115   */\n      tag_134\n        /* \"#utility.yul\":3113:3114   */\n      dup3\n        /* \"#utility.yul\":3095:3115   */\n      tag_85\n      jump\t// in\n    tag_134:\n        /* \"#utility.yul\":3090:3115   */\n      swap2\n      pop\n        /* \"#utility.yul\":3129:3149   */\n      tag_135\n        /* \"#utility.yul\":3147:3148   */\n      dup4\n        /* \"#utility.yul\":3129:3149   */\n      tag_85\n      jump\t// in\n    tag_135:\n        /* \"#utility.yul\":3124:3149   */\n      swap3\n      pop\n        /* \"#utility.yul\":3184:3185   */\n      dup3\n        /* \"#utility.yul\":3181:3182   */\n      dup3\n        /* \"#utility.yul\":3177:3186   */\n      mul\n        /* \"#utility.yul\":3206:3236   */\n      tag_136\n        /* \"#utility.yul\":3224:3235   */\n      dup2\n        /* \"#utility.yul\":3206:3236   */\n      tag_85\n      jump\t// in\n    tag_136:\n        /* \"#utility.yul\":3195:3236   */\n      swap2\n      pop\n        /* \"#utility.yul\":3385:3386   */\n      dup3\n        /* \"#utility.yul\":3376:3383   */\n      dup3\n        /* \"#utility.yul\":3372:3387   */\n      div\n        /* \"#utility.yul\":3369:3370   */\n      dup5\n        /* \"#utility.yul\":3366:3388   */\n      eq\n        /* \"#utility.yul\":3346:3347   */\n      dup4\n        /* \"#utility.yul\":3339:3348   */\n      iszero\n        /* \"#utility.yul\":3319:3402   */\n      or\n        /* \"#utility.yul\":3296:3435   */\n      tag_137\n      jumpi\n        /* \"#utility.yul\":3415:3433   */\n      tag_138\n      tag_99\n      jump\t// in\n    tag_138:\n        /* \"#utility.yul\":3296:3435   */\n    tag_137:\n        /* \"#utility.yul\":3080:3442   */\n      pop\n        /* \"#utility.yul\":3032:3442   */\n      swap3\n      swap2\n      pop\n      pop\n      jump\t// out\n        /* \"#utility.yul\":3448:3639   */\n    tag_29:\n        /* \"#utility.yul\":3488:3491   */\n      0x00\n        /* \"#utility.yul\":3507:3527   */\n      tag_140\n        /* \"#utility.yul\":3525:3526   */\n      dup3\n        /* \"#utility.yul\":3507:3527   */\n      tag_85\n      jump\t// in\n    tag_140:\n        /* \"#utility.yul\":3502:3527   */\n      swap2\n      pop\n        /* \"#utility.yul\":3541:3561   */\n      tag_141\n        /* \"#utility.yul\":3559:3560   */\n      dup4\n        /* \"#utility.yul\":3541:3561   */\n      tag_85\n      jump\t// in\n    tag_141:\n        /* \"#utility.yul\":3536:3561   */\n      swap3\n      pop\n        /* \"#utility.yul\":3584:3585   */\n      dup3\n        /* \"#utility.yul\":3581:3582   */\n      dup3\n        /* \"#utility.yul\":3577:3586   */\n      add\n        /* \"#utility.yul\":3570:3586   */\n      swap1\n      pop\n        /* \"#utility.yul\":3605:3608   */\n      dup1\n        /* \"#utility.yul\":3602:3603   */\n      dup3\n        /* \"#utility.yul\":3599:3609   */\n      gt\n        /* \"#utility.yul\":3596:3632   */\n      iszero\n      tag_142\n      jumpi\n        /* \"#utility.yul\":3612:3630   */\n      tag_143\n      tag_99\n      jump\t// in\n    tag_143:\n        /* \"#utility.yul\":3596:3632   */\n    tag_142:\n        /* \"#utility.yul\":3448:3639   */\n      swap3\n      swap2\n      pop\n      pop\n      jump\t// out\n        /* \"#utility.yul\":3645:3825   */\n    tag_32:\n        /* \"#utility.yul\":3693:3770   */\n      0x4e487b7100000000000000000000000000000000000000000000000000000000\n        /* \"#utility.yul\":3690:3691   */\n      0x00\n        /* \"#utility.yul\":3683:3771   */\n      mstore\n        /* \"#utility.yul\":3790:3794   */\n      0x41\n        /* \"#utility.yul\":3787:3788   */\n      0x04\n        /* \"#utility.yul\":3780:3795   */\n      mstore\n        /* \"#utility.yul\":3814:3818   */\n      0x24\n        /* \"#utility.yul\":3811:3812   */\n      0x00\n        /* \"#utility.yul\":3804:3819   */\n      revert\n        /* \"#utility.yul\":3831:4011   */\n    tag_36:\n        /* \"#utility.yul\":3879:3956   */\n      0x4e487b7100000000000000000000000000000000000000000000000000000000\n        /* \"#utility.yul\":3876:3877   */\n      0x00\n        /* \"#utility.yul\":3869:3957   */\n      mstore\n        /* \"#utility.yul\":3976:3980   */\n      0x32\n        /* \"#utility.yul\":3973:3974   */\n      0x04\n        /* \"#utility.yul\":3966:3981   */\n      mstore\n        /* \"#utility.yul\":4000:4004   */\n      0x24\n        /* \"#utility.yul\":3997:3998   */\n      0x00\n        /* \"#utility.yul\":3990:4005   */\n      revert\n        /* \"#utility.yul\":4017:4188   */\n    tag_49:\n        /* \"#utility.yul\":4056:4059   */\n      0x00\n        /* \"#utility.yul\":4079:4103   */\n      tag_147\n        /* \"#utility.yul\":4097:4102   */\n      dup3\n        /* \"#utility.yul\":4079:4103   */\n      tag_85\n      jump\t// in\n    tag_147:\n        /* \"#utility.yul\":4070:4103   */\n      swap2\n      pop\n        /* \"#utility.yul\":4125:4129   */\n      0x00\n        /* \"#utility.yul\":4118:4123   */\n      dup3\n        /* \"#utility.yul\":4115:4130   */\n      sub\n        /* \"#utility.yul\":4112:4153   */\n      tag_148\n      jumpi\n        /* \"#utility.yul\":4133:4151   */\n      tag_149\n      tag_99\n      jump\t// in\n    tag_149:\n        /* \"#utility.yul\":4112:4153   */\n    tag_148:\n        /* \"#utility.yul\":4180:4181   */\n      0x01\n        /* \"#utility.yul\":4173:4178   */\n      dup3\n        /* \"#utility.yul\":4169:4182   */\n      sub\n        /* \"#utility.yul\":4162:4182   */\n      swap1\n      pop\n        /* \"#utility.yul\":4017:4188   */\n      swap2\n      swap1\n      pop\n      jump\t// out\n        /* \"#utility.yul\":4194:4526   */\n    tag_52:\n        /* \"#utility.yul\":4315:4319   */\n      0x00\n        /* \"#utility.yul\":4353:4355   */\n      0x40\n        /* \"#utility.yul\":4342:4351   */\n      dup3\n        /* \"#utility.yul\":4338:4356   */\n      add\n        /* \"#utility.yul\":4330:4356   */\n      swap1\n      pop\n        /* \"#utility.yul\":4366:4437   */\n      tag_151\n        /* \"#utility.yul\":4434:4435   */\n      0x00\n        /* \"#utility.yul\":4423:4432   */\n      dup4\n        /* \"#utility.yul\":4419:4436   */\n      add\n        /* \"#utility.yul\":4410:4416   */\n      dup6\n        /* \"#utility.yul\":4366:4437   */\n      tag_86\n      jump\t// in\n    tag_151:\n        /* \"#utility.yul\":4447:4519   */\n      tag_152\n        /* \"#utility.yul\":4515:4517   */\n      0x20\n        /* \"#utility.yul\":4504:4513   */\n      dup4\n        /* \"#utility.yul\":4500:4518   */\n      add\n        /* \"#utility.yul\":4491:4497   */\n      dup5\n        /* \"#utility.yul\":4447:4519   */\n      tag_86\n      jump\t// in\n    tag_152:\n        /* \"#utility.yul\":4194:4526   */\n      swap4\n      swap3\n      pop\n      pop\n      pop\n      jump\t// out\n        /* \"#utility.yul\":4532:4712   */\n    tag_63:\n        /* \"#utility.yul\":4580:4657   */\n      0x4e487b7100000000000000000000000000000000000000000000000000000000\n        /* \"#utility.yul\":4577:4578   */\n      0x00\n        /* \"#utility.yul\":4570:4658   */\n      mstore\n        /* \"#utility.yul\":4677:4681   */\n      0x12\n        /* \"#utility.yul\":4674:4675   */\n      0x04\n        /* \"#utility.yul\":4667:4682   */\n      mstore\n        /* \"#utility.yul\":4701:4705   */\n      0x24\n        /* \"#utility.yul\":4698:4699   */\n      0x00\n        /* \"#utility.yul\":4691:4706   */\n      revert\n\n    auxdata: 0xa2646970667358221220b0a4eed3baeab282607848d3e8ddc95f078ac98143a1fd9a133acf274c20812064736f6c63430008230033\n}\n",
				"bytecode": {
					"linkReferences": {},
					"object": "60806040526201e2405f553480156014575f5ffd5b50610847806100225f395ff3fe608060405234801561000f575f5ffd5b506004361061003f575f3560e01c806323fd0e40146100435780635e57966d1461006157806373dc085214610091575b5f5ffd5b61004b6100af565b6040516100589190610569565b60405180910390f35b61007b600480360381019061007691906105e0565b6100b4565b604051610088919061067b565b60405180910390f35b6100996100e7565b6040516100a6919061067b565b60405180910390f35b5f5481565b60606100e060148373ffffffffffffffffffffffffffffffffffffffff166100f890919063ffffffff16565b9050919050565b60606100f35f54610336565b905090565b60605f8390505f600284600261010e91906106c8565b6101189190610709565b67ffffffffffffffff8111156101315761013061073c565b5b6040519080825280601f01601f1916602001820160405280156101635781602001600182028036833780820191505090505b5090507f3000000000000000000000000000000000000000000000000000000000000000815f8151811061019a57610199610769565b5b60200101907effffffffffffffffffffffffffffffffffffffffffffffffffffffffffffff191690815f1a9053507f7800000000000000000000000000000000000000000000000000000000000000816001815181106101fd576101fc610769565b5b60200101907effffffffffffffffffffffffffffffffffffffffffffffffffffffffffffff191690815f1a9053505f600185600261023b91906106c8565b6102459190610709565b90505b60018111156102e4577f3031323334353637383961626364656600000000000000000000000000000000600f84166010811061028757610286610769565b5b1a60f81b82828151811061029e5761029d610769565b5b60200101907effffffffffffffffffffffffffffffffffffffffffffffffffffffffffffff191690815f1a905350600483901c9250806102dd90610796565b9050610248565b505f821461032b5784846040517fe22e27eb0000000000000000000000000000000000000000000000000000000081526004016103229291906107bd565b60405180910390fd5b809250505092915050565b60605f600161034484610400565b0190505f8167ffffffffffffffff8111156103625761036161073c565b5b6040519080825280601f01601f1916602001820160405280156103945781602001600182028036833780820191505090505b5090505f82602083010190505b6001156103f5578080600190039150507f3031323334353637383961626364656600000000000000000000000000000000600a86061a8153600a85816103ea576103e96107e4565b5b0494505f85036103a1575b819350505050919050565b5f5f5f90507a184f03e93ff9f4daa797ed6e38ed64bf6a1f010000000000000000831061045c577a184f03e93ff9f4daa797ed6e38ed64bf6a1f0100000000000000008381610452576104516107e4565b5b0492506040810190505b6d04ee2d6d415b85acef81000000008310610499576d04ee2d6d415b85acef8100000000838161048f5761048e6107e4565b5b0492506020810190505b662386f26fc1000083106104c857662386f26fc1000083816104be576104bd6107e4565b5b0492506010810190505b6305f5e10083106104f1576305f5e10083816104e7576104e66107e4565b5b0492506008810190505b612710831061051657612710838161050c5761050b6107e4565b5b0492506004810190505b60648310610539576064838161052f5761052e6107e4565b5b0492506002810190505b600a8310610548576001810190505b80915050919050565b5f819050919050565b61056381610551565b82525050565b5f60208201905061057c5f83018461055a565b92915050565b5f5ffd5b5f73ffffffffffffffffffffffffffffffffffffffff82169050919050565b5f6105af82610586565b9050919050565b6105bf816105a5565b81146105c9575f5ffd5b50565b5f813590506105da816105b6565b92915050565b5f602082840312156105f5576105f4610582565b5b5f610602848285016105cc565b91505092915050565b5f81519050919050565b5f82825260208201905092915050565b8281835e5f83830152505050565b5f601f19601f8301169050919050565b5f61064d8261060b565b6106578185610615565b9350610667818560208601610625565b61067081610633565b840191505092915050565b5f6020820190508181035f8301526106938184610643565b905092915050565b7f4e487b71000000000000000000000000000000000000000000000000000000005f52601160045260245ffd5b5f6106d282610551565b91506106dd83610551565b92508282026106eb81610551565b915082820484148315176107025761070161069b565b5b5092915050565b5f61071382610551565b915061071e83610551565b92508282019050808211156107365761073561069b565b5b92915050565b7f4e487b71000000000000000000000000000000000000000000000000000000005f52604160045260245ffd5b7f4e487b71000000000000000000000000000000000000000000000000000000005f52603260045260245ffd5b5f6107a082610551565b91505f82036107b2576107b161069b565b5b600182039050919050565b5f6040820190506107d05f83018561055a565b6107dd602083018461055a565b9392505050565b7f4e487b71000000000000000000000000000000000000000000000000000000005f52601260045260245ffdfea2646970667358221220b0a4eed3baeab282607848d3e8ddc95f078ac98143a1fd9a133acf274c20812064736f6c63430008230033",
					"opcodes": "PUSH1 0x80 PUSH1 0x40 MSTORE PUSH3 0x1E240 PUSH0 SSTORE CALLVALUE DUP1 ISZERO PUSH1 0x14 JUMPI PUSH0 PUSH0 REVERT JUMPDEST POP PUSH2 0x847 DUP1 PUSH2 0x22 PUSH0 CODECOPY PUSH0 RETURN INVALID PUSH1 0x80 PUSH1 0x40 MSTORE CALLVALUE DUP1 ISZERO PUSH2 0xF JUMPI PUSH0 PUSH0 REVERT JUMPDEST POP PUSH1 0x4 CALLDATASIZE LT PUSH2 0x3F JUMPI PUSH0 CALLDATALOAD PUSH1 0xE0 SHR DUP1 PUSH4 0x23FD0E40 EQ PUSH2 0x43 JUMPI DUP1 PUSH4 0x5E57966D EQ PUSH2 0x61 JUMPI DUP1 PUSH4 0x73DC0852 EQ PUSH2 0x91 JUMPI JUMPDEST PUSH0 PUSH0 REVERT JUMPDEST PUSH2 0x4B PUSH2 0xAF JUMP JUMPDEST PUSH1 0x40 MLOAD PUSH2 0x58 SWAP2 SWAP1 PUSH2 0x569 JUMP JUMPDEST PUSH1 0x40 MLOAD DUP1 SWAP2 SUB SWAP1 RETURN JUMPDEST PUSH2 0x7B PUSH1 0x4 DUP1 CALLDATASIZE SUB DUP2 ADD SWAP1 PUSH2 0x76 SWAP2 SWAP1 PUSH2 0x5E0 JUMP JUMPDEST PUSH2 0xB4 JUMP JUMPDEST PUSH1 0x40 MLOAD PUSH2 0x88 SWAP2 SWAP1 PUSH2 0x67B JUMP JUMPDEST PUSH1 0x40 MLOAD DUP1 SWAP2 SUB SWAP1 RETURN JUMPDEST PUSH2 0x99 PUSH2 0xE7 JUMP JUMPDEST PUSH1 0x40 MLOAD PUSH2 0xA6 SWAP2 SWAP1 PUSH2 0x67B JUMP JUMPDEST PUSH1 0x40 MLOAD DUP1 SWAP2 SUB SWAP1 RETURN JUMPDEST PUSH0 SLOAD DUP2 JUMP JUMPDEST PUSH1 0x60 PUSH2 0xE0 PUSH1 0x14 DUP4 PUSH20 0xFFFFFFFFFFFFFFFFFFFFFFFFFFFFFFFFFFFFFFFF AND PUSH2 0xF8 SWAP1 SWAP2 SWAP1 PUSH4 0xFFFFFFFF AND JUMP JUMPDEST SWAP1 POP SWAP2 SWAP1 POP JUMP JUMPDEST PUSH1 0x60 PUSH2 0xF3 PUSH0 SLOAD PUSH2 0x336 JUMP JUMPDEST SWAP1 POP SWAP1 JUMP JUMPDEST PUSH1 0x60 PUSH0 DUP4 SWAP1 POP PUSH0 PUSH1 0x2 DUP5 PUSH1 0x2 PUSH2 0x10E SWAP2 SWAP1 PUSH2 0x6C8 JUMP JUMPDEST PUSH2 0x118 SWAP2 SWAP1 PUSH2 0x709 JUMP JUMPDEST PUSH8 0xFFFFFFFFFFFFFFFF DUP2 GT ISZERO PUSH2 0x131 JUMPI PUSH2 0x130 PUSH2 0x73C JUMP JUMPDEST JUMPDEST PUSH1 0x40 MLOAD SWAP1 DUP1 DUP3 MSTORE DUP1 PUSH1 0x1F ADD PUSH1 0x1F NOT AND PUSH1 0x20 ADD DUP3 ADD PUSH1 0x40 MSTORE DUP1 ISZERO PUSH2 0x163 JUMPI DUP2 PUSH1 0x20 ADD PUSH1 0x1 DUP3 MUL DUP1 CALLDATASIZE DUP4 CALLDATACOPY DUP1 DUP3 ADD SWAP2 POP POP SWAP1 POP JUMPDEST POP SWAP1 POP PUSH32 0x3000000000000000000000000000000000000000000000000000000000000000 DUP2 PUSH0 DUP2 MLOAD DUP2 LT PUSH2 0x19A JUMPI PUSH2 0x199 PUSH2 0x769 JUMP JUMPDEST JUMPDEST PUSH1 0x20 ADD ADD SWAP1 PUSH31 0xFFFFFFFFFFFFFFFFFFFFFFFFFFFFFFFFFFFFFFFFFFFFFFFFFFFFFFFFFFFFFF NOT AND SWAP1 DUP2 PUSH0 BYTE SWAP1 MSTORE8 POP PUSH32 0x7800000000000000000000000000000000000000000000000000000000000000 DUP2 PUSH1 0x1 DUP2 MLOAD DUP2 LT PUSH2 0x1FD JUMPI PUSH2 0x1FC PUSH2 0x769 JUMP JUMPDEST JUMPDEST PUSH1 0x20 ADD ADD SWAP1 PUSH31 0xFFFFFFFFFFFFFFFFFFFFFFFFFFFFFFFFFFFFFFFFFFFFFFFFFFFFFFFFFFFFFF NOT AND SWAP1 DUP2 PUSH0 BYTE SWAP1 MSTORE8 POP PUSH0 PUSH1 0x1 DUP6 PUSH1 0x2 PUSH2 0x23B SWAP2 SWAP1 PUSH2 0x6C8 JUMP JUMPDEST PUSH2 0x245 SWAP2 SWAP1 PUSH2 0x709 JUMP JUMPDEST SWAP1 POP JUMPDEST PUSH1 0x1 DUP2 GT ISZERO PUSH2 0x2E4 JUMPI PUSH32 0x3031323334353637383961626364656600000000000000000000000000000000 PUSH1 0xF DUP5 AND PUSH1 0x10 DUP2 LT PUSH2 0x287 JUMPI PUSH2 0x286 PUSH2 0x769 JUMP JUMPDEST JUMPDEST BYTE PUSH1 0xF8 SHL DUP3 DUP3 DUP2 MLOAD DUP2 LT PUSH2 0x29E JUMPI PUSH2 0x29D PUSH2 0x769 JUMP JUMPDEST JUMPDEST PUSH1 0x20 ADD ADD SWAP1 PUSH31 0xFFFFFFFFFFFFFFFFFFFFFFFFFFFFFFFFFFFFFFFFFFFFFFFFFFFFFFFFFFFFFF NOT AND SWAP1 DUP2 PUSH0 BYTE SWAP1 MSTORE8 POP PUSH1 0x4 DUP4 SWAP1 SHR SWAP3 POP DUP1 PUSH2 0x2DD SWAP1 PUSH2 0x796 JUMP JUMPDEST SWAP1 POP PUSH2 0x248 JUMP JUMPDEST POP PUSH0 DUP3 EQ PUSH2 0x32B JUMPI DUP5 DUP5 PUSH1 0x40 MLOAD PUSH32 0xE22E27EB00000000000000000000000000000000000000000000000000000000 DUP2 MSTORE PUSH1 0x4 ADD PUSH2 0x322 SWAP3 SWAP2 SWAP1 PUSH2 0x7BD JUMP JUMPDEST PUSH1 0x40 MLOAD DUP1 SWAP2 SUB SWAP1 REVERT JUMPDEST DUP1 SWAP3 POP POP POP SWAP3 SWAP2 POP POP JUMP JUMPDEST PUSH1 0x60 PUSH0 PUSH1 0x1 PUSH2 0x344 DUP5 PUSH2 0x400 JUMP JUMPDEST ADD SWAP1 POP PUSH0 DUP2 PUSH8 0xFFFFFFFFFFFFFFFF DUP2 GT ISZERO PUSH2 0x362 JUMPI PUSH2 0x361 PUSH2 0x73C JUMP JUMPDEST JUMPDEST PUSH1 0x40 MLOAD SWAP1 DUP1 DUP3 MSTORE DUP1 PUSH1 0x1F ADD PUSH1 0x1F NOT AND PUSH1 0x20 ADD DUP3 ADD PUSH1 0x40 MSTORE DUP1 ISZERO PUSH2 0x394 JUMPI DUP2 PUSH1 0x20 ADD PUSH1 0x1 DUP3 MUL DUP1 CALLDATASIZE DUP4 CALLDATACOPY DUP1 DUP3 ADD SWAP2 POP POP SWAP1 POP JUMPDEST POP SWAP1 POP PUSH0 DUP3 PUSH1 0x20 DUP4 ADD ADD SWAP1 POP JUMPDEST PUSH1 0x1 ISZERO PUSH2 0x3F5 JUMPI DUP1 DUP1 PUSH1 0x1 SWAP1 SUB SWAP2 POP POP PUSH32 0x3031323334353637383961626364656600000000000000000000000000000000 PUSH1 0xA DUP7 MOD BYTE DUP2 MSTORE8 PUSH1 0xA DUP6 DUP2 PUSH2 0x3EA JUMPI PUSH2 0x3E9 PUSH2 0x7E4 JUMP JUMPDEST JUMPDEST DIV SWAP5 POP PUSH0 DUP6 SUB PUSH2 0x3A1 JUMPI JUMPDEST DUP2 SWAP4 POP POP POP POP SWAP2 SWAP1 POP JUMP JUMPDEST PUSH0 PUSH0 PUSH0 SWAP1 POP PUSH27 0x184F03E93FF9F4DAA797ED6E38ED64BF6A1F010000000000000000 DUP4 LT PUSH2 0x45C JUMPI PUSH27 0x184F03E93FF9F4DAA797ED6E38ED64BF6A1F010000000000000000 DUP4 DUP2 PUSH2 0x452 JUMPI PUSH2 0x451 PUSH2 0x7E4 JUMP JUMPDEST JUMPDEST DIV SWAP3 POP PUSH1 0x40 DUP2 ADD SWAP1 POP JUMPDEST PUSH14 0x4EE2D6D415B85ACEF8100000000 DUP4 LT PUSH2 0x499 JUMPI PUSH14 0x4EE2D6D415B85ACEF8100000000 DUP4 DUP2 PUSH2 0x48F JUMPI PUSH2 0x48E PUSH2 0x7E4 JUMP JUMPDEST JUMPDEST DIV SWAP3 POP PUSH1 0x20 DUP2 ADD SWAP1 POP JUMPDEST PUSH7 0x2386F26FC10000 DUP4 LT PUSH2 0x4C8 JUMPI PUSH7 0x2386F26FC10000 DUP4 DUP2 PUSH2 0x4BE JUMPI PUSH2 0x4BD PUSH2 0x7E4 JUMP JUMPDEST JUMPDEST DIV SWAP3 POP PUSH1 0x10 DUP2 ADD SWAP1 POP JUMPDEST PUSH4 0x5F5E100 DUP4 LT PUSH2 0x4F1 JUMPI PUSH4 0x5F5E100 DUP4 DUP2 PUSH2 0x4E7 JUMPI PUSH2 0x4E6 PUSH2 0x7E4 JUMP JUMPDEST JUMPDEST DIV SWAP3 POP PUSH1 0x8 DUP2 ADD SWAP1 POP JUMPDEST PUSH2 0x2710 DUP4 LT PUSH2 0x516 JUMPI PUSH2 0x2710 DUP4 DUP2 PUSH2 0x50C JUMPI PUSH2 0x50B PUSH2 0x7E4 JUMP JUMPDEST JUMPDEST DIV SWAP3 POP PUSH1 0x4 DUP2 ADD SWAP1 POP JUMPDEST PUSH1 0x64 DUP4 LT PUSH2 0x539 JUMPI PUSH1 0x64 DUP4 DUP2 PUSH2 0x52F JUMPI PUSH2 0x52E PUSH2 0x7E4 JUMP JUMPDEST JUMPDEST DIV SWAP3 POP PUSH1 0x2 DUP2 ADD SWAP1 POP JUMPDEST PUSH1 0xA DUP4 LT PUSH2 0x548 JUMPI PUSH1 0x1 DUP2 ADD SWAP1 POP JUMPDEST DUP1 SWAP2 POP POP SWAP2 SWAP1 POP JUMP JUMPDEST PUSH0 DUP2 SWAP1 POP SWAP2 SWAP1 POP JUMP JUMPDEST PUSH2 0x563 DUP2 PUSH2 0x551 JUMP JUMPDEST DUP3 MSTORE POP POP JUMP JUMPDEST PUSH0 PUSH1 0x20 DUP3 ADD SWAP1 POP PUSH2 0x57C PUSH0 DUP4 ADD DUP5 PUSH2 0x55A JUMP JUMPDEST SWAP3 SWAP2 POP POP JUMP JUMPDEST PUSH0 PUSH0 REVERT JUMPDEST PUSH0 PUSH20 0xFFFFFFFFFFFFFFFFFFFFFFFFFFFFFFFFFFFFFFFF DUP3 AND SWAP1 POP SWAP2 SWAP1 POP JUMP JUMPDEST PUSH0 PUSH2 0x5AF DUP3 PUSH2 0x586 JUMP JUMPDEST SWAP1 POP SWAP2 SWAP1 POP JUMP JUMPDEST PUSH2 0x5BF DUP2 PUSH2 0x5A5 JUMP JUMPDEST DUP2 EQ PUSH2 0x5C9 JUMPI PUSH0 PUSH0 REVERT JUMPDEST POP JUMP JUMPDEST PUSH0 DUP2 CALLDATALOAD SWAP1 POP PUSH2 0x5DA DUP2 PUSH2 0x5B6 JUMP JUMPDEST SWAP3 SWAP2 POP POP JUMP JUMPDEST PUSH0 PUSH1 0x20 DUP3 DUP5 SUB SLT ISZERO PUSH2 0x5F5 JUMPI PUSH2 0x5F4 PUSH2 0x582 JUMP JUMPDEST JUMPDEST PUSH0 PUSH2 0x602 DUP5 DUP3 DUP6 ADD PUSH2 0x5CC JUMP JUMPDEST SWAP2 POP POP SWAP3 SWAP2 POP POP JUMP JUMPDEST PUSH0 DUP2 MLOAD SWAP1 POP SWAP2 SWAP1 POP JUMP JUMPDEST PUSH0 DUP3 DUP3 MSTORE PUSH1 0x20 DUP3 ADD SWAP1 POP SWAP3 SWAP2 POP POP JUMP JUMPDEST DUP3 DUP2 DUP4 MCOPY PUSH0 DUP4 DUP4 ADD MSTORE POP POP POP JUMP JUMPDEST PUSH0 PUSH1 0x1F NOT PUSH1 0x1F DUP4 ADD AND SWAP1 POP SWAP2 SWAP1 POP JUMP JUMPDEST PUSH0 PUSH2 0x64D DUP3 PUSH2 0x60B JUMP JUMPDEST PUSH2 0x657 DUP2 DUP6 PUSH2 0x615 JUMP JUMPDEST SWAP4 POP PUSH2 0x667 DUP2 DUP6 PUSH1 0x20 DUP7 ADD PUSH2 0x625 JUMP JUMPDEST PUSH2 0x670 DUP2 PUSH2 0x633 JUMP JUMPDEST DUP5 ADD SWAP2 POP POP SWAP3 SWAP2 POP POP JUMP JUMPDEST PUSH0 PUSH1 0x20 DUP3 ADD SWAP1 POP DUP2 DUP2 SUB PUSH0 DUP4 ADD MSTORE PUSH2 0x693 DUP2 DUP5 PUSH2 0x643 JUMP JUMPDEST SWAP1 POP SWAP3 SWAP2 POP POP JUMP JUMPDEST PUSH32 0x4E487B7100000000000000000000000000000000000000000000000000000000 PUSH0 MSTORE PUSH1 0x11 PUSH1 0x4 MSTORE PUSH1 0x24 PUSH0 REVERT JUMPDEST PUSH0 PUSH2 0x6D2 DUP3 PUSH2 0x551 JUMP JUMPDEST SWAP2 POP PUSH2 0x6DD DUP4 PUSH2 0x551 JUMP JUMPDEST SWAP3 POP DUP3 DUP3 MUL PUSH2 0x6EB DUP2 PUSH2 0x551 JUMP JUMPDEST SWAP2 POP DUP3 DUP3 DIV DUP5 EQ DUP4 ISZERO OR PUSH2 0x702 JUMPI PUSH2 0x701 PUSH2 0x69B JUMP JUMPDEST JUMPDEST POP SWAP3 SWAP2 POP POP JUMP JUMPDEST PUSH0 PUSH2 0x713 DUP3 PUSH2 0x551 JUMP JUMPDEST SWAP2 POP PUSH2 0x71E DUP4 PUSH2 0x551 JUMP JUMPDEST SWAP3 POP DUP3 DUP3 ADD SWAP1 POP DUP1 DUP3 GT ISZERO PUSH2 0x736 JUMPI PUSH2 0x735 PUSH2 0x69B JUMP JUMPDEST JUMPDEST SWAP3 SWAP2 POP POP JUMP JUMPDEST PUSH32 0x4E487B7100000000000000000000000000000000000000000000000000000000 PUSH0 MSTORE PUSH1 0x41 PUSH1 0x4 MSTORE PUSH1 0x24 PUSH0 REVERT JUMPDEST PUSH32 0x4E487B7100000000000000000000000000000000000000000000000000000000 PUSH0 MSTORE PUSH1 0x32 PUSH1 0x4 MSTORE PUSH1 0x24 PUSH0 REVERT JUMPDEST PUSH0 PUSH2 0x7A0 DUP3 PUSH2 0x551 JUMP JUMPDEST SWAP2 POP PUSH0 DUP3 SUB PUSH2 0x7B2 JUMPI PUSH2 0x7B1 PUSH2 0x69B JUMP JUMPDEST JUMPDEST PUSH1 0x1 DUP3 SUB SWAP1 POP SWAP2 SWAP1 POP JUMP JUMPDEST PUSH0 PUSH1 0x40 DUP3 ADD SWAP1 POP PUSH2 0x7D0 PUSH0 DUP4 ADD DUP6 PUSH2 0x55A JUMP JUMPDEST PUSH2 0x7DD PUSH1 0x20 DUP4 ADD DUP5 PUSH2 0x55A JUMP JUMPDEST SWAP4 SWAP3 POP POP POP JUMP JUMPDEST PUSH32 0x4E487B7100000000000000000000000000000000000000000000000000000000 PUSH0 MSTORE PUSH1 0x12 PUSH1 0x4 MSTORE PUSH1 0x24 PUSH0 REVERT INVALID LOG2 PUSH5 0x6970667358 0x22 SLT KECCAK256 0xB0 LOG4 RETURNCONTRACT 0xD3 0xBA 0xEA 0xB2 DUP3 PUSH1 0x78 BASEFEE 0xD3 0xE8 0xDD 0xC9 PUSH0 SMOD DUP11 0xC9 DUP2 NUMBER LOG1 REVERT SWAP11 SGT GASPRICE 0xCF 0x27 0x4C KECCAK256 DUP2 KECCAK256 PUSH5 0x736F6C6343 STOP ADDMOD 0x23 STOP CALLER "
				},
				"gasEstimates": {
					"creation": {
						"codeDepositCost": "423800",
						"executionCost": "22564",
						"totalCost": "446364"
					},
					"external": {
						"addressToString(address)": "infinite",
						"getNumberAsString()": "infinite",
						"myNumber()": "2402"
					}
				},
				"methodIdentifiers": {
					"addressToString(address)": "5e57966d",
					"getNumberAsString()": "73dc0852",
					"myNumber()": "23fd0e40"
				}
			},
			"storageLayout": {
				"storage": [
					{
						"astId": 5937,
						"contract": "contracts/MyConstract.sol:MyContract",
						"label": "myNumber",
						"offset": 0,
						"slot": "0",
						"type": "t_uint256"
					}
				],
				"types": {
					"t_uint256": {
						"encoding": "inplace",
						"label": "uint256",
						"numberOfBytes": "32"
					}
				}
			},
			"userdoc": {
				"kind": "user",
				"methods": {},
				"version": 1
			}
		}
	}
}