{
	"contracts/ProfileStatus.sol": {
		"ProfileStatus": {
			"abi": [
				{
					"inputs": [
						{
							"internalType": "string",
							"name": "_name",
							"type": "string"
						},
						{
							"internalType": "string",
							"name": "_message",
							"type": "string"
						}
					],
					"name": "createOrUpdate",
					"outputs": [],
					"stateMutability": "nonpayable",
					"type": "function"
				},
				{
					"inputs": [],
					"name": "getStatus",
					"outputs": [
						{
							"internalType": "string",
							"name": "",
							"type": "string"
						},
						{
							"internalType": "string",
							"name": "",
							"type": "string"
						}
					],
					"stateMutability": "view",
					"type": "function"
				}
			],
			"devdoc": {
				"kind": "dev",
				"methods": {},
				"version": 1
			},
			"evm": {
				"assembly": "    /* \"contracts/ProfileStatus.sol\":58:1020  contract ProfileStatus{... */\n  mstore(0x40, 0x80)\n  callvalue\n  dup1\n  iszero\n  tag_1\n  jumpi\n  0x00\n  dup1\n  revert\ntag_1:\n  pop\n  dataSize(sub_0)\n  dup1\n  dataOffset(sub_0)\n  0x00\n  codecopy\n  0x00\n  return\nstop\n\nsub_0: assembly {\n        /* \"contracts/ProfileStatus.sol\":58:1020  contract ProfileStatus{... */\n      mstore(0x40, 0x80)\n      callvalue\n      dup1\n      iszero\n      tag_1\n      jumpi\n      0x00\n      dup1\n      revert\n    tag_1:\n      pop\n      jumpi(tag_2, lt(calldatasize, 0x04))\n      shr(0xe0, calldataload(0x00))\n      dup1\n      0x4e69d560\n      eq\n      tag_3\n      jumpi\n      dup1\n      0xd8fcc354\n      eq\n      tag_4\n      jumpi\n    tag_2:\n      0x00\n      dup1\n      revert\n        /* \"contracts/ProfileStatus.sol\":861:1018  function getStatus() public view returns (string memory, string memory) {... */\n    tag_3:\n      tag_5\n      tag_6\n      jump\t// in\n    tag_5:\n      mload(0x40)\n      tag_7\n      swap3\n      swap2\n      swap1\n      tag_8\n      jump\t// in\n    tag_7:\n      mload(0x40)\n      dup1\n      swap2\n      sub\n      swap1\n      return\n        /* \"contracts/ProfileStatus.sol\":497:856  function createOrUpdate(string memory _name, string memory _message) public {... */\n    tag_4:\n      tag_9\n      0x04\n      dup1\n      calldatasize\n      sub\n      dup2\n      add\n      swap1\n      tag_10\n      swap2\n      swap1\n      tag_11\n      jump\t// in\n    tag_10:\n      tag_12\n      jump\t// in\n    tag_9:\n      stop\n        /* \"contracts/ProfileStatus.sol\":861:1018  function getStatus() public view returns (string memory, string memory) {... */\n    tag_6:\n        /* \"contracts/ProfileStatus.sol\":903:916  string memory */\n      0x60\n        /* \"contracts/ProfileStatus.sol\":918:931  string memory */\n      dup1\n        /* \"contracts/ProfileStatus.sol\":951:961  userStatus */\n      0x00\n        /* \"contracts/ProfileStatus.sol\":951:973  userStatus[msg.sender] */\n      dup1\n        /* \"contracts/ProfileStatus.sol\":962:972  msg.sender */\n      caller\n        /* \"contracts/ProfileStatus.sol\":951:973  userStatus[msg.sender] */\n      0xffffffffffffffffffffffffffffffffffffffff\n      and\n      0xffffffffffffffffffffffffffffffffffffffff\n      and\n      dup2\n      mstore\n      0x20\n      add\n      swap1\n      dup2\n      mstore\n      0x20\n      add\n      0x00\n      keccak256\n        /* \"contracts/ProfileStatus.sol\":951:978  userStatus[msg.sender].name */\n      0x00\n      add\n        /* \"contracts/ProfileStatus.sol\":980:990  userStatus */\n      0x00\n        /* \"contracts/ProfileStatus.sol\":980:1002  userStatus[msg.sender] */\n      dup1\n        /* \"contracts/ProfileStatus.sol\":991:1001  msg.sender */\n      caller\n        /* \"contracts/ProfileStatus.sol\":980:1002  userStatus[msg.sender] */\n      0xffffffffffffffffffffffffffffffffffffffff\n      and\n      0xffffffffffffffffffffffffffffffffffffffff\n      and\n      dup2\n      mstore\n      0x20\n      add\n      swap1\n      dup2\n      mstore\n      0x20\n      add\n      0x00\n      keccak256\n        /* \"contracts/ProfileStatus.sol\":980:1010  userStatus[msg.sender].message */\n      0x01\n      add\n        /* \"contracts/ProfileStatus.sol\":943:1011  return (userStatus[msg.sender].name, userStatus[msg.sender].message) */\n      dup2\n      dup1\n      sload\n      tag_14\n      swap1\n      tag_15\n      jump\t// in\n    tag_14:\n      dup1\n      0x1f\n      add\n      0x20\n      dup1\n      swap2\n      div\n      mul\n      0x20\n      add\n      mload(0x40)\n      swap1\n      dup2\n      add\n      0x40\n      mstore\n      dup1\n      swap3\n      swap2\n      swap1\n      dup2\n      dup2\n      mstore\n      0x20\n      add\n      dup3\n      dup1\n      sload\n      tag_16\n      swap1\n      tag_15\n      jump\t// in\n    tag_16:\n      dup1\n      iszero\n      tag_17\n      jumpi\n      dup1\n      0x1f\n      lt\n      tag_18\n      jumpi\n      0x0100\n      dup1\n      dup4\n      sload\n      div\n      mul\n      dup4\n      mstore\n      swap2\n      0x20\n      add\n      swap2\n      jump(tag_17)\n    tag_18:\n      dup3\n      add\n      swap2\n      swap1\n      0x00\n      mstore\n      keccak256(0x00, 0x20)\n      swap1\n    tag_19:\n      dup2\n      sload\n      dup2\n      mstore\n      swap1\n      0x01\n      add\n      swap1\n      0x20\n      add\n      dup1\n      dup4\n      gt\n      tag_19\n      jumpi\n      dup3\n      swap1\n      sub\n      0x1f\n      and\n      dup3\n      add\n      swap2\n    tag_17:\n      pop\n      pop\n      pop\n      pop\n      pop\n      swap2\n      pop\n      dup1\n      dup1\n      sload\n      tag_20\n      swap1\n      tag_15\n      jump\t// in\n    tag_20:\n      dup1\n      0x1f\n      add\n      0x20\n      dup1\n      swap2\n      div\n      mul\n      0x20\n      add\n      mload(0x40)\n      swap1\n      dup2\n      add\n      0x40\n      mstore\n      dup1\n      swap3\n      swap2\n      swap1\n      dup2\n      dup2\n      mstore\n      0x20\n      add\n      dup3\n      dup1\n      sload\n      tag_21\n      swap1\n      tag_15\n      jump\t// in\n    tag_21:\n      dup1\n      iszero\n      tag_22\n      jumpi\n      dup1\n      0x1f\n      lt\n      tag_23\n      jumpi\n      0x0100\n      dup1\n      dup4\n      sload\n      div\n      mul\n      dup4\n      mstore\n      swap2\n      0x20\n      add\n      swap2\n      jump(tag_22)\n    tag_23:\n      dup3\n      add\n      swap2\n      swap1\n      0x00\n      mstore\n      keccak256(0x00, 0x20)\n      swap1\n    tag_24:\n      dup2\n      sload\n      dup2\n      mstore\n      swap1\n      0x01\n      add\n      swap1\n      0x20\n      add\n      dup1\n      dup4\n      gt\n      tag_24\n      jumpi\n      dup3\n      swap1\n      sub\n      0x1f\n      and\n      dup3\n      add\n      swap2\n    tag_22:\n      pop\n      pop\n      pop\n      pop\n      pop\n      swap1\n      pop\n      swap2\n      pop\n      swap2\n      pop\n        /* \"contracts/ProfileStatus.sol\":861:1018  function getStatus() public view returns (string memory, string memory) {... */\n      swap1\n      swap2\n      jump\t// out\n        /* \"contracts/ProfileStatus.sol\":497:856  function createOrUpdate(string memory _name, string memory _message) public {... */\n    tag_12:\n        /* \"contracts/ProfileStatus.sol\":793:798  _name */\n      dup2\n        /* \"contracts/ProfileStatus.sol\":763:773  userStatus */\n      0x00\n        /* \"contracts/ProfileStatus.sol\":763:785  userStatus[msg.sender] */\n      dup1\n        /* \"contracts/ProfileStatus.sol\":774:784  msg.sender */\n      caller\n        /* \"contracts/ProfileStatus.sol\":763:785  userStatus[msg.sender] */\n      0xffffffffffffffffffffffffffffffffffffffff\n      and\n      0xffffffffffffffffffffffffffffffffffffffff\n      and\n      dup2\n      mstore\n      0x20\n      add\n      swap1\n      dup2\n      mstore\n      0x20\n      add\n      0x00\n      keccak256\n        /* \"contracts/ProfileStatus.sol\":763:790  userStatus[msg.sender].name */\n      0x00\n      add\n        /* \"contracts/ProfileStatus.sol\":763:798  userStatus[msg.sender].name = _name */\n      swap1\n      dup2\n      tag_26\n      swap2\n      swap1\n      tag_27\n      jump\t// in\n    tag_26:\n      pop\n        /* \"contracts/ProfileStatus.sol\":841:849  _message */\n      dup1\n        /* \"contracts/ProfileStatus.sol\":808:818  userStatus */\n      0x00\n        /* \"contracts/ProfileStatus.sol\":808:830  userStatus[msg.sender] */\n      dup1\n        /* \"contracts/ProfileStatus.sol\":819:829  msg.sender */\n      caller\n        /* \"contracts/ProfileStatus.sol\":808:830  userStatus[msg.sender] */\n      0xffffffffffffffffffffffffffffffffffffffff\n      and\n      0xffffffffffffffffffffffffffffffffffffffff\n      and\n      dup2\n      mstore\n      0x20\n      add\n      swap1\n      dup2\n      mstore\n      0x20\n      add\n      0x00\n      keccak256\n        /* \"contracts/ProfileStatus.sol\":808:838  userStatus[msg.sender].message */\n      0x01\n      add\n        /* \"contracts/ProfileStatus.sol\":808:849  userStatus[msg.sender].message = _message */\n      swap1\n      dup2\n      tag_28\n      swap2\n      swap1\n      tag_27\n      jump\t// in\n    tag_28:\n      pop\n        /* \"contracts/ProfileStatus.sol\":497:856  function createOrUpdate(string memory _name, string memory _message) public {... */\n      pop\n      pop\n      jump\t// out\n        /* \"#utility.yul\":7:106   */\n    tag_29:\n        /* \"#utility.yul\":59:65   */\n      0x00\n        /* \"#utility.yul\":93:98   */\n      dup2\n        /* \"#utility.yul\":87:99   */\n      mload\n        /* \"#utility.yul\":77:99   */\n      swap1\n      pop\n        /* \"#utility.yul\":7:106   */\n      swap2\n      swap1\n      pop\n      jump\t// out\n        /* \"#utility.yul\":112:281   */\n    tag_30:\n        /* \"#utility.yul\":196:207   */\n      0x00\n        /* \"#utility.yul\":230:236   */\n      dup3\n        /* \"#utility.yul\":225:228   */\n      dup3\n        /* \"#utility.yul\":218:237   */\n      mstore\n        /* \"#utility.yul\":270:274   */\n      0x20\n        /* \"#utility.yul\":265:268   */\n      dup3\n        /* \"#utility.yul\":261:275   */\n      add\n        /* \"#utility.yul\":246:275   */\n      swap1\n      pop\n        /* \"#utility.yul\":112:281   */\n      swap3\n      swap2\n      pop\n      pop\n      jump\t// out\n        /* \"#utility.yul\":287:533   */\n    tag_31:\n        /* \"#utility.yul\":368:369   */\n      0x00\n        /* \"#utility.yul\":378:491   */\n    tag_67:\n        /* \"#utility.yul\":392:398   */\n      dup4\n        /* \"#utility.yul\":389:390   */\n      dup2\n        /* \"#utility.yul\":386:399   */\n      lt\n        /* \"#utility.yul\":378:491   */\n      iszero\n      tag_69\n      jumpi\n        /* \"#utility.yul\":477:478   */\n      dup1\n        /* \"#utility.yul\":472:475   */\n      dup3\n        /* \"#utility.yul\":468:479   */\n      add\n        /* \"#utility.yul\":462:480   */\n      mload\n        /* \"#utility.yul\":458:459   */\n      dup2\n        /* \"#utility.yul\":453:456   */\n      dup5\n        /* \"#utility.yul\":449:460   */\n      add\n        /* \"#utility.yul\":442:481   */\n      mstore\n        /* \"#utility.yul\":414:416   */\n      0x20\n        /* \"#utility.yul\":411:412   */\n      dup2\n        /* \"#utility.yul\":407:417   */\n      add\n        /* \"#utility.yul\":402:417   */\n      swap1\n      pop\n        /* \"#utility.yul\":378:491   */\n      jump(tag_67)\n    tag_69:\n        /* \"#utility.yul\":525:526   */\n      0x00\n        /* \"#utility.yul\":516:522   */\n      dup5\n        /* \"#utility.yul\":511:514   */\n      dup5\n        /* \"#utility.yul\":507:523   */\n      add\n        /* \"#utility.yul\":500:527   */\n      mstore\n        /* \"#utility.yul\":349:533   */\n      pop\n        /* \"#utility.yul\":287:533   */\n      pop\n      pop\n      pop\n      jump\t// out\n        /* \"#utility.yul\":539:641   */\n    tag_32:\n        /* \"#utility.yul\":580:586   */\n      0x00\n        /* \"#utility.yul\":631:633   */\n      0x1f\n        /* \"#utility.yul\":627:634   */\n      not\n        /* \"#utility.yul\":622:624   */\n      0x1f\n        /* \"#utility.yul\":615:620   */\n      dup4\n        /* \"#utility.yul\":611:625   */\n      add\n        /* \"#utility.yul\":607:635   */\n      and\n        /* \"#utility.yul\":597:635   */\n      swap1\n      pop\n        /* \"#utility.yul\":539:641   */\n      swap2\n      swap1\n      pop\n      jump\t// out\n        /* \"#utility.yul\":647:1024   */\n    tag_33:\n        /* \"#utility.yul\":735:738   */\n      0x00\n        /* \"#utility.yul\":763:802   */\n      tag_72\n        /* \"#utility.yul\":796:801   */\n      dup3\n        /* \"#utility.yul\":763:802   */\n      tag_29\n      jump\t// in\n    tag_72:\n        /* \"#utility.yul\":818:889   */\n      tag_73\n        /* \"#utility.yul\":882:888   */\n      dup2\n        /* \"#utility.yul\":877:880   */\n      dup6\n        /* \"#utility.yul\":818:889   */\n      tag_30\n      jump\t// in\n    tag_73:\n        /* \"#utility.yul\":811:889   */\n      swap4\n      pop\n        /* \"#utility.yul\":898:963   */\n      tag_74\n        /* \"#utility.yul\":956:962   */\n      dup2\n        /* \"#utility.yul\":951:954   */\n      dup6\n        /* \"#utility.yul\":944:948   */\n      0x20\n        /* \"#utility.yul\":937:942   */\n      dup7\n        /* \"#utility.yul\":933:949   */\n      add\n        /* \"#utility.yul\":898:963   */\n      tag_31\n      jump\t// in\n    tag_74:\n        /* \"#utility.yul\":988:1017   */\n      tag_75\n        /* \"#utility.yul\":1010:1016   */\n      dup2\n        /* \"#utility.yul\":988:1017   */\n      tag_32\n      jump\t// in\n    tag_75:\n        /* \"#utility.yul\":983:986   */\n      dup5\n        /* \"#utility.yul\":979:1018   */\n      add\n        /* \"#utility.yul\":972:1018   */\n      swap2\n      pop\n        /* \"#utility.yul\":739:1024   */\n      pop\n        /* \"#utility.yul\":647:1024   */\n      swap3\n      swap2\n      pop\n      pop\n      jump\t// out\n        /* \"#utility.yul\":1030:1544   */\n    tag_8:\n        /* \"#utility.yul\":1191:1195   */\n      0x00\n        /* \"#utility.yul\":1229:1231   */\n      0x40\n        /* \"#utility.yul\":1218:1227   */\n      dup3\n        /* \"#utility.yul\":1214:1232   */\n      add\n        /* \"#utility.yul\":1206:1232   */\n      swap1\n      pop\n        /* \"#utility.yul\":1278:1287   */\n      dup2\n        /* \"#utility.yul\":1272:1276   */\n      dup2\n        /* \"#utility.yul\":1268:1288   */\n      sub\n        /* \"#utility.yul\":1264:1265   */\n      0x00\n        /* \"#utility.yul\":1253:1262   */\n      dup4\n        /* \"#utility.yul\":1249:1266   */\n      add\n        /* \"#utility.yul\":1242:1289   */\n      mstore\n        /* \"#utility.yul\":1306:1384   */\n      tag_77\n        /* \"#utility.yul\":1379:1383   */\n      dup2\n        /* \"#utility.yul\":1370:1376   */\n      dup6\n        /* \"#utility.yul\":1306:1384   */\n      tag_33\n      jump\t// in\n    tag_77:\n        /* \"#utility.yul\":1298:1384   */\n      swap1\n      pop\n        /* \"#utility.yul\":1431:1440   */\n      dup2\n        /* \"#utility.yul\":1425:1429   */\n      dup2\n        /* \"#utility.yul\":1421:1441   */\n      sub\n        /* \"#utility.yul\":1416:1418   */\n      0x20\n        /* \"#utility.yul\":1405:1414   */\n      dup4\n        /* \"#utility.yul\":1401:1419   */\n      add\n        /* \"#utility.yul\":1394:1442   */\n      mstore\n        /* \"#utility.yul\":1459:1537   */\n      tag_78\n        /* \"#utility.yul\":1532:1536   */\n      dup2\n        /* \"#utility.yul\":1523:1529   */\n      dup5\n        /* \"#utility.yul\":1459:1537   */\n      tag_33\n      jump\t// in\n    tag_78:\n        /* \"#utility.yul\":1451:1537   */\n      swap1\n      pop\n        /* \"#utility.yul\":1030:1544   */\n      swap4\n      swap3\n      pop\n      pop\n      pop\n      jump\t// out\n        /* \"#utility.yul\":1550:1625   */\n    tag_34:\n        /* \"#utility.yul\":1583:1589   */\n      0x00\n        /* \"#utility.yul\":1616:1618   */\n      0x40\n        /* \"#utility.yul\":1610:1619   */\n      mload\n        /* \"#utility.yul\":1600:1619   */\n      swap1\n      pop\n        /* \"#utility.yul\":1550:1625   */\n      swap1\n      jump\t// out\n        /* \"#utility.yul\":1631:1748   */\n    tag_35:\n        /* \"#utility.yul\":1740:1741   */\n      0x00\n        /* \"#utility.yul\":1737:1738   */\n      dup1\n        /* \"#utility.yul\":1730:1742   */\n      revert\n        /* \"#utility.yul\":1754:1871   */\n    tag_36:\n        /* \"#utility.yul\":1863:1864   */\n      0x00\n        /* \"#utility.yul\":1860:1861   */\n      dup1\n        /* \"#utility.yul\":1853:1865   */\n      revert\n        /* \"#utility.yul\":1877:1994   */\n    tag_37:\n        /* \"#utility.yul\":1986:1987   */\n      0x00\n        /* \"#utility.yul\":1983:1984   */\n      dup1\n        /* \"#utility.yul\":1976:1988   */\n      revert\n        /* \"#utility.yul\":2000:2117   */\n    tag_38:\n        /* \"#utility.yul\":2109:2110   */\n      0x00\n        /* \"#utility.yul\":2106:2107   */\n      dup1\n        /* \"#utility.yul\":2099:2111   */\n      revert\n        /* \"#utility.yul\":2123:2303   */\n    tag_39:\n        /* \"#utility.yul\":2171:2248   */\n      0x4e487b7100000000000000000000000000000000000000000000000000000000\n        /* \"#utility.yul\":2168:2169   */\n      0x00\n        /* \"#utility.yul\":2161:2249   */\n      mstore\n        /* \"#utility.yul\":2268:2272   */\n      0x41\n        /* \"#utility.yul\":2265:2266   */\n      0x04\n        /* \"#utility.yul\":2258:2273   */\n      mstore\n        /* \"#utility.yul\":2292:2296   */\n      0x24\n        /* \"#utility.yul\":2289:2290   */\n      0x00\n        /* \"#utility.yul\":2282:2297   */\n      revert\n        /* \"#utility.yul\":2309:2590   */\n    tag_40:\n        /* \"#utility.yul\":2392:2419   */\n      tag_86\n        /* \"#utility.yul\":2414:2418   */\n      dup3\n        /* \"#utility.yul\":2392:2419   */\n      tag_32\n      jump\t// in\n    tag_86:\n        /* \"#utility.yul\":2384:2390   */\n      dup2\n        /* \"#utility.yul\":2380:2420   */\n      add\n        /* \"#utility.yul\":2522:2528   */\n      dup2\n        /* \"#utility.yul\":2510:2520   */\n      dup2\n        /* \"#utility.yul\":2507:2529   */\n      lt\n        /* \"#utility.yul\":2486:2504   */\n      0xffffffffffffffff\n        /* \"#utility.yul\":2474:2484   */\n      dup3\n        /* \"#utility.yul\":2471:2505   */\n      gt\n        /* \"#utility.yul\":2468:2530   */\n      or\n        /* \"#utility.yul\":2465:2553   */\n      iszero\n      tag_87\n      jumpi\n        /* \"#utility.yul\":2533:2551   */\n      tag_88\n      tag_39\n      jump\t// in\n    tag_88:\n        /* \"#utility.yul\":2465:2553   */\n    tag_87:\n        /* \"#utility.yul\":2573:2583   */\n      dup1\n        /* \"#utility.yul\":2569:2571   */\n      0x40\n        /* \"#utility.yul\":2562:2584   */\n      mstore\n        /* \"#utility.yul\":2352:2590   */\n      pop\n        /* \"#utility.yul\":2309:2590   */\n      pop\n      pop\n      jump\t// out\n        /* \"#utility.yul\":2596:2725   */\n    tag_41:\n        /* \"#utility.yul\":2630:2636   */\n      0x00\n        /* \"#utility.yul\":2657:2677   */\n      tag_90\n      tag_34\n      jump\t// in\n    tag_90:\n        /* \"#utility.yul\":2647:2677   */\n      swap1\n      pop\n        /* \"#utility.yul\":2686:2719   */\n      tag_91\n        /* \"#utility.yul\":2714:2718   */\n      dup3\n        /* \"#utility.yul\":2706:2712   */\n      dup3\n        /* \"#utility.yul\":2686:2719   */\n      tag_40\n      jump\t// in\n    tag_91:\n        /* \"#utility.yul\":2596:2725   */\n      swap2\n      swap1\n      pop\n      jump\t// out\n        /* \"#utility.yul\":2731:3039   */\n    tag_42:\n        /* \"#utility.yul\":2793:2797   */\n      0x00\n        /* \"#utility.yul\":2883:2901   */\n      0xffffffffffffffff\n        /* \"#utility.yul\":2875:2881   */\n      dup3\n        /* \"#utility.yul\":2872:2902   */\n      gt\n        /* \"#utility.yul\":2869:2925   */\n      iszero\n      tag_93\n      jumpi\n        /* \"#utility.yul\":2905:2923   */\n      tag_94\n      tag_39\n      jump\t// in\n    tag_94:\n        /* \"#utility.yul\":2869:2925   */\n    tag_93:\n        /* \"#utility.yul\":2943:2972   */\n      tag_95\n        /* \"#utility.yul\":2965:2971   */\n      dup3\n        /* \"#utility.yul\":2943:2972   */\n      tag_32\n      jump\t// in\n    tag_95:\n        /* \"#utility.yul\":2935:2972   */\n      swap1\n      pop\n        /* \"#utility.yul\":3027:3031   */\n      0x20\n        /* \"#utility.yul\":3021:3025   */\n      dup2\n        /* \"#utility.yul\":3017:3032   */\n      add\n        /* \"#utility.yul\":3009:3032   */\n      swap1\n      pop\n        /* \"#utility.yul\":2731:3039   */\n      swap2\n      swap1\n      pop\n      jump\t// out\n        /* \"#utility.yul\":3045:3191   */\n    tag_43:\n        /* \"#utility.yul\":3142:3148   */\n      dup3\n        /* \"#utility.yul\":3137:3140   */\n      dup2\n        /* \"#utility.yul\":3132:3135   */\n      dup4\n        /* \"#utility.yul\":3119:3149   */\n      calldatacopy\n        /* \"#utility.yul\":3183:3184   */\n      0x00\n        /* \"#utility.yul\":3174:3180   */\n      dup4\n        /* \"#utility.yul\":3169:3172   */\n      dup4\n        /* \"#utility.yul\":3165:3181   */\n      add\n        /* \"#utility.yul\":3158:3185   */\n      mstore\n        /* \"#utility.yul\":3045:3191   */\n      pop\n      pop\n      pop\n      jump\t// out\n        /* \"#utility.yul\":3197:3622   */\n    tag_44:\n        /* \"#utility.yul\":3275:3280   */\n      0x00\n        /* \"#utility.yul\":3300:3366   */\n      tag_98\n        /* \"#utility.yul\":3316:3365   */\n      tag_99\n        /* \"#utility.yul\":3358:3364   */\n      dup5\n        /* \"#utility.yul\":3316:3365   */\n      tag_42\n      jump\t// in\n    tag_99:\n        /* \"#utility.yul\":3300:3366   */\n      tag_41\n      jump\t// in\n    tag_98:\n        /* \"#utility.yul\":3291:3366   */\n      swap1\n      pop\n        /* \"#utility.yul\":3389:3395   */\n      dup3\n        /* \"#utility.yul\":3382:3387   */\n      dup2\n        /* \"#utility.yul\":3375:3396   */\n      mstore\n        /* \"#utility.yul\":3427:3431   */\n      0x20\n        /* \"#utility.yul\":3420:3425   */\n      dup2\n        /* \"#utility.yul\":3416:3432   */\n      add\n        /* \"#utility.yul\":3465:3468   */\n      dup5\n        /* \"#utility.yul\":3456:3462   */\n      dup5\n        /* \"#utility.yul\":3451:3454   */\n      dup5\n        /* \"#utility.yul\":3447:3463   */\n      add\n        /* \"#utility.yul\":3444:3469   */\n      gt\n        /* \"#utility.yul\":3441:3553   */\n      iszero\n      tag_100\n      jumpi\n        /* \"#utility.yul\":3472:3551   */\n      tag_101\n      tag_38\n      jump\t// in\n    tag_101:\n        /* \"#utility.yul\":3441:3553   */\n    tag_100:\n        /* \"#utility.yul\":3562:3616   */\n      tag_102\n        /* \"#utility.yul\":3609:3615   */\n      dup5\n        /* \"#utility.yul\":3604:3607   */\n      dup3\n        /* \"#utility.yul\":3599:3602   */\n      dup6\n        /* \"#utility.yul\":3562:3616   */\n      tag_43\n      jump\t// in\n    tag_102:\n        /* \"#utility.yul\":3281:3622   */\n      pop\n        /* \"#utility.yul\":3197:3622   */\n      swap4\n      swap3\n      pop\n      pop\n      pop\n      jump\t// out\n        /* \"#utility.yul\":3642:3982   */\n    tag_45:\n        /* \"#utility.yul\":3698:3703   */\n      0x00\n        /* \"#utility.yul\":3747:3750   */\n      dup3\n        /* \"#utility.yul\":3740:3744   */\n      0x1f\n        /* \"#utility.yul\":3732:3738   */\n      dup4\n        /* \"#utility.yul\":3728:3745   */\n      add\n        /* \"#utility.yul\":3724:3751   */\n      slt\n        /* \"#utility.yul\":3714:3836   */\n      tag_104\n      jumpi\n        /* \"#utility.yul\":3755:3834   */\n      tag_105\n      tag_37\n      jump\t// in\n    tag_105:\n        /* \"#utility.yul\":3714:3836   */\n    tag_104:\n        /* \"#utility.yul\":3872:3878   */\n      dup2\n        /* \"#utility.yul\":3859:3879   */\n      calldataload\n        /* \"#utility.yul\":3897:3976   */\n      tag_106\n        /* \"#utility.yul\":3972:3975   */\n      dup5\n        /* \"#utility.yul\":3964:3970   */\n      dup3\n        /* \"#utility.yul\":3957:3961   */\n      0x20\n        /* \"#utility.yul\":3949:3955   */\n      dup7\n        /* \"#utility.yul\":3945:3962   */\n      add\n        /* \"#utility.yul\":3897:3976   */\n      tag_44\n      jump\t// in\n    tag_106:\n        /* \"#utility.yul\":3888:3976   */\n      swap2\n      pop\n        /* \"#utility.yul\":3704:3982   */\n      pop\n        /* \"#utility.yul\":3642:3982   */\n      swap3\n      swap2\n      pop\n      pop\n      jump\t// out\n        /* \"#utility.yul\":3988:4822   */\n    tag_11:\n        /* \"#utility.yul\":4076:4082   */\n      0x00\n        /* \"#utility.yul\":4084:4090   */\n      dup1\n        /* \"#utility.yul\":4133:4135   */\n      0x40\n        /* \"#utility.yul\":4121:4130   */\n      dup4\n        /* \"#utility.yul\":4112:4119   */\n      dup6\n        /* \"#utility.yul\":4108:4131   */\n      sub\n        /* \"#utility.yul\":4104:4136   */\n      slt\n        /* \"#utility.yul\":4101:4220   */\n      iszero\n      tag_108\n      jumpi\n        /* \"#utility.yul\":4139:4218   */\n      tag_109\n      tag_35\n      jump\t// in\n    tag_109:\n        /* \"#utility.yul\":4101:4220   */\n    tag_108:\n        /* \"#utility.yul\":4287:4288   */\n      0x00\n        /* \"#utility.yul\":4276:4285   */\n      dup4\n        /* \"#utility.yul\":4272:4289   */\n      add\n        /* \"#utility.yul\":4259:4290   */\n      calldataload\n        /* \"#utility.yul\":4317:4335   */\n      0xffffffffffffffff\n        /* \"#utility.yul\":4309:4315   */\n      dup2\n        /* \"#utility.yul\":4306:4336   */\n      gt\n        /* \"#utility.yul\":4303:4420   */\n      iszero\n      tag_110\n      jumpi\n        /* \"#utility.yul\":4339:4418   */\n      tag_111\n      tag_36\n      jump\t// in\n    tag_111:\n        /* \"#utility.yul\":4303:4420   */\n    tag_110:\n        /* \"#utility.yul\":4444:4507   */\n      tag_112\n        /* \"#utility.yul\":4499:4506   */\n      dup6\n        /* \"#utility.yul\":4490:4496   */\n      dup3\n        /* \"#utility.yul\":4479:4488   */\n      dup7\n        /* \"#utility.yul\":4475:4497   */\n      add\n        /* \"#utility.yul\":4444:4507   */\n      tag_45\n      jump\t// in\n    tag_112:\n        /* \"#utility.yul\":4434:4507   */\n      swap3\n      pop\n        /* \"#utility.yul\":4230:4517   */\n      pop\n        /* \"#utility.yul\":4584:4586   */\n      0x20\n        /* \"#utility.yul\":4573:4582   */\n      dup4\n        /* \"#utility.yul\":4569:4587   */\n      add\n        /* \"#utility.yul\":4556:4588   */\n      calldataload\n        /* \"#utility.yul\":4615:4633   */\n      0xffffffffffffffff\n        /* \"#utility.yul\":4607:4613   */\n      dup2\n        /* \"#utility.yul\":4604:4634   */\n      gt\n        /* \"#utility.yul\":4601:4718   */\n      iszero\n      tag_113\n      jumpi\n        /* \"#utility.yul\":4637:4716   */\n      tag_114\n      tag_36\n      jump\t// in\n    tag_114:\n        /* \"#utility.yul\":4601:4718   */\n    tag_113:\n        /* \"#utility.yul\":4742:4805   */\n      tag_115\n        /* \"#utility.yul\":4797:4804   */\n      dup6\n        /* \"#utility.yul\":4788:4794   */\n      dup3\n        /* \"#utility.yul\":4777:4786   */\n      dup7\n        /* \"#utility.yul\":4773:4795   */\n      add\n        /* \"#utility.yul\":4742:4805   */\n      tag_45\n      jump\t// in\n    tag_115:\n        /* \"#utility.yul\":4732:4805   */\n      swap2\n      pop\n        /* \"#utility.yul\":4527:4815   */\n      pop\n        /* \"#utility.yul\":3988:4822   */\n      swap3\n      pop\n      swap3\n      swap1\n      pop\n      jump\t// out\n        /* \"#utility.yul\":4828:5008   */\n    tag_46:\n        /* \"#utility.yul\":4876:4953   */\n      0x4e487b7100000000000000000000000000000000000000000000000000000000\n        /* \"#utility.yul\":4873:4874   */\n      0x00\n        /* \"#utility.yul\":4866:4954   */\n      mstore\n        /* \"#utility.yul\":4973:4977   */\n      0x22\n        /* \"#utility.yul\":4970:4971   */\n      0x04\n        /* \"#utility.yul\":4963:4978   */\n      mstore\n        /* \"#utility.yul\":4997:5001   */\n      0x24\n        /* \"#utility.yul\":4994:4995   */\n      0x00\n        /* \"#utility.yul\":4987:5002   */\n      revert\n        /* \"#utility.yul\":5014:5334   */\n    tag_15:\n        /* \"#utility.yul\":5058:5064   */\n      0x00\n        /* \"#utility.yul\":5095:5096   */\n      0x02\n        /* \"#utility.yul\":5089:5093   */\n      dup3\n        /* \"#utility.yul\":5085:5097   */\n      div\n        /* \"#utility.yul\":5075:5097   */\n      swap1\n      pop\n        /* \"#utility.yul\":5142:5143   */\n      0x01\n        /* \"#utility.yul\":5136:5140   */\n      dup3\n        /* \"#utility.yul\":5132:5144   */\n      and\n        /* \"#utility.yul\":5163:5181   */\n      dup1\n        /* \"#utility.yul\":5153:5234   */\n      tag_118\n      jumpi\n        /* \"#utility.yul\":5219:5223   */\n      0x7f\n        /* \"#utility.yul\":5211:5217   */\n      dup3\n        /* \"#utility.yul\":5207:5224   */\n      and\n        /* \"#utility.yul\":5197:5224   */\n      swap2\n      pop\n        /* \"#utility.yul\":5153:5234   */\n    tag_118:\n        /* \"#utility.yul\":5281:5283   */\n      0x20\n        /* \"#utility.yul\":5273:5279   */\n      dup3\n        /* \"#utility.yul\":5270:5284   */\n      lt\n        /* \"#utility.yul\":5250:5268   */\n      dup2\n        /* \"#utility.yul\":5247:5285   */\n      sub\n        /* \"#utility.yul\":5244:5328   */\n      tag_119\n      jumpi\n        /* \"#utility.yul\":5300:5318   */\n      tag_120\n      tag_46\n      jump\t// in\n    tag_120:\n        /* \"#utility.yul\":5244:5328   */\n    tag_119:\n        /* \"#utility.yul\":5065:5334   */\n      pop\n        /* \"#utility.yul\":5014:5334   */\n      swap2\n      swap1\n      pop\n      jump\t// out\n        /* \"#utility.yul\":5340:5481   */\n    tag_47:\n        /* \"#utility.yul\":5389:5393   */\n      0x00\n        /* \"#utility.yul\":5412:5415   */\n      dup2\n        /* \"#utility.yul\":5404:5415   */\n      swap1\n      pop\n        /* \"#utility.yul\":5435:5438   */\n      dup2\n        /* \"#utility.yul\":5432:5433   */\n      0x00\n        /* \"#utility.yul\":5425:5439   */\n      mstore\n        /* \"#utility.yul\":5469:5473   */\n      0x20\n        /* \"#utility.yul\":5466:5467   */\n      0x00\n        /* \"#utility.yul\":5456:5474   */\n      keccak256\n        /* \"#utility.yul\":5448:5474   */\n      swap1\n      pop\n        /* \"#utility.yul\":5340:5481   */\n      swap2\n      swap1\n      pop\n      jump\t// out\n        /* \"#utility.yul\":5487:5580   */\n    tag_48:\n        /* \"#utility.yul\":5524:5530   */\n      0x00\n        /* \"#utility.yul\":5571:5573   */\n      0x20\n        /* \"#utility.yul\":5566:5568   */\n      0x1f\n        /* \"#utility.yul\":5559:5564   */\n      dup4\n        /* \"#utility.yul\":5555:5569   */\n      add\n        /* \"#utility.yul\":5551:5574   */\n      div\n        /* \"#utility.yul\":5541:5574   */\n      swap1\n      pop\n        /* \"#utility.yul\":5487:5580   */\n      swap2\n      swap1\n      pop\n      jump\t// out\n        /* \"#utility.yul\":5586:5693   */\n    tag_49:\n        /* \"#utility.yul\":5630:5638   */\n      0x00\n        /* \"#utility.yul\":5680:5685   */\n      dup3\n        /* \"#utility.yul\":5674:5678   */\n      dup3\n        /* \"#utility.yul\":5670:5686   */\n      shl\n        /* \"#utility.yul\":5649:5686   */\n      swap1\n      pop\n        /* \"#utility.yul\":5586:5693   */\n      swap3\n      swap2\n      pop\n      pop\n      jump\t// out\n        /* \"#utility.yul\":5699:6092   */\n    tag_50:\n        /* \"#utility.yul\":5768:5774   */\n      0x00\n        /* \"#utility.yul\":5818:5819   */\n      0x08\n        /* \"#utility.yul\":5806:5816   */\n      dup4\n        /* \"#utility.yul\":5802:5820   */\n      mul\n        /* \"#utility.yul\":5841:5938   */\n      tag_125\n        /* \"#utility.yul\":5871:5937   */\n      0xffffffffffffffffffffffffffffffffffffffffffffffffffffffffffffffff\n        /* \"#utility.yul\":5860:5869   */\n      dup3\n        /* \"#utility.yul\":5841:5938   */\n      tag_49\n      jump\t// in\n    tag_125:\n        /* \"#utility.yul\":5959:5998   */\n      tag_126\n        /* \"#utility.yul\":5989:5997   */\n      dup7\n        /* \"#utility.yul\":5978:5987   */\n      dup4\n        /* \"#utility.yul\":5959:5998   */\n      tag_49\n      jump\t// in\n    tag_126:\n        /* \"#utility.yul\":5947:5998   */\n      swap6\n      pop\n        /* \"#utility.yul\":6031:6035   */\n      dup1\n        /* \"#utility.yul\":6027:6036   */\n      not\n        /* \"#utility.yul\":6020:6025   */\n      dup5\n        /* \"#utility.yul\":6016:6037   */\n      and\n        /* \"#utility.yul\":6007:6037   */\n      swap4\n      pop\n        /* \"#utility.yul\":6080:6084   */\n      dup1\n        /* \"#utility.yul\":6070:6078   */\n      dup7\n        /* \"#utility.yul\":6066:6085   */\n      and\n        /* \"#utility.yul\":6059:6064   */\n      dup5\n        /* \"#utility.yul\":6056:6086   */\n      or\n        /* \"#utility.yul\":6046:6086   */\n      swap3\n      pop\n        /* \"#utility.yul\":5775:6092   */\n      pop\n      pop\n        /* \"#utility.yul\":5699:6092   */\n      swap4\n      swap3\n      pop\n      pop\n      pop\n      jump\t// out\n        /* \"#utility.yul\":6098:6175   */\n    tag_51:\n        /* \"#utility.yul\":6135:6142   */\n      0x00\n        /* \"#utility.yul\":6164:6169   */\n      dup2\n        /* \"#utility.yul\":6153:6169   */\n      swap1\n      pop\n        /* \"#utility.yul\":6098:6175   */\n      swap2\n      swap1\n      pop\n      jump\t// out\n        /* \"#utility.yul\":6181:6241   */\n    tag_52:\n        /* \"#utility.yul\":6209:6212   */\n      0x00\n        /* \"#utility.yul\":6230:6235   */\n      dup2\n        /* \"#utility.yul\":6223:6235   */\n      swap1\n      pop\n        /* \"#utility.yul\":6181:6241   */\n      swap2\n      swap1\n      pop\n      jump\t// out\n        /* \"#utility.yul\":6247:6389   */\n    tag_53:\n        /* \"#utility.yul\":6297:6306   */\n      0x00\n        /* \"#utility.yul\":6330:6383   */\n      tag_130\n        /* \"#utility.yul\":6348:6382   */\n      tag_131\n        /* \"#utility.yul\":6357:6381   */\n      tag_132\n        /* \"#utility.yul\":6375:6380   */\n      dup5\n        /* \"#utility.yul\":6357:6381   */\n      tag_51\n      jump\t// in\n    tag_132:\n        /* \"#utility.yul\":6348:6382   */\n      tag_52\n      jump\t// in\n    tag_131:\n        /* \"#utility.yul\":6330:6383   */\n      tag_51\n      jump\t// in\n    tag_130:\n        /* \"#utility.yul\":6317:6383   */\n      swap1\n      pop\n        /* \"#utility.yul\":6247:6389   */\n      swap2\n      swap1\n      pop\n      jump\t// out\n        /* \"#utility.yul\":6395:6470   */\n    tag_54:\n        /* \"#utility.yul\":6438:6441   */\n      0x00\n        /* \"#utility.yul\":6459:6464   */\n      dup2\n        /* \"#utility.yul\":6452:6464   */\n      swap1\n      pop\n        /* \"#utility.yul\":6395:6470   */\n      swap2\n      swap1\n      pop\n      jump\t// out\n        /* \"#utility.yul\":6476:6745   */\n    tag_55:\n        /* \"#utility.yul\":6586:6625   */\n      tag_135\n        /* \"#utility.yul\":6617:6624   */\n      dup4\n        /* \"#utility.yul\":6586:6625   */\n      tag_53\n      jump\t// in\n    tag_135:\n        /* \"#utility.yul\":6647:6738   */\n      tag_136\n        /* \"#utility.yul\":6696:6737   */\n      tag_137\n        /* \"#utility.yul\":6720:6736   */\n      dup3\n        /* \"#utility.yul\":6696:6737   */\n      tag_54\n      jump\t// in\n    tag_137:\n        /* \"#utility.yul\":6688:6694   */\n      dup5\n        /* \"#utility.yul\":6681:6685   */\n      dup5\n        /* \"#utility.yul\":6675:6686   */\n      sload\n        /* \"#utility.yul\":6647:6738   */\n      tag_50\n      jump\t// in\n    tag_136:\n        /* \"#utility.yul\":6641:6645   */\n      dup3\n        /* \"#utility.yul\":6634:6739   */\n      sstore\n        /* \"#utility.yul\":6552:6745   */\n      pop\n        /* \"#utility.yul\":6476:6745   */\n      pop\n      pop\n      pop\n      jump\t// out\n        /* \"#utility.yul\":6751:6824   */\n    tag_56:\n        /* \"#utility.yul\":6796:6799   */\n      0x00\n        /* \"#utility.yul\":6751:6824   */\n      swap1\n      jump\t// out\n        /* \"#utility.yul\":6830:7019   */\n    tag_57:\n        /* \"#utility.yul\":6907:6939   */\n      tag_140\n      tag_56\n      jump\t// in\n    tag_140:\n        /* \"#utility.yul\":6948:7013   */\n      tag_141\n        /* \"#utility.yul\":7006:7012   */\n      dup2\n        /* \"#utility.yul\":6998:7004   */\n      dup5\n        /* \"#utility.yul\":6992:6996   */\n      dup5\n        /* \"#utility.yul\":6948:7013   */\n      tag_55\n      jump\t// in\n    tag_141:\n        /* \"#utility.yul\":6883:7019   */\n      pop\n        /* \"#utility.yul\":6830:7019   */\n      pop\n      pop\n      jump\t// out\n        /* \"#utility.yul\":7025:7211   */\n    tag_58:\n        /* \"#utility.yul\":7085:7205   */\n    tag_143:\n        /* \"#utility.yul\":7102:7105   */\n      dup2\n        /* \"#utility.yul\":7095:7100   */\n      dup2\n        /* \"#utility.yul\":7092:7106   */\n      lt\n        /* \"#utility.yul\":7085:7205   */\n      iszero\n      tag_145\n      jumpi\n        /* \"#utility.yul\":7156:7195   */\n      tag_146\n        /* \"#utility.yul\":7193:7194   */\n      0x00\n        /* \"#utility.yul\":7186:7191   */\n      dup3\n        /* \"#utility.yul\":7156:7195   */\n      tag_57\n      jump\t// in\n    tag_146:\n        /* \"#utility.yul\":7129:7130   */\n      0x01\n        /* \"#utility.yul\":7122:7127   */\n      dup2\n        /* \"#utility.yul\":7118:7131   */\n      add\n        /* \"#utility.yul\":7109:7131   */\n      swap1\n      pop\n        /* \"#utility.yul\":7085:7205   */\n      jump(tag_143)\n    tag_145:\n        /* \"#utility.yul\":7025:7211   */\n      pop\n      pop\n      jump\t// out\n        /* \"#utility.yul\":7217:7760   */\n    tag_59:\n        /* \"#utility.yul\":7318:7320   */\n      0x1f\n        /* \"#utility.yul\":7313:7316   */\n      dup3\n        /* \"#utility.yul\":7310:7321   */\n      gt\n        /* \"#utility.yul\":7307:7753   */\n      iszero\n      tag_148\n      jumpi\n        /* \"#utility.yul\":7352:7390   */\n      tag_149\n        /* \"#utility.yul\":7384:7389   */\n      dup2\n        /* \"#utility.yul\":7352:7390   */\n      tag_47\n      jump\t// in\n    tag_149:\n        /* \"#utility.yul\":7436:7465   */\n      tag_150\n        /* \"#utility.yul\":7454:7464   */\n      dup5\n        /* \"#utility.yul\":7436:7465   */\n      tag_48\n      jump\t// in\n    tag_150:\n        /* \"#utility.yul\":7426:7434   */\n      dup2\n        /* \"#utility.yul\":7422:7466   */\n      add\n        /* \"#utility.yul\":7619:7621   */\n      0x20\n        /* \"#utility.yul\":7607:7617   */\n      dup6\n        /* \"#utility.yul\":7604:7622   */\n      lt\n        /* \"#utility.yul\":7601:7650   */\n      iszero\n      tag_151\n      jumpi\n        /* \"#utility.yul\":7640:7648   */\n      dup2\n        /* \"#utility.yul\":7625:7648   */\n      swap1\n      pop\n        /* \"#utility.yul\":7601:7650   */\n    tag_151:\n        /* \"#utility.yul\":7663:7743   */\n      tag_152\n        /* \"#utility.yul\":7719:7741   */\n      tag_153\n        /* \"#utility.yul\":7737:7740   */\n      dup6\n        /* \"#utility.yul\":7719:7741   */\n      tag_48\n      jump\t// in\n    tag_153:\n        /* \"#utility.yul\":7709:7717   */\n      dup4\n        /* \"#utility.yul\":7705:7742   */\n      add\n        /* \"#utility.yul\":7692:7703   */\n      dup3\n        /* \"#utility.yul\":7663:7743   */\n      tag_58\n      jump\t// in\n    tag_152:\n        /* \"#utility.yul\":7322:7753   */\n      pop\n      pop\n        /* \"#utility.yul\":7307:7753   */\n    tag_148:\n        /* \"#utility.yul\":7217:7760   */\n      pop\n      pop\n      pop\n      jump\t// out\n        /* \"#utility.yul\":7766:7883   */\n    tag_60:\n        /* \"#utility.yul\":7820:7828   */\n      0x00\n        /* \"#utility.yul\":7870:7875   */\n      dup3\n        /* \"#utility.yul\":7864:7868   */\n      dup3\n        /* \"#utility.yul\":7860:7876   */\n      shr\n        /* \"#utility.yul\":7839:7876   */\n      swap1\n      pop\n        /* \"#utility.yul\":7766:7883   */\n      swap3\n      swap2\n      pop\n      pop\n      jump\t// out\n        /* \"#utility.yul\":7889:8058   */\n    tag_61:\n        /* \"#utility.yul\":7933:7939   */\n      0x00\n        /* \"#utility.yul\":7966:8017   */\n      tag_156\n        /* \"#utility.yul\":8014:8015   */\n      0x00\n        /* \"#utility.yul\":8010:8016   */\n      not\n        /* \"#utility.yul\":8002:8007   */\n      dup5\n        /* \"#utility.yul\":7999:8000   */\n      0x08\n        /* \"#utility.yul\":7995:8008   */\n      mul\n        /* \"#utility.yul\":7966:8017   */\n      tag_60\n      jump\t// in\n    tag_156:\n        /* \"#utility.yul\":7962:8018   */\n      not\n        /* \"#utility.yul\":8047:8051   */\n      dup1\n        /* \"#utility.yul\":8041:8045   */\n      dup4\n        /* \"#utility.yul\":8037:8052   */\n      and\n        /* \"#utility.yul\":8027:8052   */\n      swap2\n      pop\n        /* \"#utility.yul\":7940:8058   */\n      pop\n        /* \"#utility.yul\":7889:8058   */\n      swap3\n      swap2\n      pop\n      pop\n      jump\t// out\n        /* \"#utility.yul\":8063:8358   */\n    tag_62:\n        /* \"#utility.yul\":8139:8143   */\n      0x00\n        /* \"#utility.yul\":8285:8314   */\n      tag_158\n        /* \"#utility.yul\":8310:8313   */\n      dup4\n        /* \"#utility.yul\":8304:8308   */\n      dup4\n        /* \"#utility.yul\":8285:8314   */\n      tag_61\n      jump\t// in\n    tag_158:\n        /* \"#utility.yul\":8277:8314   */\n      swap2\n      pop\n        /* \"#utility.yul\":8347:8350   */\n      dup3\n        /* \"#utility.yul\":8344:8345   */\n      0x02\n        /* \"#utility.yul\":8340:8351   */\n      mul\n        /* \"#utility.yul\":8334:8338   */\n      dup3\n        /* \"#utility.yul\":8331:8352   */\n      or\n        /* \"#utility.yul\":8323:8352   */\n      swap1\n      pop\n        /* \"#utility.yul\":8063:8358   */\n      swap3\n      swap2\n      pop\n      pop\n      jump\t// out\n        /* \"#utility.yul\":8363:9758   */\n    tag_27:\n        /* \"#utility.yul\":8480:8517   */\n      tag_160\n        /* \"#utility.yul\":8513:8516   */\n      dup3\n        /* \"#utility.yul\":8480:8517   */\n      tag_29\n      jump\t// in\n    tag_160:\n        /* \"#utility.yul\":8582:8600   */\n      0xffffffffffffffff\n        /* \"#utility.yul\":8574:8580   */\n      dup2\n        /* \"#utility.yul\":8571:8601   */\n      gt\n        /* \"#utility.yul\":8568:8624   */\n      iszero\n      tag_161\n      jumpi\n        /* \"#utility.yul\":8604:8622   */\n      tag_162\n      tag_39\n      jump\t// in\n    tag_162:\n        /* \"#utility.yul\":8568:8624   */\n    tag_161:\n        /* \"#utility.yul\":8648:8686   */\n      tag_163\n        /* \"#utility.yul\":8680:8684   */\n      dup3\n        /* \"#utility.yul\":8674:8685   */\n      sload\n        /* \"#utility.yul\":8648:8686   */\n      tag_15\n      jump\t// in\n    tag_163:\n        /* \"#utility.yul\":8733:8800   */\n      tag_164\n        /* \"#utility.yul\":8793:8799   */\n      dup3\n        /* \"#utility.yul\":8785:8791   */\n      dup3\n        /* \"#utility.yul\":8779:8783   */\n      dup6\n        /* \"#utility.yul\":8733:8800   */\n      tag_59\n      jump\t// in\n    tag_164:\n        /* \"#utility.yul\":8827:8828   */\n      0x00\n        /* \"#utility.yul\":8851:8855   */\n      0x20\n        /* \"#utility.yul\":8838:8855   */\n      swap1\n      pop\n        /* \"#utility.yul\":8883:8885   */\n      0x1f\n        /* \"#utility.yul\":8875:8881   */\n      dup4\n        /* \"#utility.yul\":8872:8886   */\n      gt\n        /* \"#utility.yul\":8900:8901   */\n      0x01\n        /* \"#utility.yul\":8895:9513   */\n      dup2\n      eq\n      tag_166\n      jumpi\n        /* \"#utility.yul\":9557:9558   */\n      0x00\n        /* \"#utility.yul\":9574:9580   */\n      dup5\n        /* \"#utility.yul\":9571:9648   */\n      iszero\n      tag_167\n      jumpi\n        /* \"#utility.yul\":9623:9632   */\n      dup3\n        /* \"#utility.yul\":9618:9621   */\n      dup8\n        /* \"#utility.yul\":9614:9633   */\n      add\n        /* \"#utility.yul\":9608:9634   */\n      mload\n        /* \"#utility.yul\":9599:9634   */\n      swap1\n      pop\n        /* \"#utility.yul\":9571:9648   */\n    tag_167:\n        /* \"#utility.yul\":9674:9741   */\n      tag_168\n        /* \"#utility.yul\":9734:9740   */\n      dup6\n        /* \"#utility.yul\":9727:9732   */\n      dup3\n        /* \"#utility.yul\":9674:9741   */\n      tag_62\n      jump\t// in\n    tag_168:\n        /* \"#utility.yul\":9668:9672   */\n      dup7\n        /* \"#utility.yul\":9661:9742   */\n      sstore\n        /* \"#utility.yul\":9530:9752   */\n      pop\n        /* \"#utility.yul\":8865:9752   */\n      jump(tag_165)\n        /* \"#utility.yul\":8895:9513   */\n    tag_166:\n        /* \"#utility.yul\":8947:8951   */\n      0x1f\n        /* \"#utility.yul\":8943:8952   */\n      not\n        /* \"#utility.yul\":8935:8941   */\n      dup5\n        /* \"#utility.yul\":8931:8953   */\n      and\n        /* \"#utility.yul\":8981:9018   */\n      tag_169\n        /* \"#utility.yul\":9013:9017   */\n      dup7\n        /* \"#utility.yul\":8981:9018   */\n      tag_47\n      jump\t// in\n    tag_169:\n        /* \"#utility.yul\":9040:9041   */\n      0x00\n        /* \"#utility.yul\":9054:9262   */\n    tag_170:\n        /* \"#utility.yul\":9068:9075   */\n      dup3\n        /* \"#utility.yul\":9065:9066   */\n      dup2\n        /* \"#utility.yul\":9062:9076   */\n      lt\n        /* \"#utility.yul\":9054:9262   */\n      iszero\n      tag_172\n      jumpi\n        /* \"#utility.yul\":9147:9156   */\n      dup5\n        /* \"#utility.yul\":9142:9145   */\n      dup10\n        /* \"#utility.yul\":9138:9157   */\n      add\n        /* \"#utility.yul\":9132:9158   */\n      mload\n        /* \"#utility.yul\":9124:9130   */\n      dup3\n        /* \"#utility.yul\":9117:9159   */\n      sstore\n        /* \"#utility.yul\":9198:9199   */\n      0x01\n        /* \"#utility.yul\":9190:9196   */\n      dup3\n        /* \"#utility.yul\":9186:9200   */\n      add\n        /* \"#utility.yul\":9176:9200   */\n      swap2\n      pop\n        /* \"#utility.yul\":9245:9247   */\n      0x20\n        /* \"#utility.yul\":9234:9243   */\n      dup6\n        /* \"#utility.yul\":9230:9248   */\n      add\n        /* \"#utility.yul\":9217:9248   */\n      swap5\n      pop\n        /* \"#utility.yul\":9091:9095   */\n      0x20\n        /* \"#utility.yul\":9088:9089   */\n      dup2\n        /* \"#utility.yul\":9084:9096   */\n      add\n        /* \"#utility.yul\":9079:9096   */\n      swap1\n      pop\n        /* \"#utility.yul\":9054:9262   */\n      jump(tag_170)\n    tag_172:\n        /* \"#utility.yul\":9290:9296   */\n      dup7\n        /* \"#utility.yul\":9281:9288   */\n      dup4\n        /* \"#utility.yul\":9278:9297   */\n      lt\n        /* \"#utility.yul\":9275:9454   */\n      iszero\n      tag_173\n      jumpi\n        /* \"#utility.yul\":9348:9357   */\n      dup5\n        /* \"#utility.yul\":9343:9346   */\n      dup10\n        /* \"#utility.yul\":9339:9358   */\n      add\n        /* \"#utility.yul\":9333:9359   */\n      mload\n        /* \"#utility.yul\":9391:9439   */\n      tag_174\n        /* \"#utility.yul\":9433:9437   */\n      0x1f\n        /* \"#utility.yul\":9425:9431   */\n      dup10\n        /* \"#utility.yul\":9421:9438   */\n      and\n        /* \"#utility.yul\":9410:9419   */\n      dup3\n        /* \"#utility.yul\":9391:9439   */\n      tag_61\n      jump\t// in\n    tag_174:\n        /* \"#utility.yul\":9383:9389   */\n      dup4\n        /* \"#utility.yul\":9376:9440   */\n      sstore\n        /* \"#utility.yul\":9298:9454   */\n      pop\n        /* \"#utility.yul\":9275:9454   */\n    tag_173:\n        /* \"#utility.yul\":9500:9501   */\n      0x01\n        /* \"#utility.yul\":9496:9497   */\n      0x02\n        /* \"#utility.yul\":9488:9494   */\n      dup9\n        /* \"#utility.yul\":9484:9498   */\n      mul\n        /* \"#utility.yul\":9480:9502   */\n      add\n        /* \"#utility.yul\":9474:9478   */\n      dup9\n        /* \"#utility.yul\":9467:9503   */\n      sstore\n        /* \"#utility.yul\":8902:9513   */\n      pop\n      pop\n      pop\n        /* \"#utility.yul\":8865:9752   */\n    tag_165:\n      pop\n        /* \"#utility.yul\":8455:9758   */\n      pop\n      pop\n      pop\n        /* \"#utility.yul\":8363:9758   */\n      pop\n      pop\n      jump\t// out\n\n    auxdata: 0xa26469706673582212207ebbb56ebef6ec4e4cc534eba5cfe7dd3e8cf3bdb1dbcb8a8d2942ebe9d94df964736f6c63430008120033\n}\n",
				"bytecode": {
					"linkReferences": {},
					"object": "608060405234801561001057600080fd5b50610863806100206000396000f3fe608060405234801561001057600080fd5b50600436106100365760003560e01c80634e69d5601461003b578063d8fcc3541461005a575b600080fd5b610043610076565b60405161005192919061034d565b60405180910390f35b610074600480360381019061006f91906104cd565b61021b565b005b6060806000803373ffffffffffffffffffffffffffffffffffffffff1673ffffffffffffffffffffffffffffffffffffffff1681526020019081526020016000206000016000803373ffffffffffffffffffffffffffffffffffffffff1673ffffffffffffffffffffffffffffffffffffffff16815260200190815260200160002060010181805461010790610574565b80601f016020809104026020016040519081016040528092919081815260200182805461013390610574565b80156101805780601f1061015557610100808354040283529160200191610180565b820191906000526020600020905b81548152906001019060200180831161016357829003601f168201915b5050505050915080805461019390610574565b80601f01602080910402602001604051908101604052809291908181526020018280546101bf90610574565b801561020c5780601f106101e15761010080835404028352916020019161020c565b820191906000526020600020905b8154815290600101906020018083116101ef57829003601f168201915b50505050509050915091509091565b816000803373ffffffffffffffffffffffffffffffffffffffff1673ffffffffffffffffffffffffffffffffffffffff1681526020019081526020016000206000019081610269919061075b565b50806000803373ffffffffffffffffffffffffffffffffffffffff1673ffffffffffffffffffffffffffffffffffffffff16815260200190815260200160002060010190816102b8919061075b565b505050565b600081519050919050565b600082825260208201905092915050565b60005b838110156102f75780820151818401526020810190506102dc565b60008484015250505050565b6000601f19601f8301169050919050565b600061031f826102bd565b61032981856102c8565b93506103398185602086016102d9565b61034281610303565b840191505092915050565b600060408201905081810360008301526103678185610314565b9050818103602083015261037b8184610314565b90509392505050565b6000604051905090565b600080fd5b600080fd5b600080fd5b600080fd5b7f4e487b7100000000000000000000000000000000000000000000000000000000600052604160045260246000fd5b6103da82610303565b810181811067ffffffffffffffff821117156103f9576103f86103a2565b5b80604052505050565b600061040c610384565b905061041882826103d1565b919050565b600067ffffffffffffffff821115610438576104376103a2565b5b61044182610303565b9050602081019050919050565b82818337600083830152505050565b600061047061046b8461041d565b610402565b90508281526020810184848401111561048c5761048b61039d565b5b61049784828561044e565b509392505050565b600082601f8301126104b4576104b3610398565b5b81356104c484826020860161045d565b91505092915050565b600080604083850312156104e4576104e361038e565b5b600083013567ffffffffffffffff81111561050257610501610393565b5b61050e8582860161049f565b925050602083013567ffffffffffffffff81111561052f5761052e610393565b5b61053b8582860161049f565b9150509250929050565b7f4e487b7100000000000000000000000000000000000000000000000000000000600052602260045260246000fd5b6000600282049050600182168061058c57607f821691505b60208210810361059f5761059e610545565b5b50919050565b60008190508160005260206000209050919050565b60006020601f8301049050919050565b600082821b905092915050565b6000600883026106077fffffffffffffffffffffffffffffffffffffffffffffffffffffffffffffffff826105ca565b61061186836105ca565b95508019841693508086168417925050509392505050565b6000819050919050565b6000819050919050565b600061065861065361064e84610629565b610633565b610629565b9050919050565b6000819050919050565b6106728361063d565b61068661067e8261065f565b8484546105d7565b825550505050565b600090565b61069b61068e565b6106a6818484610669565b505050565b5b818110156106ca576106bf600082610693565b6001810190506106ac565b5050565b601f82111561070f576106e0816105a5565b6106e9846105ba565b810160208510156106f8578190505b61070c610704856105ba565b8301826106ab565b50505b505050565b600082821c905092915050565b600061073260001984600802610714565b1980831691505092915050565b600061074b8383610721565b9150826002028217905092915050565b610764826102bd565b67ffffffffffffffff81111561077d5761077c6103a2565b5b6107878254610574565b6107928282856106ce565b600060209050601f8311600181146107c557600084156107b3578287015190505b6107bd858261073f565b865550610825565b601f1984166107d3866105a5565b60005b828110156107fb578489015182556001820191506020850194506020810190506107d6565b868310156108185784890151610814601f891682610721565b8355505b6001600288020188555050505b50505050505056fea26469706673582212207ebbb56ebef6ec4e4cc534eba5cfe7dd3e8cf3bdb1dbcb8a8d2942ebe9d94df964736f6c63430008120033",
					"opcodes": "PUSH1 0x80 PUSH1 0x40 MSTORE CALLVALUE DUP1 ISZERO PUSH2 0x10 JUMPI PUSH1 0x0 DUP1 REVERT JUMPDEST POP PUSH2 0x863 DUP1 PUSH2 0x20 PUSH1 0x0 CODECOPY PUSH1 0x0 RETURN INVALID PUSH1 0x80 PUSH1 0x40 MSTORE CALLVALUE DUP1 ISZERO PUSH2 0x10 JUMPI PUSH1 0x0 DUP1 REVERT JUMPDEST POP PUSH1 0x4 CALLDATASIZE LT PUSH2 0x36 JUMPI PUSH1 0x0 CALLDATALOAD PUSH1 0xE0 SHR DUP1 PUSH4 0x4E69D560 EQ PUSH2 0x3B JUMPI DUP1 PUSH4 0xD8FCC354 EQ PUSH2 0x5A JUMPI JUMPDEST PUSH1 0x0 DUP1 REVERT JUMPDEST PUSH2 0x43 PUSH2 0x76 JUMP JUMPDEST PUSH1 0x40 MLOAD PUSH2 0x51 SWAP3 SWAP2 SWAP1 PUSH2 0x34D JUMP JUMPDEST PUSH1 0x40 MLOAD DUP1 SWAP2 SUB SWAP1 RETURN JUMPDEST PUSH2 0x74 PUSH1 0x4 DUP1 CALLDATASIZE SUB DUP2 ADD SWAP1 PUSH2 0x6F SWAP2 SWAP1 PUSH2 0x4CD JUMP JUMPDEST PUSH2 0x21B JUMP JUMPDEST STOP JUMPDEST PUSH1 0x60 DUP1 PUSH1 0x0 DUP1 CALLER PUSH20 0xFFFFFFFFFFFFFFFFFFFFFFFFFFFFFFFFFFFFFFFF AND PUSH20 0xFFFFFFFFFFFFFFFFFFFFFFFFFFFFFFFFFFFFFFFF AND DUP2 MSTORE PUSH1 0x20 ADD SWAP1 DUP2 MSTORE PUSH1 0x20 ADD PUSH1 0x0 KECCAK256 PUSH1 0x0 ADD PUSH1 0x0 DUP1 CALLER PUSH20 0xFFFFFFFFFFFFFFFFFFFFFFFFFFFFFFFFFFFFFFFF AND PUSH20 0xFFFFFFFFFFFFFFFFFFFFFFFFFFFFFFFFFFFFFFFF AND DUP2 MSTORE PUSH1 0x20 ADD SWAP1 DUP2 MSTORE PUSH1 0x20 ADD PUSH1 0x0 KECCAK256 PUSH1 0x1 ADD DUP2 DUP1 SLOAD PUSH2 0x107 SWAP1 PUSH2 0x574 JUMP JUMPDEST DUP1 PUSH1 0x1F ADD PUSH1 0x20 DUP1 SWAP2 DIV MUL PUSH1 0x20 ADD PUSH1 0x40 MLOAD SWAP1 DUP2 ADD PUSH1 0x40 MSTORE DUP1 SWAP3 SWAP2 SWAP1 DUP2 DUP2 MSTORE PUSH1 0x20 ADD DUP3 DUP1 SLOAD PUSH2 0x133 SWAP1 PUSH2 0x574 JUMP JUMPDEST DUP1 ISZERO PUSH2 0x180 JUMPI DUP1 PUSH1 0x1F LT PUSH2 0x155 JUMPI PUSH2 0x100 DUP1 DUP4 SLOAD DIV MUL DUP4 MSTORE SWAP2 PUSH1 0x20 ADD SWAP2 PUSH2 0x180 JUMP JUMPDEST DUP3 ADD SWAP2 SWAP1 PUSH1 0x0 MSTORE PUSH1 0x20 PUSH1 0x0 KECCAK256 SWAP1 JUMPDEST DUP2 SLOAD DUP2 MSTORE SWAP1 PUSH1 0x1 ADD SWAP1 PUSH1 0x20 ADD DUP1 DUP4 GT PUSH2 0x163 JUMPI DUP3 SWAP1 SUB PUSH1 0x1F AND DUP3 ADD SWAP2 JUMPDEST POP POP POP POP POP SWAP2 POP DUP1 DUP1 SLOAD PUSH2 0x193 SWAP1 PUSH2 0x574 JUMP JUMPDEST DUP1 PUSH1 0x1F ADD PUSH1 0x20 DUP1 SWAP2 DIV MUL PUSH1 0x20 ADD PUSH1 0x40 MLOAD SWAP1 DUP2 ADD PUSH1 0x40 MSTORE DUP1 SWAP3 SWAP2 SWAP1 DUP2 DUP2 MSTORE PUSH1 0x20 ADD DUP3 DUP1 SLOAD PUSH2 0x1BF SWAP1 PUSH2 0x574 JUMP JUMPDEST DUP1 ISZERO PUSH2 0x20C JUMPI DUP1 PUSH1 0x1F LT PUSH2 0x1E1 JUMPI PUSH2 0x100 DUP1 DUP4 SLOAD DIV MUL DUP4 MSTORE SWAP2 PUSH1 0x20 ADD SWAP2 PUSH2 0x20C JUMP JUMPDEST DUP3 ADD SWAP2 SWAP1 PUSH1 0x0 MSTORE PUSH1 0x20 PUSH1 0x0 KECCAK256 SWAP1 JUMPDEST DUP2 SLOAD DUP2 MSTORE SWAP1 PUSH1 0x1 ADD SWAP1 PUSH1 0x20 ADD DUP1 DUP4 GT PUSH2 0x1EF JUMPI DUP3 SWAP1 SUB PUSH1 0x1F AND DUP3 ADD SWAP2 JUMPDEST POP POP POP POP POP SWAP1 POP SWAP2 POP SWAP2 POP SWAP1 SWAP2 JUMP JUMPDEST DUP2 PUSH1 0x0 DUP1 CALLER PUSH20 0xFFFFFFFFFFFFFFFFFFFFFFFFFFFFFFFFFFFFFFFF AND PUSH20 0xFFFFFFFFFFFFFFFFFFFFFFFFFFFFFFFFFFFFFFFF AND DUP2 MSTORE PUSH1 0x20 ADD SWAP1 DUP2 MSTORE PUSH1 0x20 ADD PUSH1 0x0 KECCAK256 PUSH1 0x0 ADD SWAP1 DUP2 PUSH2 0x269 SWAP2 SWAP1 PUSH2 0x75B JUMP JUMPDEST POP DUP1 PUSH1 0x0 DUP1 CALLER PUSH20 0xFFFFFFFFFFFFFFFFFFFFFFFFFFFFFFFFFFFFFFFF AND PUSH20 0xFFFFFFFFFFFFFFFFFFFFFFFFFFFFFFFFFFFFFFFF AND DUP2 MSTORE PUSH1 0x20 ADD SWAP1 DUP2 MSTORE PUSH1 0x20 ADD PUSH1 0x0 KECCAK256 PUSH1 0x1 ADD SWAP1 DUP2 PUSH2 0x2B8 SWAP2 SWAP1 PUSH2 0x75B JUMP JUMPDEST POP POP POP JUMP JUMPDEST PUSH1 0x0 DUP2 MLOAD SWAP1 POP SWAP2 SWAP1 POP JUMP JUMPDEST PUSH1 0x0 DUP3 DUP3 MSTORE PUSH1 0x20 DUP3 ADD SWAP1 POP SWAP3 SWAP2 POP POP JUMP JUMPDEST PUSH1 0x0 JUMPDEST DUP4 DUP2 LT ISZERO PUSH2 0x2F7 JUMPI DUP1 DUP3 ADD MLOAD DUP2 DUP5 ADD MSTORE PUSH1 0x20 DUP2 ADD SWAP1 POP PUSH2 0x2DC JUMP JUMPDEST PUSH1 0x0 DUP5 DUP5 ADD MSTORE POP POP POP POP JUMP JUMPDEST PUSH1 0x0 PUSH1 0x1F NOT PUSH1 0x1F DUP4 ADD AND SWAP1 POP SWAP2 SWAP1 POP JUMP JUMPDEST PUSH1 0x0 PUSH2 0x31F DUP3 PUSH2 0x2BD JUMP JUMPDEST PUSH2 0x329 DUP2 DUP6 PUSH2 0x2C8 JUMP JUMPDEST SWAP4 POP PUSH2 0x339 DUP2 DUP6 PUSH1 0x20 DUP7 ADD PUSH2 0x2D9 JUMP JUMPDEST PUSH2 0x342 DUP2 PUSH2 0x303 JUMP JUMPDEST DUP5 ADD SWAP2 POP POP SWAP3 SWAP2 POP POP JUMP JUMPDEST PUSH1 0x0 PUSH1 0x40 DUP3 ADD SWAP1 POP DUP2 DUP2 SUB PUSH1 0x0 DUP4 ADD MSTORE PUSH2 0x367 DUP2 DUP6 PUSH2 0x314 JUMP JUMPDEST SWAP1 POP DUP2 DUP2 SUB PUSH1 0x20 DUP4 ADD MSTORE PUSH2 0x37B DUP2 DUP5 PUSH2 0x314 JUMP JUMPDEST SWAP1 POP SWAP4 SWAP3 POP POP POP JUMP JUMPDEST PUSH1 0x0 PUSH1 0x40 MLOAD SWAP1 POP SWAP1 JUMP JUMPDEST PUSH1 0x0 DUP1 REVERT JUMPDEST PUSH1 0x0 DUP1 REVERT JUMPDEST PUSH1 0x0 DUP1 REVERT JUMPDEST PUSH1 0x0 DUP1 REVERT JUMPDEST PUSH32 0x4E487B7100000000000000000000000000000000000000000000000000000000 PUSH1 0x0 MSTORE PUSH1 0x41 PUSH1 0x4 MSTORE PUSH1 0x24 PUSH1 0x0 REVERT JUMPDEST PUSH2 0x3DA DUP3 PUSH2 0x303 JUMP JUMPDEST DUP2 ADD DUP2 DUP2 LT PUSH8 0xFFFFFFFFFFFFFFFF DUP3 GT OR ISZERO PUSH2 0x3F9 JUMPI PUSH2 0x3F8 PUSH2 0x3A2 JUMP JUMPDEST JUMPDEST DUP1 PUSH1 0x40 MSTORE POP POP POP JUMP JUMPDEST PUSH1 0x0 PUSH2 0x40C PUSH2 0x384 JUMP JUMPDEST SWAP1 POP PUSH2 0x418 DUP3 DUP3 PUSH2 0x3D1 JUMP JUMPDEST SWAP2 SWAP1 POP JUMP JUMPDEST PUSH1 0x0 PUSH8 0xFFFFFFFFFFFFFFFF DUP3 GT ISZERO PUSH2 0x438 JUMPI PUSH2 0x437 PUSH2 0x3A2 JUMP JUMPDEST JUMPDEST PUSH2 0x441 DUP3 PUSH2 0x303 JUMP JUMPDEST SWAP1 POP PUSH1 0x20 DUP2 ADD SWAP1 POP SWAP2 SWAP1 POP JUMP JUMPDEST DUP3 DUP2 DUP4 CALLDATACOPY PUSH1 0x0 DUP4 DUP4 ADD MSTORE POP POP POP JUMP JUMPDEST PUSH1 0x0 PUSH2 0x470 PUSH2 0x46B DUP5 PUSH2 0x41D JUMP JUMPDEST PUSH2 0x402 JUMP JUMPDEST SWAP1 POP DUP3 DUP2 MSTORE PUSH1 0x20 DUP2 ADD DUP5 DUP5 DUP5 ADD GT ISZERO PUSH2 0x48C JUMPI PUSH2 0x48B PUSH2 0x39D JUMP JUMPDEST JUMPDEST PUSH2 0x497 DUP5 DUP3 DUP6 PUSH2 0x44E JUMP JUMPDEST POP SWAP4 SWAP3 POP POP POP JUMP JUMPDEST PUSH1 0x0 DUP3 PUSH1 0x1F DUP4 ADD SLT PUSH2 0x4B4 JUMPI PUSH2 0x4B3 PUSH2 0x398 JUMP JUMPDEST JUMPDEST DUP2 CALLDATALOAD PUSH2 0x4C4 DUP5 DUP3 PUSH1 0x20 DUP7 ADD PUSH2 0x45D JUMP JUMPDEST SWAP2 POP POP SWAP3 SWAP2 POP POP JUMP JUMPDEST PUSH1 0x0 DUP1 PUSH1 0x40 DUP4 DUP6 SUB SLT ISZERO PUSH2 0x4E4 JUMPI PUSH2 0x4E3 PUSH2 0x38E JUMP JUMPDEST JUMPDEST PUSH1 0x0 DUP4 ADD CALLDATALOAD PUSH8 0xFFFFFFFFFFFFFFFF DUP2 GT ISZERO PUSH2 0x502 JUMPI PUSH2 0x501 PUSH2 0x393 JUMP JUMPDEST JUMPDEST PUSH2 0x50E DUP6 DUP3 DUP7 ADD PUSH2 0x49F JUMP JUMPDEST SWAP3 POP POP PUSH1 0x20 DUP4 ADD CALLDATALOAD PUSH8 0xFFFFFFFFFFFFFFFF DUP2 GT ISZERO PUSH2 0x52F JUMPI PUSH2 0x52E PUSH2 0x393 JUMP JUMPDEST JUMPDEST PUSH2 0x53B DUP6 DUP3 DUP7 ADD PUSH2 0x49F JUMP JUMPDEST SWAP2 POP POP SWAP3 POP SWAP3 SWAP1 POP JUMP JUMPDEST PUSH32 0x4E487B7100000000000000000000000000000000000000000000000000000000 PUSH1 0x0 MSTORE PUSH1 0x22 PUSH1 0x4 MSTORE PUSH1 0x24 PUSH1 0x0 REVERT JUMPDEST PUSH1 0x0 PUSH1 0x2 DUP3 DIV SWAP1 POP PUSH1 0x1 DUP3 AND DUP1 PUSH2 0x58C JUMPI PUSH1 0x7F DUP3 AND SWAP2 POP JUMPDEST PUSH1 0x20 DUP3 LT DUP2 SUB PUSH2 0x59F JUMPI PUSH2 0x59E PUSH2 0x545 JUMP JUMPDEST JUMPDEST POP SWAP2 SWAP1 POP JUMP JUMPDEST PUSH1 0x0 DUP2 SWAP1 POP DUP2 PUSH1 0x0 MSTORE PUSH1 0x20 PUSH1 0x0 KECCAK256 SWAP1 POP SWAP2 SWAP1 POP JUMP JUMPDEST PUSH1 0x0 PUSH1 0x20 PUSH1 0x1F DUP4 ADD DIV SWAP1 POP SWAP2 SWAP1 POP JUMP JUMPDEST PUSH1 0x0 DUP3 DUP3 SHL SWAP1 POP SWAP3 SWAP2 POP POP JUMP JUMPDEST PUSH1 0x0 PUSH1 0x8 DUP4 MUL PUSH2 0x607 PUSH32 0xFFFFFFFFFFFFFFFFFFFFFFFFFFFFFFFFFFFFFFFFFFFFFFFFFFFFFFFFFFFFFFFF DUP3 PUSH2 0x5CA JUMP JUMPDEST PUSH2 0x611 DUP7 DUP4 PUSH2 0x5CA JUMP JUMPDEST SWAP6 POP DUP1 NOT DUP5 AND SWAP4 POP DUP1 DUP7 AND DUP5 OR SWAP3 POP POP POP SWAP4 SWAP3 POP POP POP JUMP JUMPDEST PUSH1 0x0 DUP2 SWAP1 POP SWAP2 SWAP1 POP JUMP JUMPDEST PUSH1 0x0 DUP2 SWAP1 POP SWAP2 SWAP1 POP JUMP JUMPDEST PUSH1 0x0 PUSH2 0x658 PUSH2 0x653 PUSH2 0x64E DUP5 PUSH2 0x629 JUMP JUMPDEST PUSH2 0x633 JUMP JUMPDEST PUSH2 0x629 JUMP JUMPDEST SWAP1 POP SWAP2 SWAP1 POP JUMP JUMPDEST PUSH1 0x0 DUP2 SWAP1 POP SWAP2 SWAP1 POP JUMP JUMPDEST PUSH2 0x672 DUP4 PUSH2 0x63D JUMP JUMPDEST PUSH2 0x686 PUSH2 0x67E DUP3 PUSH2 0x65F JUMP JUMPDEST DUP5 DUP5 SLOAD PUSH2 0x5D7 JUMP JUMPDEST DUP3 SSTORE POP POP POP POP JUMP JUMPDEST PUSH1 0x0 SWAP1 JUMP JUMPDEST PUSH2 0x69B PUSH2 0x68E JUMP JUMPDEST PUSH2 0x6A6 DUP2 DUP5 DUP5 PUSH2 0x669 JUMP JUMPDEST POP POP POP JUMP JUMPDEST JUMPDEST DUP2 DUP2 LT ISZERO PUSH2 0x6CA JUMPI PUSH2 0x6BF PUSH1 0x0 DUP3 PUSH2 0x693 JUMP JUMPDEST PUSH1 0x1 DUP2 ADD SWAP1 POP PUSH2 0x6AC JUMP JUMPDEST POP POP JUMP JUMPDEST PUSH1 0x1F DUP3 GT ISZERO PUSH2 0x70F JUMPI PUSH2 0x6E0 DUP2 PUSH2 0x5A5 JUMP JUMPDEST PUSH2 0x6E9 DUP5 PUSH2 0x5BA JUMP JUMPDEST DUP2 ADD PUSH1 0x20 DUP6 LT ISZERO PUSH2 0x6F8 JUMPI DUP2 SWAP1 POP JUMPDEST PUSH2 0x70C PUSH2 0x704 DUP6 PUSH2 0x5BA JUMP JUMPDEST DUP4 ADD DUP3 PUSH2 0x6AB JUMP JUMPDEST POP POP JUMPDEST POP POP POP JUMP JUMPDEST PUSH1 0x0 DUP3 DUP3 SHR SWAP1 POP SWAP3 SWAP2 POP POP JUMP JUMPDEST PUSH1 0x0 PUSH2 0x732 PUSH1 0x0 NOT DUP5 PUSH1 0x8 MUL PUSH2 0x714 JUMP JUMPDEST NOT DUP1 DUP4 AND SWAP2 POP POP SWAP3 SWAP2 POP POP JUMP JUMPDEST PUSH1 0x0 PUSH2 0x74B DUP4 DUP4 PUSH2 0x721 JUMP JUMPDEST SWAP2 POP DUP3 PUSH1 0x2 MUL DUP3 OR SWAP1 POP SWAP3 SWAP2 POP POP JUMP JUMPDEST PUSH2 0x764 DUP3 PUSH2 0x2BD JUMP JUMPDEST PUSH8 0xFFFFFFFFFFFFFFFF DUP2 GT ISZERO PUSH2 0x77D JUMPI PUSH2 0x77C PUSH2 0x3A2 JUMP JUMPDEST JUMPDEST PUSH2 0x787 DUP3 SLOAD PUSH2 0x574 JUMP JUMPDEST PUSH2 0x792 DUP3 DUP3 DUP6 PUSH2 0x6CE JUMP JUMPDEST PUSH1 0x0 PUSH1 0x20 SWAP1 POP PUSH1 0x1F DUP4 GT PUSH1 0x1 DUP2 EQ PUSH2 0x7C5 JUMPI PUSH1 0x0 DUP5 ISZERO PUSH2 0x7B3 JUMPI DUP3 DUP8 ADD MLOAD SWAP1 POP JUMPDEST PUSH2 0x7BD DUP6 DUP3 PUSH2 0x73F JUMP JUMPDEST DUP7 SSTORE POP PUSH2 0x825 JUMP JUMPDEST PUSH1 0x1F NOT DUP5 AND PUSH2 0x7D3 DUP7 PUSH2 0x5A5 JUMP JUMPDEST PUSH1 0x0 JUMPDEST DUP3 DUP2 LT ISZERO PUSH2 0x7FB JUMPI DUP5 DUP10 ADD MLOAD DUP3 SSTORE PUSH1 0x1 DUP3 ADD SWAP2 POP PUSH1 0x20 DUP6 ADD SWAP5 POP PUSH1 0x20 DUP2 ADD SWAP1 POP PUSH2 0x7D6 JUMP JUMPDEST DUP7 DUP4 LT ISZERO PUSH2 0x818 JUMPI DUP5 DUP10 ADD MLOAD PUSH2 0x814 PUSH1 0x1F DUP10 AND DUP3 PUSH2 0x721 JUMP JUMPDEST DUP4 SSTORE POP JUMPDEST PUSH1 0x1 PUSH1 0x2 DUP9 MUL ADD DUP9 SSTORE POP POP POP JUMPDEST POP POP POP POP POP POP JUMP INVALID LOG2 PUSH5 0x6970667358 0x22 SLT KECCAK256 PUSH31 0xBBB56EBEF6EC4E4CC534EBA5CFE7DD3E8CF3BDB1DBCB8A8D2942EBE9D94DF9 PUSH5 0x736F6C6343 STOP ADDMOD SLT STOP CALLER "
				},
				"gasEstimates": {
					"creation": {
						"codeDepositCost": "429400",
						"executionCost": "468",
						"totalCost": "429868"
					},
					"external": {
						"createOrUpdate(string,string)": "infinite",
						"getStatus()": "infinite"
					}
				},
				"methodIdentifiers": {
					"createOrUpdate(string,string)": "d8fcc354",
					"getStatus()": "4e69d560"
				}
			},
			"storageLayout": {
				"storage": [
					{
						"astId": 11,
						"contract": "contracts/ProfileStatus.sol:ProfileStatus",
						"label": "userStatus",
						"offset": 0,
						"slot": "0",
						"type": "t_mapping(t_address,t_struct(Status)6_storage)"
					}
				],
				"types": {
					"t_address": {
						"encoding": "inplace",
						"label": "address",
						"numberOfBytes": "20"
					},
					"t_mapping(t_address,t_struct(Status)6_storage)": {
						"encoding": "mapping",
						"key": "t_address",
						"label": "mapping(address => struct ProfileStatus.Status)",
						"numberOfBytes": "32",
						"value": "t_struct(Status)6_storage"
					},
					"t_string_storage": {
						"encoding": "bytes",
						"label": "string",
						"numberOfBytes": "32"
					},
					"t_struct(Status)6_storage": {
						"encoding": "inplace",
						"label": "struct ProfileStatus.Status",
						"members": [
							{
								"astId": 3,
								"contract": "contracts/ProfileStatus.sol:ProfileStatus",
								"label": "name",
								"offset": 0,
								"slot": "0",
								"type": "t_string_storage"
							},
							{
								"astId": 5,
								"contract": "contracts/ProfileStatus.sol:ProfileStatus",
								"label": "message",
								"offset": 0,
								"slot": "1",
								"type": "t_string_storage"
							}
						],
						"numberOfBytes": "64"
					}
				}
			},
			"userdoc": {
				"kind": "user",
				"methods": {},
				"version": 1
			}
		}
	}
}