{
	"contracts/EventDemo.sol": {
		"EventDemo": {
			"abi": [
				{
					"inputs": [],
					"stateMutability": "nonpayable",
					"type": "constructor"
				},
				{
					"anonymous": false,
					"inputs": [
						{
							"indexed": true,
							"internalType": "address",
							"name": "user",
							"type": "address"
						},
						{
							"indexed": true,
							"internalType": "uint256",
							"name": "id",
							"type": "uint256"
						},
						{
							"indexed": false,
							"internalType": "string",
							"name": "data",
							"type": "string"
						},
						{
							"indexed": false,
							"internalType": "uint256",
							"name": "timestamp",
							"type": "uint256"
						}
					],
					"name": "DataUpdate",
					"type": "event"
				},
				{
					"anonymous": false,
					"inputs": [
						{
							"indexed": true,
							"internalType": "address",
							"name": "from",
							"type": "address"
						},
						{
							"indexed": true,
							"internalType": "address",
							"name": "to",
							"type": "address"
						},
						{
							"indexed": false,
							"internalType": "uint256",
							"name": "value",
							"type": "uint256"
						}
					],
					"name": "Transfer",
					"type": "event"
				},
				{
					"inputs": [
						{
							"internalType": "address",
							"name": "",
							"type": "address"
						}
					],
					"name": "balances",
					"outputs": [
						{
							"internalType": "uint256",
							"name": "",
							"type": "uint256"
						}
					],
					"stateMutability": "view",
					"type": "function"
				},
				{
					"inputs": [
						{
							"internalType": "address",
							"name": "to",
							"type": "address"
						},
						{
							"internalType": "uint256",
							"name": "amount",
							"type": "uint256"
						}
					],
					"name": "transfer",
					"outputs": [],
					"stateMutability": "nonpayable",
					"type": "function"
				},
				{
					"inputs": [
						{
							"internalType": "uint256",
							"name": "id",
							"type": "uint256"
						},
						{
							"internalType": "string",
							"name": "data",
							"type": "string"
						}
					],
					"name": "updateData",
					"outputs": [],
					"stateMutability": "nonpayable",
					"type": "function"
				}
			],
			"devdoc": {
				"kind": "dev",
				"methods": {},
				"version": 1
			},
			"evm": {
				"assembly": "    /* \"contracts/EventDemo.sol\":58:795  contract EventDemo {... */\n  mstore(0x40, 0x80)\n    /* \"contracts/EventDemo.sol\":315:373  constructor() {... */\n  callvalue\n  dup1\n  iszero\n  tag_1\n  jumpi\n  revert(0x00, 0x00)\ntag_1:\n  pop\n    /* \"contracts/EventDemo.sol\":362:366  1000 */\n  0x03e8\n    /* \"contracts/EventDemo.sol\":339:347  balances */\n  0x00\n    /* \"contracts/EventDemo.sol\":339:359  balances[msg.sender] */\n  0x00\n    /* \"contracts/EventDemo.sol\":348:358  msg.sender */\n  caller\n    /* \"contracts/EventDemo.sol\":339:359  balances[msg.sender] */\n  0xffffffffffffffffffffffffffffffffffffffff\n  and\n  0xffffffffffffffffffffffffffffffffffffffff\n  and\n  dup2\n  mstore\n  0x20\n  add\n  swap1\n  dup2\n  mstore\n  0x20\n  add\n  0x00\n  keccak256\n    /* \"contracts/EventDemo.sol\":339:366  balances[msg.sender] = 1000 */\n  dup2\n  swap1\n  sstore\n  pop\n    /* \"contracts/EventDemo.sol\":58:795  contract EventDemo {... */\n  dataSize(sub_0)\n  dup1\n  dataOffset(sub_0)\n  0x00\n  codecopy\n  0x00\n  return\nstop\n\nsub_0: assembly {\n        /* \"contracts/EventDemo.sol\":58:795  contract EventDemo {... */\n      mstore(0x40, 0x80)\n      callvalue\n      dup1\n      iszero\n      tag_1\n      jumpi\n      revert(0x00, 0x00)\n    tag_1:\n      pop\n      jumpi(tag_2, lt(calldatasize, 0x04))\n      shr(0xe0, calldataload(0x00))\n      dup1\n      0x27e235e3\n      eq\n      tag_3\n      jumpi\n      dup1\n      0x89a8e2a7\n      eq\n      tag_4\n      jumpi\n      dup1\n      0xa9059cbb\n      eq\n      tag_5\n      jumpi\n    tag_2:\n      revert(0x00, 0x00)\n        /* \"contracts/EventDemo.sol\":261:304  mapping(address => uint256) public balances */\n    tag_3:\n      tag_6\n      0x04\n      dup1\n      calldatasize\n      sub\n      dup2\n      add\n      swap1\n      tag_7\n      swap2\n      swap1\n      tag_8\n      jump\t// in\n    tag_7:\n      tag_9\n      jump\t// in\n    tag_6:\n      mload(0x40)\n      tag_10\n      swap2\n      swap1\n      tag_11\n      jump\t// in\n    tag_10:\n      mload(0x40)\n      dup1\n      swap2\n      sub\n      swap1\n      return\n        /* \"contracts/EventDemo.sol\":663:793  function updateData(uint256 id, string memory data) public {... */\n    tag_4:\n      tag_12\n      0x04\n      dup1\n      calldatasize\n      sub\n      dup2\n      add\n      swap1\n      tag_13\n      swap2\n      swap1\n      tag_14\n      jump\t// in\n    tag_13:\n      tag_15\n      jump\t// in\n    tag_12:\n      stop\n        /* \"contracts/EventDemo.sol\":383:653  function transfer(address to, uint256 amount) public {... */\n    tag_5:\n      tag_16\n      0x04\n      dup1\n      calldatasize\n      sub\n      dup2\n      add\n      swap1\n      tag_17\n      swap2\n      swap1\n      tag_18\n      jump\t// in\n    tag_17:\n      tag_19\n      jump\t// in\n    tag_16:\n      stop\n        /* \"contracts/EventDemo.sol\":261:304  mapping(address => uint256) public balances */\n    tag_9:\n      mstore(0x20, 0x00)\n      dup1\n      0x00\n      mstore\n      keccak256(0x00, 0x40)\n      0x00\n      swap2\n      pop\n      swap1\n      pop\n      sload\n      dup2\n      jump\t// out\n        /* \"contracts/EventDemo.sol\":663:793  function updateData(uint256 id, string memory data) public {... */\n    tag_15:\n        /* \"contracts/EventDemo.sol\":760:762  id */\n      dup2\n        /* \"contracts/EventDemo.sol\":748:758  msg.sender */\n      caller\n        /* \"contracts/EventDemo.sol\":737:786  DataUpdate(msg.sender, id, data, block.timestamp) */\n      0xffffffffffffffffffffffffffffffffffffffff\n      and\n      0x86348e585cf127b993ca25b5c96bd5c45407ffbbed52fa6d7f59984bdc1ddc2f\n        /* \"contracts/EventDemo.sol\":764:768  data */\n      dup4\n        /* \"contracts/EventDemo.sol\":770:785  block.timestamp */\n      timestamp\n        /* \"contracts/EventDemo.sol\":737:786  DataUpdate(msg.sender, id, data, block.timestamp) */\n      mload(0x40)\n      tag_21\n      swap3\n      swap2\n      swap1\n      tag_22\n      jump\t// in\n    tag_21:\n      mload(0x40)\n      dup1\n      swap2\n      sub\n      swap1\n      log3\n        /* \"contracts/EventDemo.sol\":663:793  function updateData(uint256 id, string memory data) public {... */\n      pop\n      pop\n      jump\t// out\n        /* \"contracts/EventDemo.sol\":383:653  function transfer(address to, uint256 amount) public {... */\n    tag_19:\n        /* \"contracts/EventDemo.sol\":478:484  amount */\n      dup1\n        /* \"contracts/EventDemo.sol\":454:462  balances */\n      0x00\n        /* \"contracts/EventDemo.sol\":454:474  balances[msg.sender] */\n      0x00\n        /* \"contracts/EventDemo.sol\":463:473  msg.sender */\n      caller\n        /* \"contracts/EventDemo.sol\":454:474  balances[msg.sender] */\n      0xffffffffffffffffffffffffffffffffffffffff\n      and\n      0xffffffffffffffffffffffffffffffffffffffff\n      and\n      dup2\n      mstore\n      0x20\n      add\n      swap1\n      dup2\n      mstore\n      0x20\n      add\n      0x00\n      keccak256\n      sload\n        /* \"contracts/EventDemo.sol\":454:484  balances[msg.sender] >= amount */\n      lt\n      iszero\n        /* \"contracts/EventDemo.sol\":446:509  require(balances[msg.sender] >= amount, \"Insufficient balance\") */\n      tag_24\n      jumpi\n      mload(0x40)\n      0x08c379a000000000000000000000000000000000000000000000000000000000\n      dup2\n      mstore\n      0x04\n      add\n      tag_25\n      swap1\n      tag_26\n      jump\t// in\n    tag_25:\n      mload(0x40)\n      dup1\n      swap2\n      sub\n      swap1\n      revert\n    tag_24:\n        /* \"contracts/EventDemo.sol\":552:558  amount */\n      dup1\n        /* \"contracts/EventDemo.sol\":528:536  balances */\n      0x00\n        /* \"contracts/EventDemo.sol\":528:548  balances[msg.sender] */\n      0x00\n        /* \"contracts/EventDemo.sol\":537:547  msg.sender */\n      caller\n        /* \"contracts/EventDemo.sol\":528:548  balances[msg.sender] */\n      0xffffffffffffffffffffffffffffffffffffffff\n      and\n      0xffffffffffffffffffffffffffffffffffffffff\n      and\n      dup2\n      mstore\n      0x20\n      add\n      swap1\n      dup2\n      mstore\n      0x20\n      add\n      0x00\n      keccak256\n      0x00\n        /* \"contracts/EventDemo.sol\":528:558  balances[msg.sender] -= amount */\n      dup3\n      dup3\n      sload\n      tag_27\n      swap2\n      swap1\n      tag_28\n      jump\t// in\n    tag_27:\n      swap3\n      pop\n      pop\n      dup2\n      swap1\n      sstore\n      pop\n        /* \"contracts/EventDemo.sol\":584:590  amount */\n      dup1\n        /* \"contracts/EventDemo.sol\":568:576  balances */\n      0x00\n        /* \"contracts/EventDemo.sol\":568:580  balances[to] */\n      0x00\n        /* \"contracts/EventDemo.sol\":577:579  to */\n      dup5\n        /* \"contracts/EventDemo.sol\":568:580  balances[to] */\n      0xffffffffffffffffffffffffffffffffffffffff\n      and\n      0xffffffffffffffffffffffffffffffffffffffff\n      and\n      dup2\n      mstore\n      0x20\n      add\n      swap1\n      dup2\n      mstore\n      0x20\n      add\n      0x00\n      keccak256\n      0x00\n        /* \"contracts/EventDemo.sol\":568:590  balances[to] += amount */\n      dup3\n      dup3\n      sload\n      tag_29\n      swap2\n      swap1\n      tag_30\n      jump\t// in\n    tag_29:\n      swap3\n      pop\n      pop\n      dup2\n      swap1\n      sstore\n      pop\n        /* \"contracts/EventDemo.sol\":635:637  to */\n      dup2\n        /* \"contracts/EventDemo.sol\":614:646  Transfer(msg.sender, to, amount) */\n      0xffffffffffffffffffffffffffffffffffffffff\n      and\n        /* \"contracts/EventDemo.sol\":623:633  msg.sender */\n      caller\n        /* \"contracts/EventDemo.sol\":614:646  Transfer(msg.sender, to, amount) */\n      0xffffffffffffffffffffffffffffffffffffffff\n      and\n      0xddf252ad1be2c89b69c2b068fc378daa952ba7f163c4a11628f55a4df523b3ef\n        /* \"contracts/EventDemo.sol\":639:645  amount */\n      dup4\n        /* \"contracts/EventDemo.sol\":614:646  Transfer(msg.sender, to, amount) */\n      mload(0x40)\n      tag_31\n      swap2\n      swap1\n      tag_11\n      jump\t// in\n    tag_31:\n      mload(0x40)\n      dup1\n      swap2\n      sub\n      swap1\n      log3\n        /* \"contracts/EventDemo.sol\":383:653  function transfer(address to, uint256 amount) public {... */\n      pop\n      pop\n      jump\t// out\n        /* \"#utility.yul\":7:82   */\n    tag_32:\n        /* \"#utility.yul\":40:46   */\n      0x00\n        /* \"#utility.yul\":73:75   */\n      0x40\n        /* \"#utility.yul\":67:76   */\n      mload\n        /* \"#utility.yul\":57:76   */\n      swap1\n      pop\n        /* \"#utility.yul\":7:82   */\n      swap1\n      jump\t// out\n        /* \"#utility.yul\":88:205   */\n    tag_33:\n        /* \"#utility.yul\":197:198   */\n      0x00\n        /* \"#utility.yul\":194:195   */\n      0x00\n        /* \"#utility.yul\":187:199   */\n      revert\n        /* \"#utility.yul\":211:328   */\n    tag_34:\n        /* \"#utility.yul\":320:321   */\n      0x00\n        /* \"#utility.yul\":317:318   */\n      0x00\n        /* \"#utility.yul\":310:322   */\n      revert\n        /* \"#utility.yul\":334:460   */\n    tag_35:\n        /* \"#utility.yul\":371:378   */\n      0x00\n        /* \"#utility.yul\":411:453   */\n      0xffffffffffffffffffffffffffffffffffffffff\n        /* \"#utility.yul\":404:409   */\n      dup3\n        /* \"#utility.yul\":400:454   */\n      and\n        /* \"#utility.yul\":389:454   */\n      swap1\n      pop\n        /* \"#utility.yul\":334:460   */\n      swap2\n      swap1\n      pop\n      jump\t// out\n        /* \"#utility.yul\":466:562   */\n    tag_36:\n        /* \"#utility.yul\":503:510   */\n      0x00\n        /* \"#utility.yul\":532:556   */\n      tag_66\n        /* \"#utility.yul\":550:555   */\n      dup3\n        /* \"#utility.yul\":532:556   */\n      tag_35\n      jump\t// in\n    tag_66:\n        /* \"#utility.yul\":521:556   */\n      swap1\n      pop\n        /* \"#utility.yul\":466:562   */\n      swap2\n      swap1\n      pop\n      jump\t// out\n        /* \"#utility.yul\":568:690   */\n    tag_37:\n        /* \"#utility.yul\":641:665   */\n      tag_68\n        /* \"#utility.yul\":659:664   */\n      dup2\n        /* \"#utility.yul\":641:665   */\n      tag_36\n      jump\t// in\n    tag_68:\n        /* \"#utility.yul\":634:639   */\n      dup2\n        /* \"#utility.yul\":631:666   */\n      eq\n        /* \"#utility.yul\":621:684   */\n      tag_69\n      jumpi\n        /* \"#utility.yul\":680:681   */\n      0x00\n        /* \"#utility.yul\":677:678   */\n      0x00\n        /* \"#utility.yul\":670:682   */\n      revert\n        /* \"#utility.yul\":621:684   */\n    tag_69:\n        /* \"#utility.yul\":568:690   */\n      pop\n      jump\t// out\n        /* \"#utility.yul\":696:835   */\n    tag_38:\n        /* \"#utility.yul\":742:747   */\n      0x00\n        /* \"#utility.yul\":780:786   */\n      dup2\n        /* \"#utility.yul\":767:787   */\n      calldataload\n        /* \"#utility.yul\":758:787   */\n      swap1\n      pop\n        /* \"#utility.yul\":796:829   */\n      tag_71\n        /* \"#utility.yul\":823:828   */\n      dup2\n        /* \"#utility.yul\":796:829   */\n      tag_37\n      jump\t// in\n    tag_71:\n        /* \"#utility.yul\":696:835   */\n      swap3\n      swap2\n      pop\n      pop\n      jump\t// out\n        /* \"#utility.yul\":841:1170   */\n    tag_8:\n        /* \"#utility.yul\":900:906   */\n      0x00\n        /* \"#utility.yul\":949:951   */\n      0x20\n        /* \"#utility.yul\":937:946   */\n      dup3\n        /* \"#utility.yul\":928:935   */\n      dup5\n        /* \"#utility.yul\":924:947   */\n      sub\n        /* \"#utility.yul\":920:952   */\n      slt\n        /* \"#utility.yul\":917:1036   */\n      iszero\n      tag_73\n      jumpi\n        /* \"#utility.yul\":955:1034   */\n      tag_74\n      tag_33\n      jump\t// in\n    tag_74:\n        /* \"#utility.yul\":917:1036   */\n    tag_73:\n        /* \"#utility.yul\":1075:1076   */\n      0x00\n        /* \"#utility.yul\":1100:1153   */\n      tag_75\n        /* \"#utility.yul\":1145:1152   */\n      dup5\n        /* \"#utility.yul\":1136:1142   */\n      dup3\n        /* \"#utility.yul\":1125:1134   */\n      dup6\n        /* \"#utility.yul\":1121:1143   */\n      add\n        /* \"#utility.yul\":1100:1153   */\n      tag_38\n      jump\t// in\n    tag_75:\n        /* \"#utility.yul\":1090:1153   */\n      swap2\n      pop\n        /* \"#utility.yul\":1046:1163   */\n      pop\n        /* \"#utility.yul\":841:1170   */\n      swap3\n      swap2\n      pop\n      pop\n      jump\t// out\n        /* \"#utility.yul\":1176:1253   */\n    tag_39:\n        /* \"#utility.yul\":1213:1220   */\n      0x00\n        /* \"#utility.yul\":1242:1247   */\n      dup2\n        /* \"#utility.yul\":1231:1247   */\n      swap1\n      pop\n        /* \"#utility.yul\":1176:1253   */\n      swap2\n      swap1\n      pop\n      jump\t// out\n        /* \"#utility.yul\":1259:1377   */\n    tag_40:\n        /* \"#utility.yul\":1346:1370   */\n      tag_78\n        /* \"#utility.yul\":1364:1369   */\n      dup2\n        /* \"#utility.yul\":1346:1370   */\n      tag_39\n      jump\t// in\n    tag_78:\n        /* \"#utility.yul\":1341:1344   */\n      dup3\n        /* \"#utility.yul\":1334:1371   */\n      mstore\n        /* \"#utility.yul\":1259:1377   */\n      pop\n      pop\n      jump\t// out\n        /* \"#utility.yul\":1383:1605   */\n    tag_11:\n        /* \"#utility.yul\":1476:1480   */\n      0x00\n        /* \"#utility.yul\":1514:1516   */\n      0x20\n        /* \"#utility.yul\":1503:1512   */\n      dup3\n        /* \"#utility.yul\":1499:1517   */\n      add\n        /* \"#utility.yul\":1491:1517   */\n      swap1\n      pop\n        /* \"#utility.yul\":1527:1598   */\n      tag_80\n        /* \"#utility.yul\":1595:1596   */\n      0x00\n        /* \"#utility.yul\":1584:1593   */\n      dup4\n        /* \"#utility.yul\":1580:1597   */\n      add\n        /* \"#utility.yul\":1571:1577   */\n      dup5\n        /* \"#utility.yul\":1527:1598   */\n      tag_40\n      jump\t// in\n    tag_80:\n        /* \"#utility.yul\":1383:1605   */\n      swap3\n      swap2\n      pop\n      pop\n      jump\t// out\n        /* \"#utility.yul\":1611:1733   */\n    tag_41:\n        /* \"#utility.yul\":1684:1708   */\n      tag_82\n        /* \"#utility.yul\":1702:1707   */\n      dup2\n        /* \"#utility.yul\":1684:1708   */\n      tag_39\n      jump\t// in\n    tag_82:\n        /* \"#utility.yul\":1677:1682   */\n      dup2\n        /* \"#utility.yul\":1674:1709   */\n      eq\n        /* \"#utility.yul\":1664:1727   */\n      tag_83\n      jumpi\n        /* \"#utility.yul\":1723:1724   */\n      0x00\n        /* \"#utility.yul\":1720:1721   */\n      0x00\n        /* \"#utility.yul\":1713:1725   */\n      revert\n        /* \"#utility.yul\":1664:1727   */\n    tag_83:\n        /* \"#utility.yul\":1611:1733   */\n      pop\n      jump\t// out\n        /* \"#utility.yul\":1739:1878   */\n    tag_42:\n        /* \"#utility.yul\":1785:1790   */\n      0x00\n        /* \"#utility.yul\":1823:1829   */\n      dup2\n        /* \"#utility.yul\":1810:1830   */\n      calldataload\n        /* \"#utility.yul\":1801:1830   */\n      swap1\n      pop\n        /* \"#utility.yul\":1839:1872   */\n      tag_85\n        /* \"#utility.yul\":1866:1871   */\n      dup2\n        /* \"#utility.yul\":1839:1872   */\n      tag_41\n      jump\t// in\n    tag_85:\n        /* \"#utility.yul\":1739:1878   */\n      swap3\n      swap2\n      pop\n      pop\n      jump\t// out\n        /* \"#utility.yul\":1884:2001   */\n    tag_43:\n        /* \"#utility.yul\":1993:1994   */\n      0x00\n        /* \"#utility.yul\":1990:1991   */\n      0x00\n        /* \"#utility.yul\":1983:1995   */\n      revert\n        /* \"#utility.yul\":2007:2124   */\n    tag_44:\n        /* \"#utility.yul\":2116:2117   */\n      0x00\n        /* \"#utility.yul\":2113:2114   */\n      0x00\n        /* \"#utility.yul\":2106:2118   */\n      revert\n        /* \"#utility.yul\":2130:2232   */\n    tag_45:\n        /* \"#utility.yul\":2171:2177   */\n      0x00\n        /* \"#utility.yul\":2222:2224   */\n      0x1f\n        /* \"#utility.yul\":2218:2225   */\n      not\n        /* \"#utility.yul\":2213:2215   */\n      0x1f\n        /* \"#utility.yul\":2206:2211   */\n      dup4\n        /* \"#utility.yul\":2202:2216   */\n      add\n        /* \"#utility.yul\":2198:2226   */\n      and\n        /* \"#utility.yul\":2188:2226   */\n      swap1\n      pop\n        /* \"#utility.yul\":2130:2232   */\n      swap2\n      swap1\n      pop\n      jump\t// out\n        /* \"#utility.yul\":2238:2418   */\n    tag_46:\n        /* \"#utility.yul\":2286:2363   */\n      0x4e487b7100000000000000000000000000000000000000000000000000000000\n        /* \"#utility.yul\":2283:2284   */\n      0x00\n        /* \"#utility.yul\":2276:2364   */\n      mstore\n        /* \"#utility.yul\":2383:2387   */\n      0x41\n        /* \"#utility.yul\":2380:2381   */\n      0x04\n        /* \"#utility.yul\":2373:2388   */\n      mstore\n        /* \"#utility.yul\":2407:2411   */\n      0x24\n        /* \"#utility.yul\":2404:2405   */\n      0x00\n        /* \"#utility.yul\":2397:2412   */\n      revert\n        /* \"#utility.yul\":2424:2705   */\n    tag_47:\n        /* \"#utility.yul\":2507:2534   */\n      tag_91\n        /* \"#utility.yul\":2529:2533   */\n      dup3\n        /* \"#utility.yul\":2507:2534   */\n      tag_45\n      jump\t// in\n    tag_91:\n        /* \"#utility.yul\":2499:2505   */\n      dup2\n        /* \"#utility.yul\":2495:2535   */\n      add\n        /* \"#utility.yul\":2637:2643   */\n      dup2\n        /* \"#utility.yul\":2625:2635   */\n      dup2\n        /* \"#utility.yul\":2622:2644   */\n      lt\n        /* \"#utility.yul\":2601:2619   */\n      0xffffffffffffffff\n        /* \"#utility.yul\":2589:2599   */\n      dup3\n        /* \"#utility.yul\":2586:2620   */\n      gt\n        /* \"#utility.yul\":2583:2645   */\n      or\n        /* \"#utility.yul\":2580:2668   */\n      iszero\n      tag_92\n      jumpi\n        /* \"#utility.yul\":2648:2666   */\n      tag_93\n      tag_46\n      jump\t// in\n    tag_93:\n        /* \"#utility.yul\":2580:2668   */\n    tag_92:\n        /* \"#utility.yul\":2688:2698   */\n      dup1\n        /* \"#utility.yul\":2684:2686   */\n      0x40\n        /* \"#utility.yul\":2677:2699   */\n      mstore\n        /* \"#utility.yul\":2467:2705   */\n      pop\n        /* \"#utility.yul\":2424:2705   */\n      pop\n      pop\n      jump\t// out\n        /* \"#utility.yul\":2711:2840   */\n    tag_48:\n        /* \"#utility.yul\":2745:2751   */\n      0x00\n        /* \"#utility.yul\":2772:2792   */\n      tag_95\n      tag_32\n      jump\t// in\n    tag_95:\n        /* \"#utility.yul\":2762:2792   */\n      swap1\n      pop\n        /* \"#utility.yul\":2801:2834   */\n      tag_96\n        /* \"#utility.yul\":2829:2833   */\n      dup3\n        /* \"#utility.yul\":2821:2827   */\n      dup3\n        /* \"#utility.yul\":2801:2834   */\n      tag_47\n      jump\t// in\n    tag_96:\n        /* \"#utility.yul\":2711:2840   */\n      swap2\n      swap1\n      pop\n      jump\t// out\n        /* \"#utility.yul\":2846:3154   */\n    tag_49:\n        /* \"#utility.yul\":2908:2912   */\n      0x00\n        /* \"#utility.yul\":2998:3016   */\n      0xffffffffffffffff\n        /* \"#utility.yul\":2990:2996   */\n      dup3\n        /* \"#utility.yul\":2987:3017   */\n      gt\n        /* \"#utility.yul\":2984:3040   */\n      iszero\n      tag_98\n      jumpi\n        /* \"#utility.yul\":3020:3038   */\n      tag_99\n      tag_46\n      jump\t// in\n    tag_99:\n        /* \"#utility.yul\":2984:3040   */\n    tag_98:\n        /* \"#utility.yul\":3058:3087   */\n      tag_100\n        /* \"#utility.yul\":3080:3086   */\n      dup3\n        /* \"#utility.yul\":3058:3087   */\n      tag_45\n      jump\t// in\n    tag_100:\n        /* \"#utility.yul\":3050:3087   */\n      swap1\n      pop\n        /* \"#utility.yul\":3142:3146   */\n      0x20\n        /* \"#utility.yul\":3136:3140   */\n      dup2\n        /* \"#utility.yul\":3132:3147   */\n      add\n        /* \"#utility.yul\":3124:3147   */\n      swap1\n      pop\n        /* \"#utility.yul\":2846:3154   */\n      swap2\n      swap1\n      pop\n      jump\t// out\n        /* \"#utility.yul\":3160:3308   */\n    tag_50:\n        /* \"#utility.yul\":3258:3264   */\n      dup3\n        /* \"#utility.yul\":3253:3256   */\n      dup2\n        /* \"#utility.yul\":3248:3251   */\n      dup4\n        /* \"#utility.yul\":3235:3265   */\n      calldatacopy\n        /* \"#utility.yul\":3299:3300   */\n      0x00\n        /* \"#utility.yul\":3290:3296   */\n      dup4\n        /* \"#utility.yul\":3285:3288   */\n      dup4\n        /* \"#utility.yul\":3281:3297   */\n      add\n        /* \"#utility.yul\":3274:3301   */\n      mstore\n        /* \"#utility.yul\":3160:3308   */\n      pop\n      pop\n      pop\n      jump\t// out\n        /* \"#utility.yul\":3314:3739   */\n    tag_51:\n        /* \"#utility.yul\":3392:3397   */\n      0x00\n        /* \"#utility.yul\":3417:3483   */\n      tag_103\n        /* \"#utility.yul\":3433:3482   */\n      tag_104\n        /* \"#utility.yul\":3475:3481   */\n      dup5\n        /* \"#utility.yul\":3433:3482   */\n      tag_49\n      jump\t// in\n    tag_104:\n        /* \"#utility.yul\":3417:3483   */\n      tag_48\n      jump\t// in\n    tag_103:\n        /* \"#utility.yul\":3408:3483   */\n      swap1\n      pop\n        /* \"#utility.yul\":3506:3512   */\n      dup3\n        /* \"#utility.yul\":3499:3504   */\n      dup2\n        /* \"#utility.yul\":3492:3513   */\n      mstore\n        /* \"#utility.yul\":3544:3548   */\n      0x20\n        /* \"#utility.yul\":3537:3542   */\n      dup2\n        /* \"#utility.yul\":3533:3549   */\n      add\n        /* \"#utility.yul\":3582:3585   */\n      dup5\n        /* \"#utility.yul\":3573:3579   */\n      dup5\n        /* \"#utility.yul\":3568:3571   */\n      dup5\n        /* \"#utility.yul\":3564:3580   */\n      add\n        /* \"#utility.yul\":3561:3586   */\n      gt\n        /* \"#utility.yul\":3558:3670   */\n      iszero\n      tag_105\n      jumpi\n        /* \"#utility.yul\":3589:3668   */\n      tag_106\n      tag_44\n      jump\t// in\n    tag_106:\n        /* \"#utility.yul\":3558:3670   */\n    tag_105:\n        /* \"#utility.yul\":3679:3733   */\n      tag_107\n        /* \"#utility.yul\":3726:3732   */\n      dup5\n        /* \"#utility.yul\":3721:3724   */\n      dup3\n        /* \"#utility.yul\":3716:3719   */\n      dup6\n        /* \"#utility.yul\":3679:3733   */\n      tag_50\n      jump\t// in\n    tag_107:\n        /* \"#utility.yul\":3398:3739   */\n      pop\n        /* \"#utility.yul\":3314:3739   */\n      swap4\n      swap3\n      pop\n      pop\n      pop\n      jump\t// out\n        /* \"#utility.yul\":3759:4099   */\n    tag_52:\n        /* \"#utility.yul\":3815:3820   */\n      0x00\n        /* \"#utility.yul\":3864:3867   */\n      dup3\n        /* \"#utility.yul\":3857:3861   */\n      0x1f\n        /* \"#utility.yul\":3849:3855   */\n      dup4\n        /* \"#utility.yul\":3845:3862   */\n      add\n        /* \"#utility.yul\":3841:3868   */\n      slt\n        /* \"#utility.yul\":3831:3953   */\n      tag_109\n      jumpi\n        /* \"#utility.yul\":3872:3951   */\n      tag_110\n      tag_43\n      jump\t// in\n    tag_110:\n        /* \"#utility.yul\":3831:3953   */\n    tag_109:\n        /* \"#utility.yul\":3989:3995   */\n      dup2\n        /* \"#utility.yul\":3976:3996   */\n      calldataload\n        /* \"#utility.yul\":4014:4093   */\n      tag_111\n        /* \"#utility.yul\":4089:4092   */\n      dup5\n        /* \"#utility.yul\":4081:4087   */\n      dup3\n        /* \"#utility.yul\":4074:4078   */\n      0x20\n        /* \"#utility.yul\":4066:4072   */\n      dup7\n        /* \"#utility.yul\":4062:4079   */\n      add\n        /* \"#utility.yul\":4014:4093   */\n      tag_51\n      jump\t// in\n    tag_111:\n        /* \"#utility.yul\":4005:4093   */\n      swap2\n      pop\n        /* \"#utility.yul\":3821:4099   */\n      pop\n        /* \"#utility.yul\":3759:4099   */\n      swap3\n      swap2\n      pop\n      pop\n      jump\t// out\n        /* \"#utility.yul\":4105:4759   */\n    tag_14:\n        /* \"#utility.yul\":4183:4189   */\n      0x00\n        /* \"#utility.yul\":4191:4197   */\n      0x00\n        /* \"#utility.yul\":4240:4242   */\n      0x40\n        /* \"#utility.yul\":4228:4237   */\n      dup4\n        /* \"#utility.yul\":4219:4226   */\n      dup6\n        /* \"#utility.yul\":4215:4238   */\n      sub\n        /* \"#utility.yul\":4211:4243   */\n      slt\n        /* \"#utility.yul\":4208:4327   */\n      iszero\n      tag_113\n      jumpi\n        /* \"#utility.yul\":4246:4325   */\n      tag_114\n      tag_33\n      jump\t// in\n    tag_114:\n        /* \"#utility.yul\":4208:4327   */\n    tag_113:\n        /* \"#utility.yul\":4366:4367   */\n      0x00\n        /* \"#utility.yul\":4391:4444   */\n      tag_115\n        /* \"#utility.yul\":4436:4443   */\n      dup6\n        /* \"#utility.yul\":4427:4433   */\n      dup3\n        /* \"#utility.yul\":4416:4425   */\n      dup7\n        /* \"#utility.yul\":4412:4434   */\n      add\n        /* \"#utility.yul\":4391:4444   */\n      tag_42\n      jump\t// in\n    tag_115:\n        /* \"#utility.yul\":4381:4444   */\n      swap3\n      pop\n        /* \"#utility.yul\":4337:4454   */\n      pop\n        /* \"#utility.yul\":4521:4523   */\n      0x20\n        /* \"#utility.yul\":4510:4519   */\n      dup4\n        /* \"#utility.yul\":4506:4524   */\n      add\n        /* \"#utility.yul\":4493:4525   */\n      calldataload\n        /* \"#utility.yul\":4552:4570   */\n      0xffffffffffffffff\n        /* \"#utility.yul\":4544:4550   */\n      dup2\n        /* \"#utility.yul\":4541:4571   */\n      gt\n        /* \"#utility.yul\":4538:4655   */\n      iszero\n      tag_116\n      jumpi\n        /* \"#utility.yul\":4574:4653   */\n      tag_117\n      tag_34\n      jump\t// in\n    tag_117:\n        /* \"#utility.yul\":4538:4655   */\n    tag_116:\n        /* \"#utility.yul\":4679:4742   */\n      tag_118\n        /* \"#utility.yul\":4734:4741   */\n      dup6\n        /* \"#utility.yul\":4725:4731   */\n      dup3\n        /* \"#utility.yul\":4714:4723   */\n      dup7\n        /* \"#utility.yul\":4710:4732   */\n      add\n        /* \"#utility.yul\":4679:4742   */\n      tag_52\n      jump\t// in\n    tag_118:\n        /* \"#utility.yul\":4669:4742   */\n      swap2\n      pop\n        /* \"#utility.yul\":4464:4752   */\n      pop\n        /* \"#utility.yul\":4105:4759   */\n      swap3\n      pop\n      swap3\n      swap1\n      pop\n      jump\t// out\n        /* \"#utility.yul\":4765:5239   */\n    tag_18:\n        /* \"#utility.yul\":4833:4839   */\n      0x00\n        /* \"#utility.yul\":4841:4847   */\n      0x00\n        /* \"#utility.yul\":4890:4892   */\n      0x40\n        /* \"#utility.yul\":4878:4887   */\n      dup4\n        /* \"#utility.yul\":4869:4876   */\n      dup6\n        /* \"#utility.yul\":4865:4888   */\n      sub\n        /* \"#utility.yul\":4861:4893   */\n      slt\n        /* \"#utility.yul\":4858:4977   */\n      iszero\n      tag_120\n      jumpi\n        /* \"#utility.yul\":4896:4975   */\n      tag_121\n      tag_33\n      jump\t// in\n    tag_121:\n        /* \"#utility.yul\":4858:4977   */\n    tag_120:\n        /* \"#utility.yul\":5016:5017   */\n      0x00\n        /* \"#utility.yul\":5041:5094   */\n      tag_122\n        /* \"#utility.yul\":5086:5093   */\n      dup6\n        /* \"#utility.yul\":5077:5083   */\n      dup3\n        /* \"#utility.yul\":5066:5075   */\n      dup7\n        /* \"#utility.yul\":5062:5084   */\n      add\n        /* \"#utility.yul\":5041:5094   */\n      tag_38\n      jump\t// in\n    tag_122:\n        /* \"#utility.yul\":5031:5094   */\n      swap3\n      pop\n        /* \"#utility.yul\":4987:5104   */\n      pop\n        /* \"#utility.yul\":5143:5145   */\n      0x20\n        /* \"#utility.yul\":5169:5222   */\n      tag_123\n        /* \"#utility.yul\":5214:5221   */\n      dup6\n        /* \"#utility.yul\":5205:5211   */\n      dup3\n        /* \"#utility.yul\":5194:5203   */\n      dup7\n        /* \"#utility.yul\":5190:5212   */\n      add\n        /* \"#utility.yul\":5169:5222   */\n      tag_42\n      jump\t// in\n    tag_123:\n        /* \"#utility.yul\":5159:5222   */\n      swap2\n      pop\n        /* \"#utility.yul\":5114:5232   */\n      pop\n        /* \"#utility.yul\":4765:5239   */\n      swap3\n      pop\n      swap3\n      swap1\n      pop\n      jump\t// out\n        /* \"#utility.yul\":5245:5344   */\n    tag_53:\n        /* \"#utility.yul\":5297:5303   */\n      0x00\n        /* \"#utility.yul\":5331:5336   */\n      dup2\n        /* \"#utility.yul\":5325:5337   */\n      mload\n        /* \"#utility.yul\":5315:5337   */\n      swap1\n      pop\n        /* \"#utility.yul\":5245:5344   */\n      swap2\n      swap1\n      pop\n      jump\t// out\n        /* \"#utility.yul\":5350:5519   */\n    tag_54:\n        /* \"#utility.yul\":5434:5445   */\n      0x00\n        /* \"#utility.yul\":5468:5474   */\n      dup3\n        /* \"#utility.yul\":5463:5466   */\n      dup3\n        /* \"#utility.yul\":5456:5475   */\n      mstore\n        /* \"#utility.yul\":5508:5512   */\n      0x20\n        /* \"#utility.yul\":5503:5506   */\n      dup3\n        /* \"#utility.yul\":5499:5513   */\n      add\n        /* \"#utility.yul\":5484:5513   */\n      swap1\n      pop\n        /* \"#utility.yul\":5350:5519   */\n      swap3\n      swap2\n      pop\n      pop\n      jump\t// out\n        /* \"#utility.yul\":5525:5664   */\n    tag_55:\n        /* \"#utility.yul\":5614:5620   */\n      dup3\n        /* \"#utility.yul\":5609:5612   */\n      dup2\n        /* \"#utility.yul\":5604:5607   */\n      dup4\n        /* \"#utility.yul\":5598:5621   */\n      mcopy\n        /* \"#utility.yul\":5655:5656   */\n      0x00\n        /* \"#utility.yul\":5646:5652   */\n      dup4\n        /* \"#utility.yul\":5641:5644   */\n      dup4\n        /* \"#utility.yul\":5637:5653   */\n      add\n        /* \"#utility.yul\":5630:5657   */\n      mstore\n        /* \"#utility.yul\":5525:5664   */\n      pop\n      pop\n      pop\n      jump\t// out\n        /* \"#utility.yul\":5670:6047   */\n    tag_56:\n        /* \"#utility.yul\":5758:5761   */\n      0x00\n        /* \"#utility.yul\":5786:5825   */\n      tag_128\n        /* \"#utility.yul\":5819:5824   */\n      dup3\n        /* \"#utility.yul\":5786:5825   */\n      tag_53\n      jump\t// in\n    tag_128:\n        /* \"#utility.yul\":5841:5912   */\n      tag_129\n        /* \"#utility.yul\":5905:5911   */\n      dup2\n        /* \"#utility.yul\":5900:5903   */\n      dup6\n        /* \"#utility.yul\":5841:5912   */\n      tag_54\n      jump\t// in\n    tag_129:\n        /* \"#utility.yul\":5834:5912   */\n      swap4\n      pop\n        /* \"#utility.yul\":5921:5986   */\n      tag_130\n        /* \"#utility.yul\":5979:5985   */\n      dup2\n        /* \"#utility.yul\":5974:5977   */\n      dup6\n        /* \"#utility.yul\":5967:5971   */\n      0x20\n        /* \"#utility.yul\":5960:5965   */\n      dup7\n        /* \"#utility.yul\":5956:5972   */\n      add\n        /* \"#utility.yul\":5921:5986   */\n      tag_55\n      jump\t// in\n    tag_130:\n        /* \"#utility.yul\":6011:6040   */\n      tag_131\n        /* \"#utility.yul\":6033:6039   */\n      dup2\n        /* \"#utility.yul\":6011:6040   */\n      tag_45\n      jump\t// in\n    tag_131:\n        /* \"#utility.yul\":6006:6009   */\n      dup5\n        /* \"#utility.yul\":6002:6041   */\n      add\n        /* \"#utility.yul\":5995:6041   */\n      swap2\n      pop\n        /* \"#utility.yul\":5762:6047   */\n      pop\n        /* \"#utility.yul\":5670:6047   */\n      swap3\n      swap2\n      pop\n      pop\n      jump\t// out\n        /* \"#utility.yul\":6053:6476   */\n    tag_22:\n        /* \"#utility.yul\":6194:6198   */\n      0x00\n        /* \"#utility.yul\":6232:6234   */\n      0x40\n        /* \"#utility.yul\":6221:6230   */\n      dup3\n        /* \"#utility.yul\":6217:6235   */\n      add\n        /* \"#utility.yul\":6209:6235   */\n      swap1\n      pop\n        /* \"#utility.yul\":6281:6290   */\n      dup2\n        /* \"#utility.yul\":6275:6279   */\n      dup2\n        /* \"#utility.yul\":6271:6291   */\n      sub\n        /* \"#utility.yul\":6267:6268   */\n      0x00\n        /* \"#utility.yul\":6256:6265   */\n      dup4\n        /* \"#utility.yul\":6252:6269   */\n      add\n        /* \"#utility.yul\":6245:6292   */\n      mstore\n        /* \"#utility.yul\":6309:6387   */\n      tag_133\n        /* \"#utility.yul\":6382:6386   */\n      dup2\n        /* \"#utility.yul\":6373:6379   */\n      dup6\n        /* \"#utility.yul\":6309:6387   */\n      tag_56\n      jump\t// in\n    tag_133:\n        /* \"#utility.yul\":6301:6387   */\n      swap1\n      pop\n        /* \"#utility.yul\":6397:6469   */\n      tag_134\n        /* \"#utility.yul\":6465:6467   */\n      0x20\n        /* \"#utility.yul\":6454:6463   */\n      dup4\n        /* \"#utility.yul\":6450:6468   */\n      add\n        /* \"#utility.yul\":6441:6447   */\n      dup5\n        /* \"#utility.yul\":6397:6469   */\n      tag_40\n      jump\t// in\n    tag_134:\n        /* \"#utility.yul\":6053:6476   */\n      swap4\n      swap3\n      pop\n      pop\n      pop\n      jump\t// out\n        /* \"#utility.yul\":6482:6652   */\n    tag_57:\n        /* \"#utility.yul\":6622:6644   */\n      0x496e73756666696369656e742062616c616e6365000000000000000000000000\n        /* \"#utility.yul\":6618:6619   */\n      0x00\n        /* \"#utility.yul\":6610:6616   */\n      dup3\n        /* \"#utility.yul\":6606:6620   */\n      add\n        /* \"#utility.yul\":6599:6645   */\n      mstore\n        /* \"#utility.yul\":6482:6652   */\n      pop\n      jump\t// out\n        /* \"#utility.yul\":6658:7024   */\n    tag_58:\n        /* \"#utility.yul\":6800:6803   */\n      0x00\n        /* \"#utility.yul\":6821:6888   */\n      tag_137\n        /* \"#utility.yul\":6885:6887   */\n      0x14\n        /* \"#utility.yul\":6880:6883   */\n      dup4\n        /* \"#utility.yul\":6821:6888   */\n      tag_54\n      jump\t// in\n    tag_137:\n        /* \"#utility.yul\":6814:6888   */\n      swap2\n      pop\n        /* \"#utility.yul\":6897:6990   */\n      tag_138\n        /* \"#utility.yul\":6986:6989   */\n      dup3\n        /* \"#utility.yul\":6897:6990   */\n      tag_57\n      jump\t// in\n    tag_138:\n        /* \"#utility.yul\":7015:7017   */\n      0x20\n        /* \"#utility.yul\":7010:7013   */\n      dup3\n        /* \"#utility.yul\":7006:7018   */\n      add\n        /* \"#utility.yul\":6999:7018   */\n      swap1\n      pop\n        /* \"#utility.yul\":6658:7024   */\n      swap2\n      swap1\n      pop\n      jump\t// out\n        /* \"#utility.yul\":7030:7449   */\n    tag_26:\n        /* \"#utility.yul\":7196:7200   */\n      0x00\n        /* \"#utility.yul\":7234:7236   */\n      0x20\n        /* \"#utility.yul\":7223:7232   */\n      dup3\n        /* \"#utility.yul\":7219:7237   */\n      add\n        /* \"#utility.yul\":7211:7237   */\n      swap1\n      pop\n        /* \"#utility.yul\":7283:7292   */\n      dup2\n        /* \"#utility.yul\":7277:7281   */\n      dup2\n        /* \"#utility.yul\":7273:7293   */\n      sub\n        /* \"#utility.yul\":7269:7270   */\n      0x00\n        /* \"#utility.yul\":7258:7267   */\n      dup4\n        /* \"#utility.yul\":7254:7271   */\n      add\n        /* \"#utility.yul\":7247:7294   */\n      mstore\n        /* \"#utility.yul\":7311:7442   */\n      tag_140\n        /* \"#utility.yul\":7437:7441   */\n      dup2\n        /* \"#utility.yul\":7311:7442   */\n      tag_58\n      jump\t// in\n    tag_140:\n        /* \"#utility.yul\":7303:7442   */\n      swap1\n      pop\n        /* \"#utility.yul\":7030:7449   */\n      swap2\n      swap1\n      pop\n      jump\t// out\n        /* \"#utility.yul\":7455:7635   */\n    tag_59:\n        /* \"#utility.yul\":7503:7580   */\n      0x4e487b7100000000000000000000000000000000000000000000000000000000\n        /* \"#utility.yul\":7500:7501   */\n      0x00\n        /* \"#utility.yul\":7493:7581   */\n      mstore\n        /* \"#utility.yul\":7600:7604   */\n      0x11\n        /* \"#utility.yul\":7597:7598   */\n      0x04\n        /* \"#utility.yul\":7590:7605   */\n      mstore\n        /* \"#utility.yul\":7624:7628   */\n      0x24\n        /* \"#utility.yul\":7621:7622   */\n      0x00\n        /* \"#utility.yul\":7614:7629   */\n      revert\n        /* \"#utility.yul\":7641:7835   */\n    tag_28:\n        /* \"#utility.yul\":7681:7685   */\n      0x00\n        /* \"#utility.yul\":7701:7721   */\n      tag_143\n        /* \"#utility.yul\":7719:7720   */\n      dup3\n        /* \"#utility.yul\":7701:7721   */\n      tag_39\n      jump\t// in\n    tag_143:\n        /* \"#utility.yul\":7696:7721   */\n      swap2\n      pop\n        /* \"#utility.yul\":7735:7755   */\n      tag_144\n        /* \"#utility.yul\":7753:7754   */\n      dup4\n        /* \"#utility.yul\":7735:7755   */\n      tag_39\n      jump\t// in\n    tag_144:\n        /* \"#utility.yul\":7730:7755   */\n      swap3\n      pop\n        /* \"#utility.yul\":7779:7780   */\n      dup3\n        /* \"#utility.yul\":7776:7777   */\n      dup3\n        /* \"#utility.yul\":7772:7781   */\n      sub\n        /* \"#utility.yul\":7764:7781   */\n      swap1\n      pop\n        /* \"#utility.yul\":7803:7804   */\n      dup2\n        /* \"#utility.yul\":7797:7801   */\n      dup2\n        /* \"#utility.yul\":7794:7805   */\n      gt\n        /* \"#utility.yul\":7791:7828   */\n      iszero\n      tag_145\n      jumpi\n        /* \"#utility.yul\":7808:7826   */\n      tag_146\n      tag_59\n      jump\t// in\n    tag_146:\n        /* \"#utility.yul\":7791:7828   */\n    tag_145:\n        /* \"#utility.yul\":7641:7835   */\n      swap3\n      swap2\n      pop\n      pop\n      jump\t// out\n        /* \"#utility.yul\":7841:8032   */\n    tag_30:\n        /* \"#utility.yul\":7881:7884   */\n      0x00\n        /* \"#utility.yul\":7900:7920   */\n      tag_148\n        /* \"#utility.yul\":7918:7919   */\n      dup3\n        /* \"#utility.yul\":7900:7920   */\n      tag_39\n      jump\t// in\n    tag_148:\n        /* \"#utility.yul\":7895:7920   */\n      swap2\n      pop\n        /* \"#utility.yul\":7934:7954   */\n      tag_149\n        /* \"#utility.yul\":7952:7953   */\n      dup4\n        /* \"#utility.yul\":7934:7954   */\n      tag_39\n      jump\t// in\n    tag_149:\n        /* \"#utility.yul\":7929:7954   */\n      swap3\n      pop\n        /* \"#utility.yul\":7977:7978   */\n      dup3\n        /* \"#utility.yul\":7974:7975   */\n      dup3\n        /* \"#utility.yul\":7970:7979   */\n      add\n        /* \"#utility.yul\":7963:7979   */\n      swap1\n      pop\n        /* \"#utility.yul\":7998:8001   */\n      dup1\n        /* \"#utility.yul\":7995:7996   */\n      dup3\n        /* \"#utility.yul\":7992:8002   */\n      gt\n        /* \"#utility.yul\":7989:8025   */\n      iszero\n      tag_150\n      jumpi\n        /* \"#utility.yul\":8005:8023   */\n      tag_151\n      tag_59\n      jump\t// in\n    tag_151:\n        /* \"#utility.yul\":7989:8025   */\n    tag_150:\n        /* \"#utility.yul\":7841:8032   */\n      swap3\n      swap2\n      pop\n      pop\n      jump\t// out\n\n    auxdata: 0xa2646970667358221220988c458e024f94db2984a13238b7a2459cb32624e1a4821afcfb7e7d704415e164736f6c63430008230033\n}\n",
				"bytecode": {
					"linkReferences": {},
					"object": "6080604052348015600e575f5ffd5b506103e85f5f3373ffffffffffffffffffffffffffffffffffffffff1673ffffffffffffffffffffffffffffffffffffffff1681526020019081526020015f20819055506107248061005f5f395ff3fe608060405234801561000f575f5ffd5b506004361061003f575f3560e01c806327e235e31461004357806389a8e2a714610073578063a9059cbb1461008f575b5f5ffd5b61005d6004803603810190610058919061030b565b6100ab565b60405161006a919061034e565b60405180910390f35b61008d600480360381019061008891906104cd565b6100bf565b005b6100a960048036038101906100a49190610527565b610114565b005b5f602052805f5260405f205f915090505481565b813373ffffffffffffffffffffffffffffffffffffffff167f86348e585cf127b993ca25b5c96bd5c45407ffbbed52fa6d7f59984bdc1ddc2f83426040516101089291906105c5565b60405180910390a35050565b805f5f3373ffffffffffffffffffffffffffffffffffffffff1673ffffffffffffffffffffffffffffffffffffffff1681526020019081526020015f20541015610193576040517f08c379a000000000000000000000000000000000000000000000000000000000815260040161018a9061063d565b60405180910390fd5b805f5f3373ffffffffffffffffffffffffffffffffffffffff1673ffffffffffffffffffffffffffffffffffffffff1681526020019081526020015f205f8282546101de9190610688565b92505081905550805f5f8473ffffffffffffffffffffffffffffffffffffffff1673ffffffffffffffffffffffffffffffffffffffff1681526020019081526020015f205f82825461023091906106bb565b925050819055508173ffffffffffffffffffffffffffffffffffffffff163373ffffffffffffffffffffffffffffffffffffffff167fddf252ad1be2c89b69c2b068fc378daa952ba7f163c4a11628f55a4df523b3ef83604051610294919061034e565b60405180910390a35050565b5f604051905090565b5f5ffd5b5f5ffd5b5f73ffffffffffffffffffffffffffffffffffffffff82169050919050565b5f6102da826102b1565b9050919050565b6102ea816102d0565b81146102f4575f5ffd5b50565b5f81359050610305816102e1565b92915050565b5f602082840312156103205761031f6102a9565b5b5f61032d848285016102f7565b91505092915050565b5f819050919050565b61034881610336565b82525050565b5f6020820190506103615f83018461033f565b92915050565b61037081610336565b811461037a575f5ffd5b50565b5f8135905061038b81610367565b92915050565b5f5ffd5b5f5ffd5b5f601f19601f8301169050919050565b7f4e487b71000000000000000000000000000000000000000000000000000000005f52604160045260245ffd5b6103df82610399565b810181811067ffffffffffffffff821117156103fe576103fd6103a9565b5b80604052505050565b5f6104106102a0565b905061041c82826103d6565b919050565b5f67ffffffffffffffff82111561043b5761043a6103a9565b5b61044482610399565b9050602081019050919050565b828183375f83830152505050565b5f61047161046c84610421565b610407565b90508281526020810184848401111561048d5761048c610395565b5b610498848285610451565b509392505050565b5f82601f8301126104b4576104b3610391565b5b81356104c484826020860161045f565b91505092915050565b5f5f604083850312156104e3576104e26102a9565b5b5f6104f08582860161037d565b925050602083013567ffffffffffffffff811115610511576105106102ad565b5b61051d858286016104a0565b9150509250929050565b5f5f6040838503121561053d5761053c6102a9565b5b5f61054a858286016102f7565b925050602061055b8582860161037d565b9150509250929050565b5f81519050919050565b5f82825260208201905092915050565b8281835e5f83830152505050565b5f61059782610565565b6105a1818561056f565b93506105b181856020860161057f565b6105ba81610399565b840191505092915050565b5f6040820190508181035f8301526105dd818561058d565b90506105ec602083018461033f565b9392505050565b7f496e73756666696369656e742062616c616e63650000000000000000000000005f82015250565b5f61062760148361056f565b9150610632826105f3565b602082019050919050565b5f6020820190508181035f8301526106548161061b565b9050919050565b7f4e487b71000000000000000000000000000000000000000000000000000000005f52601160045260245ffd5b5f61069282610336565b915061069d83610336565b92508282039050818111156106b5576106b461065b565b5b92915050565b5f6106c582610336565b91506106d083610336565b92508282019050808211156106e8576106e761065b565b5b9291505056fea2646970667358221220988c458e024f94db2984a13238b7a2459cb32624e1a4821afcfb7e7d704415e164736f6c63430008230033",
					"opcodes": "PUSH1 0x80 PUSH1 0x40 MSTORE CALLVALUE DUP1 ISZERO PUSH1 0xE JUMPI PUSH0 PUSH0 REVERT JUMPDEST POP PUSH2 0x3E8 PUSH0 PUSH0 CALLER PUSH20 0xFFFFFFFFFFFFFFFFFFFFFFFFFFFFFFFFFFFFFFFF AND PUSH20 0xFFFFFFFFFFFFFFFFFFFFFFFFFFFFFFFFFFFFFFFF AND DUP2 MSTORE PUSH1 0x20 ADD SWAP1 DUP2 MSTORE PUSH1 0x20 ADD PUSH0 KECCAK256 DUP2 SWAP1 SSTORE POP PUSH2 0x724 DUP1 PUSH2 0x5F PUSH0 CODECOPY PUSH0 RETURN INVALID PUSH1 0x80 PUSH1 0x40 MSTORE CALLVALUE DUP1 ISZERO PUSH2 0xF JUMPI PUSH0 PUSH0 REVERT JUMPDEST POP PUSH1 0x4 CALLDATASIZE LT PUSH2 0x3F JUMPI PUSH0 CALLDATALOAD PUSH1 0xE0 SHR DUP1 PUSH4 0x27E235E3 EQ PUSH2 0x43 JUMPI DUP1 PUSH4 0x89A8E2A7 EQ PUSH2 0x73 JUMPI DUP1 PUSH4 0xA9059CBB EQ PUSH2 0x8F JUMPI JUMPDEST PUSH0 PUSH0 REVERT JUMPDEST PUSH2 0x5D PUSH1 0x4 DUP1 CALLDATASIZE SUB DUP2 ADD SWAP1 PUSH2 0x58 SWAP2 SWAP1 PUSH2 0x30B JUMP JUMPDEST PUSH2 0xAB JUMP JUMPDEST PUSH1 0x40 MLOAD PUSH2 0x6A SWAP2 SWAP1 PUSH2 0x34E JUMP JUMPDEST PUSH1 0x40 MLOAD DUP1 SWAP2 SUB SWAP1 RETURN JUMPDEST PUSH2 0x8D PUSH1 0x4 DUP1 CALLDATASIZE SUB DUP2 ADD SWAP1 PUSH2 0x88 SWAP2 SWAP1 PUSH2 0x4CD JUMP JUMPDEST PUSH2 0xBF JUMP JUMPDEST STOP JUMPDEST PUSH2 0xA9 PUSH1 0x4 DUP1 CALLDATASIZE SUB DUP2 ADD SWAP1 PUSH2 0xA4 SWAP2 SWAP1 PUSH2 0x527 JUMP JUMPDEST PUSH2 0x114 JUMP JUMPDEST STOP JUMPDEST PUSH0 PUSH1 0x20 MSTORE DUP1 PUSH0 MSTORE PUSH1 0x40 PUSH0 KECCAK256 PUSH0 SWAP2 POP SWAP1 POP SLOAD DUP2 JUMP JUMPDEST DUP2 CALLER PUSH20 0xFFFFFFFFFFFFFFFFFFFFFFFFFFFFFFFFFFFFFFFF AND PUSH32 0x86348E585CF127B993CA25B5C96BD5C45407FFBBED52FA6D7F59984BDC1DDC2F DUP4 TIMESTAMP PUSH1 0x40 MLOAD PUSH2 0x108 SWAP3 SWAP2 SWAP1 PUSH2 0x5C5 JUMP JUMPDEST PUSH1 0x40 MLOAD DUP1 SWAP2 SUB SWAP1 LOG3 POP POP JUMP JUMPDEST DUP1 PUSH0 PUSH0 CALLER PUSH20 0xFFFFFFFFFFFFFFFFFFFFFFFFFFFFFFFFFFFFFFFF AND PUSH20 0xFFFFFFFFFFFFFFFFFFFFFFFFFFFFFFFFFFFFFFFF AND DUP2 MSTORE PUSH1 0x20 ADD SWAP1 DUP2 MSTORE PUSH1 0x20 ADD PUSH0 KECCAK256 SLOAD LT ISZERO PUSH2 0x193 JUMPI PUSH1 0x40 MLOAD PUSH32 0x8C379A000000000000000000000000000000000000000000000000000000000 DUP2 MSTORE PUSH1 0x4 ADD PUSH2 0x18A SWAP1 PUSH2 0x63D JUMP JUMPDEST PUSH1 0x40 MLOAD DUP1 SWAP2 SUB SWAP1 REVERT JUMPDEST DUP1 PUSH0 PUSH0 CALLER PUSH20 0xFFFFFFFFFFFFFFFFFFFFFFFFFFFFFFFFFFFFFFFF AND PUSH20 0xFFFFFFFFFFFFFFFFFFFFFFFFFFFFFFFFFFFFFFFF AND DUP2 MSTORE PUSH1 0x20 ADD SWAP1 DUP2 MSTORE PUSH1 0x20 ADD PUSH0 KECCAK256 PUSH0 DUP3 DUP3 SLOAD PUSH2 0x1DE SWAP2 SWAP1 PUSH2 0x688 JUMP JUMPDEST SWAP3 POP POP DUP2 SWAP1 SSTORE POP DUP1 PUSH0 PUSH0 DUP5 PUSH20 0xFFFFFFFFFFFFFFFFFFFFFFFFFFFFFFFFFFFFFFFF AND PUSH20 0xFFFFFFFFFFFFFFFFFFFFFFFFFFFFFFFFFFFFFFFF AND DUP2 MSTORE PUSH1 0x20 ADD SWAP1 DUP2 MSTORE PUSH1 0x20 ADD PUSH0 KECCAK256 PUSH0 DUP3 DUP3 SLOAD PUSH2 0x230 SWAP2 SWAP1 PUSH2 0x6BB JUMP JUMPDEST SWAP3 POP POP DUP2 SWAP1 SSTORE POP DUP2 PUSH20 0xFFFFFFFFFFFFFFFFFFFFFFFFFFFFFFFFFFFFFFFF AND CALLER PUSH20 0xFFFFFFFFFFFFFFFFFFFFFFFFFFFFFFFFFFFFFFFF AND PUSH32 0xDDF252AD1BE2C89B69C2B068FC378DAA952BA7F163C4A11628F55A4DF523B3EF DUP4 PUSH1 0x40 MLOAD PUSH2 0x294 SWAP2 SWAP1 PUSH2 0x34E JUMP JUMPDEST PUSH1 0x40 MLOAD DUP1 SWAP2 SUB SWAP1 LOG3 POP POP JUMP JUMPDEST PUSH0 PUSH1 0x40 MLOAD SWAP1 POP SWAP1 JUMP JUMPDEST PUSH0 PUSH0 REVERT JUMPDEST PUSH0 PUSH0 REVERT JUMPDEST PUSH0 PUSH20 0xFFFFFFFFFFFFFFFFFFFFFFFFFFFFFFFFFFFFFFFF DUP3 AND SWAP1 POP SWAP2 SWAP1 POP JUMP JUMPDEST PUSH0 PUSH2 0x2DA DUP3 PUSH2 0x2B1 JUMP JUMPDEST SWAP1 POP SWAP2 SWAP1 POP JUMP JUMPDEST PUSH2 0x2EA DUP2 PUSH2 0x2D0 JUMP JUMPDEST DUP2 EQ PUSH2 0x2F4 JUMPI PUSH0 PUSH0 REVERT JUMPDEST POP JUMP JUMPDEST PUSH0 DUP2 CALLDATALOAD SWAP1 POP PUSH2 0x305 DUP2 PUSH2 0x2E1 JUMP JUMPDEST SWAP3 SWAP2 POP POP JUMP JUMPDEST PUSH0 PUSH1 0x20 DUP3 DUP5 SUB SLT ISZERO PUSH2 0x320 JUMPI PUSH2 0x31F PUSH2 0x2A9 JUMP JUMPDEST JUMPDEST PUSH0 PUSH2 0x32D DUP5 DUP3 DUP6 ADD PUSH2 0x2F7 JUMP JUMPDEST SWAP2 POP POP SWAP3 SWAP2 POP POP JUMP JUMPDEST PUSH0 DUP2 SWAP1 POP SWAP2 SWAP1 POP JUMP JUMPDEST PUSH2 0x348 DUP2 PUSH2 0x336 JUMP JUMPDEST DUP3 MSTORE POP POP JUMP JUMPDEST PUSH0 PUSH1 0x20 DUP3 ADD SWAP1 POP PUSH2 0x361 PUSH0 DUP4 ADD DUP5 PUSH2 0x33F JUMP JUMPDEST SWAP3 SWAP2 POP POP JUMP JUMPDEST PUSH2 0x370 DUP2 PUSH2 0x336 JUMP JUMPDEST DUP2 EQ PUSH2 0x37A JUMPI PUSH0 PUSH0 REVERT JUMPDEST POP JUMP JUMPDEST PUSH0 DUP2 CALLDATALOAD SWAP1 POP PUSH2 0x38B DUP2 PUSH2 0x367 JUMP JUMPDEST SWAP3 SWAP2 POP POP JUMP JUMPDEST PUSH0 PUSH0 REVERT JUMPDEST PUSH0 PUSH0 REVERT JUMPDEST PUSH0 PUSH1 0x1F NOT PUSH1 0x1F DUP4 ADD AND SWAP1 POP SWAP2 SWAP1 POP JUMP JUMPDEST PUSH32 0x4E487B7100000000000000000000000000000000000000000000000000000000 PUSH0 MSTORE PUSH1 0x41 PUSH1 0x4 MSTORE PUSH1 0x24 PUSH0 REVERT JUMPDEST PUSH2 0x3DF DUP3 PUSH2 0x399 JUMP JUMPDEST DUP2 ADD DUP2 DUP2 LT PUSH8 0xFFFFFFFFFFFFFFFF DUP3 GT OR ISZERO PUSH2 0x3FE JUMPI PUSH2 0x3FD PUSH2 0x3A9 JUMP JUMPDEST JUMPDEST DUP1 PUSH1 0x40 MSTORE POP POP POP JUMP JUMPDEST PUSH0 PUSH2 0x410 PUSH2 0x2A0 JUMP JUMPDEST SWAP1 POP PUSH2 0x41C DUP3 DUP3 PUSH2 0x3D6 JUMP JUMPDEST SWAP2 SWAP1 POP JUMP JUMPDEST PUSH0 PUSH8 0xFFFFFFFFFFFFFFFF DUP3 GT ISZERO PUSH2 0x43B JUMPI PUSH2 0x43A PUSH2 0x3A9 JUMP JUMPDEST JUMPDEST PUSH2 0x444 DUP3 PUSH2 0x399 JUMP JUMPDEST SWAP1 POP PUSH1 0x20 DUP2 ADD SWAP1 POP SWAP2 SWAP1 POP JUMP JUMPDEST DUP3 DUP2 DUP4 CALLDATACOPY PUSH0 DUP4 DUP4 ADD MSTORE POP POP POP JUMP JUMPDEST PUSH0 PUSH2 0x471 PUSH2 0x46C DUP5 PUSH2 0x421 JUMP JUMPDEST PUSH2 0x407 JUMP JUMPDEST SWAP1 POP DUP3 DUP2 MSTORE PUSH1 0x20 DUP2 ADD DUP5 DUP5 DUP5 ADD GT ISZERO PUSH2 0x48D JUMPI PUSH2 0x48C PUSH2 0x395 JUMP JUMPDEST JUMPDEST PUSH2 0x498 DUP5 DUP3 DUP6 PUSH2 0x451 JUMP JUMPDEST POP SWAP4 SWAP3 POP POP POP JUMP JUMPDEST PUSH0 DUP3 PUSH1 0x1F DUP4 ADD SLT PUSH2 0x4B4 JUMPI PUSH2 0x4B3 PUSH2 0x391 JUMP JUMPDEST JUMPDEST DUP2 CALLDATALOAD PUSH2 0x4C4 DUP5 DUP3 PUSH1 0x20 DUP7 ADD PUSH2 0x45F JUMP JUMPDEST SWAP2 POP POP SWAP3 SWAP2 POP POP JUMP JUMPDEST PUSH0 PUSH0 PUSH1 0x40 DUP4 DUP6 SUB SLT ISZERO PUSH2 0x4E3 JUMPI PUSH2 0x4E2 PUSH2 0x2A9 JUMP JUMPDEST JUMPDEST PUSH0 PUSH2 0x4F0 DUP6 DUP3 DUP7 ADD PUSH2 0x37D JUMP JUMPDEST SWAP3 POP POP PUSH1 0x20 DUP4 ADD CALLDATALOAD PUSH8 0xFFFFFFFFFFFFFFFF DUP2 GT ISZERO PUSH2 0x511 JUMPI PUSH2 0x510 PUSH2 0x2AD JUMP JUMPDEST JUMPDEST PUSH2 0x51D DUP6 DUP3 DUP7 ADD PUSH2 0x4A0 JUMP JUMPDEST SWAP2 POP POP SWAP3 POP SWAP3 SWAP1 POP JUMP JUMPDEST PUSH0 PUSH0 PUSH1 0x40 DUP4 DUP6 SUB SLT ISZERO PUSH2 0x53D JUMPI PUSH2 0x53C PUSH2 0x2A9 JUMP JUMPDEST JUMPDEST PUSH0 PUSH2 0x54A DUP6 DUP3 DUP7 ADD PUSH2 0x2F7 JUMP JUMPDEST SWAP3 POP POP PUSH1 0x20 PUSH2 0x55B DUP6 DUP3 DUP7 ADD PUSH2 0x37D JUMP JUMPDEST SWAP2 POP POP SWAP3 POP SWAP3 SWAP1 POP JUMP JUMPDEST PUSH0 DUP2 MLOAD SWAP1 POP SWAP2 SWAP1 POP JUMP JUMPDEST PUSH0 DUP3 DUP3 MSTORE PUSH1 0x20 DUP3 ADD SWAP1 POP SWAP3 SWAP2 POP POP JUMP JUMPDEST DUP3 DUP2 DUP4 MCOPY PUSH0 DUP4 DUP4 ADD MSTORE POP POP POP JUMP JUMPDEST PUSH0 PUSH2 0x597 DUP3 PUSH2 0x565 JUMP JUMPDEST PUSH2 0x5A1 DUP2 DUP6 PUSH2 0x56F JUMP JUMPDEST SWAP4 POP PUSH2 0x5B1 DUP2 DUP6 PUSH1 0x20 DUP7 ADD PUSH2 0x57F JUMP JUMPDEST PUSH2 0x5BA DUP2 PUSH2 0x399 JUMP JUMPDEST DUP5 ADD SWAP2 POP POP SWAP3 SWAP2 POP POP JUMP JUMPDEST PUSH0 PUSH1 0x40 DUP3 ADD SWAP1 POP DUP2 DUP2 SUB PUSH0 DUP4 ADD MSTORE PUSH2 0x5DD DUP2 DUP6 PUSH2 0x58D JUMP JUMPDEST SWAP1 POP PUSH2 0x5EC PUSH1 0x20 DUP4 ADD DUP5 PUSH2 0x33F JUMP JUMPDEST SWAP4 SWAP3 POP POP POP JUMP JUMPDEST PUSH32 0x496E73756666696369656E742062616C616E6365000000000000000000000000 PUSH0 DUP3 ADD MSTORE POP JUMP JUMPDEST PUSH0 PUSH2 0x627 PUSH1 0x14 DUP4 PUSH2 0x56F JUMP JUMPDEST SWAP2 POP PUSH2 0x632 DUP3 PUSH2 0x5F3 JUMP JUMPDEST PUSH1 0x20 DUP3 ADD SWAP1 POP SWAP2 SWAP1 POP JUMP JUMPDEST PUSH0 PUSH1 0x20 DUP3 ADD SWAP1 POP DUP2 DUP2 SUB PUSH0 DUP4 ADD MSTORE PUSH2 0x654 DUP2 PUSH2 0x61B JUMP JUMPDEST SWAP1 POP SWAP2 SWAP1 POP JUMP JUMPDEST PUSH32 0x4E487B7100000000000000000000000000000000000000000000000000000000 PUSH0 MSTORE PUSH1 0x11 PUSH1 0x4 MSTORE PUSH1 0x24 PUSH0 REVERT JUMPDEST PUSH0 PUSH2 0x692 DUP3 PUSH2 0x336 JUMP JUMPDEST SWAP2 POP PUSH2 0x69D DUP4 PUSH2 0x336 JUMP JUMPDEST SWAP3 POP DUP3 DUP3 SUB SWAP1 POP DUP2 DUP2 GT ISZERO PUSH2 0x6B5 JUMPI PUSH2 0x6B4 PUSH2 0x65B JUMP JUMPDEST JUMPDEST SWAP3 SWAP2 POP POP JUMP JUMPDEST PUSH0 PUSH2 0x6C5 DUP3 PUSH2 0x336 JUMP JUMPDEST SWAP2 POP PUSH2 0x6D0 DUP4 PUSH2 0x336 JUMP JUMPDEST SWAP3 POP DUP3 DUP3 ADD SWAP1 POP DUP1 DUP3 GT ISZERO PUSH2 0x6E8 JUMPI PUSH2 0x6E7 PUSH2 0x65B JUMP JUMPDEST JUMPDEST SWAP3 SWAP2 POP POP JUMP INVALID LOG2 PUSH5 0x6970667358 0x22 SLT KECCAK256 SWAP9 DUP13 GASLIMIT DUP15 MUL 0x4F SWAP5 0xDB 0x29 DUP5 LOG1 ORIGIN CODESIZE 0xB7 LOG2 GASLIMIT SWAP13 0xB3 0x26 0x24 RJUMPI 0xA482 BYTE 0xFC EXTSTATICCALL PUSH31 0x7D704415E164736F6C63430008230033000000000000000000000000000000 "
				},
				"gasEstimates": {
					"creation": {
						"codeDepositCost": "365600",
						"executionCost": "22603",
						"totalCost": "388203"
					},
					"external": {
						"balances(address)": "2779",
						"transfer(address,uint256)": "infinite",
						"updateData(uint256,string)": "infinite"
					}
				},
				"methodIdentifiers": {
					"balances(address)": "27e235e3",
					"transfer(address,uint256)": "a9059cbb",
					"updateData(uint256,string)": "89a8e2a7"
				}
			},
			"storageLayout": {
				"storage": [
					{
						"astId": 23,
						"contract": "contracts/EventDemo.sol:EventDemo",
						"label": "balances",
						"offset": 0,
						"slot": "0",
						"type": "t_mapping(t_address,t_uint256)"
					}
				],
				"types": {
					"t_address": {
						"encoding": "inplace",
						"label": "address",
						"numberOfBytes": "20"
					},
					"t_mapping(t_address,t_uint256)": {
						"encoding": "mapping",
						"key": "t_address",
						"label": "mapping(address => uint256)",
						"numberOfBytes": "32",
						"value": "t_uint256"
					},
					"t_uint256": {
						"encoding": "inplace",
						"label": "uint256",
						"numberOfBytes": "32"
					}
				}
			},
			"userdoc": {
				"kind": "user",
				"methods": {},
				"version": 1
			}
		}
	}
}